:020000040800F2
:10000000E85900205D020008DF280008B924000834
:10001000DD2800086F090008613C000800000000AE
:100020000000000000000000000000009D0100082A
:10003000F90A000800000000F9010008F533000883
:1000400077020008770200087702000877020008AC
:10005000770200087702000877020008770200089C
:10006000770200087702000877020008770200088C
:10007000490A0008770200087702000877020008A2
:10008000770200087702000877020008770200086C
:10009000770200087702000877020008770200085C
:1000A000770200087702000877020008770200084C
:1000B000770200087702000877020008770200083C
:1000C000770200087702000877020008770200082C
:1000D000770200083D3C000877020008493C000810
:1000E000770200087702000877020008770200080C
:1000F00077020008770200087702000877020008FC
:1001000077020008770200087702000877020008EB
:10011000A9370008B5370008770200087702000801
:1001200077020008770200087702000877020008CB
:1001300077020008770200087702000877020008BB
:1001400077020008770200087702000877020008AB
:10015000770200087702000877020008553C000883
:10016000770200087702000877020008770200088B
:1001700077020008770200087702000800000000FC
:100180007702000877020008DFF80CD000F0AEFB21
:100190000048004781490008E85900202C4B1968A5
:1001A0000868B0E8F04F80F30988BFF36F8F4FF015
:1001B000000080F3118870470000000008480068C4
:1001C000006880F308884FF0000080F3148862B65E
:1001D00061B6BFF34F8FBFF36F8F00DF00BF00BF6B
:1001E00008ED00E0DFF80C00016841F470010160E7
:1001F000704700BF88ED00E0EFF30980BFF36F8F19
:10020000134B1A681EF0100F08BF20ED108A20E96A
:10021000F04F106009B44FF0500080F31188BFF325
:100220004F8FBFF36F8F05F02DFD4FF0000080F36F
:10023000118809BC19680868B0E8F04F1EF0100F6B
:1002400008BFB0EC108A80F30988BFF36F8F704746
:10025000F4010020EFF30580704700000648804756
:1002600006480047FEE7FEE7FEE7FEE7FEE7FEE79B
:10027000FEE7FEE7FEE7FEE7A53400088901000877
:100280002DE9F05F0546002092469B4688460646CB
:10029000814640241BE0284641464746224600F05E
:1002A0003EFA53465A46C01A914110D31146184699
:1002B000224600F025FA2D1A67EB01084F46224628
:1002C0000120002100F01CFA17EB00094E41201E0E
:1002D000A4F10104DFDC484631462A464346BDE826
:1002E000F09F40EA01039B0703D009E008C9121FF1
:1002F00008C0042AFAD203E011F8013B00F8013BE0
:10030000521EF9D27047D2B201E000F8012B491E0B
:10031000FBD270470022F6E710B513460A460446A2
:100320001946FFF7F0FF204610BD2DE9FE4F80462D
:1003300081EA0300C00F0C46009021F0004123F039
:100340000045B8EB0200A94105D24046214690463F
:100350001C460B46024623F00040104347D0270DB1
:10036000C7F30A00C3F30A510290401A01904028D3
:100370006BDAC3F3130040F4801B0098924620B15F
:100380000023D2EB030A63EB0B0B01985946C0F133
:100390004002504600F0B4F906460D465046594614
:1003A000019A00F0CCF910EB08006141002487EAC3
:1003B000115284EAE7731A4340D0009A62B3019A5B
:1003C000012A4FEA075215DC001B61EB02014FF0D6
:1003D000004202EA0752CDE90042001C41F58011BB
:1003E00032462B4600F003FA03B0BDE8F08F4046DA
:1003F0002146F9E7001B61EB0201001C41F5801367
:1004000000185B412018A2F5001747EB030140EAF2
:10041000D570B6196D4111E06D084FEA360645EA10
:10042000C0754FEA0752001B61EB0201001C41F549
:10043000801149084FEA30000019514132462B46DD
:1004400003B0BDE8F04F00F0C3B9009801224000AE
:100450000023D0EB020263EBE073009821464FEAE1
:10046000E074B8EB000061EB0401E9E783F00043BE
:100470005BE781F0004158E72DE9FE4F81EA030474
:1004800004F0004421F0004100944FF0000B23F0F1
:10049000004350EA01045ED052EA03045BD0C3F388
:1004A0000A54C1F30A552C44A4F2F3340194A0FB7E
:1004B0000254C1F3130141F48011C3F3130343F455
:1004C000801301FB024400FB034E840A970A44EAAE
:1004D000815447EA8357A4FB076802958D0A05FB00
:1004E00007854FEA932C04FB0C542705029D4FEA25
:1004F000065847EA1637B5EB08056EEB070C870E72
:10050000920E47EA811742EA8312A7FB0201B6EB7B
:100510000B0164EB00042B0D43EA0C335E1844EB33
:100520001C50DA465146E7FB0201C5F313044FEABB
:100530000B3343EA14534FEA0432019C43EA0603A7
:10054000A4F10C040294009CCDE900B400F04FF932
:1005500003B0BDE8F08F00200146F9E72DE9F04D2A
:1005600081EA030404F0004B21F0004514464FF0EB
:10057000000A23F0004150EA050220D054EA0102AB
:100580001DD0C5F30A570246C5F31303C1F3130088
:10059000C1F30A5640F4801543F48013A7EB060814
:1005A000101BD64608F2FD3873EB050002D308F1A4
:1005B000010801E092185B41B8F1000F03DA002056
:1005C0000146BDE8F08D00204FF4801106468446B8
:1005D0000EE0171B73EB050705D3121B63EB050336
:1005E00006434CEA010C49084FEA300092185B417F
:1005F00050EA0107EDD152EA030012D082EA04006A
:1006000083EA0501084305D0101BAB4106D2012245
:10061000002306E000224FF0004302E06FF00102E9
:1006200053101AEB06004CEB085110EB0A0041EB9B
:100630000B01BDE8F04D00F0CBB80EB5C10F80EA5C
:10064000E0700844CA07002140F233438DE80E00F1
:100650000A460B4600F0CBF803B000BD0EB540F2E1
:10066000334102910021CDE900110A460B4600F00A
:10067000BEF803B000BD00F0004230F000400AD0E8
:10068000C10D01F56071C0F3160042EA0151C208C4
:1006900040071143704700200146704701F00043B6
:1006A00030B421F0004150EA010206D00A0DA2F553
:1006B0006072C1F31301002A02DC30BC00207047D5
:1006C000440F44EAC104C100E01830BC00EBC25042
:1006D00000F047B830B50B46014600202022012427
:1006E00009E021FA02F59D4205D303FA02F5491B00
:1006F00004FA02F52844151EA2F10102F1DC30BD16
:10070000202A04DB203A00FA02F1002070479140D1
:10071000C2F1200320FA03F3194390407047202AC6
:1007200004DB203A21FA02F00021704721FA02F39B
:10073000D040C2F120029140084319467047202A58
:1007400006DBCB17203A41FA02F043EAE07306E0F9
:1007500041FA02F3D040C2F1200291400843194609
:1007600070470029A8BF7047401C490008BF20F00F
:100770000100704710B4B0FA80FC00FA0CF050EAA7
:10078000010404BF10BC704749B1CCF1200421FA28
:1007900004F411FA0CF118BF012121430843A3EB23
:1007A0000C01CB1D4FEA00614FEA102042BF002030
:1007B00010BC704700EBC35010440029A4BF10BC0C
:1007C0007047401C490008BF20F0010010BC704772
:1007D00010B5141E73F1000408DA401C41F1000149
:1007E00092185B411A4301D120F0010010BD2DE9A0
:1007F000F04D92469B4611B1B1FA81F202E0B0FA97
:1008000080F220329046FFF77BFF04460F4640EA15
:100810000A0041EA0B0153465A46084313D01146D9
:1008200053EA010019D0C8F140025046FFF777FFA4
:1008300005460E46504659464246FFF761FF0843BB
:1008400005D0012004E020463946BDE8F08D0020A7
:10085000054346EAE0762C4337430A986305E40AE9
:10086000A0EB08000022FD0A44EA47540A3002D5F2
:1008700000200146E9E7010510196941DDE9084555
:1008800000196941BDE8F04DA2E7C1F30A52C1F376
:10089000130140F2FF3341F480119A4202DA002042
:1008A0000146704740F233439A42A2F2334202DCDF
:1008B0005242FFF734BFFFF723BF000030B5041EDC
:1008C00071F1000404DB4FF00044404264EB01018D
:1008D000141E73F1000405DB1C464FF00043524226
:1008E00063EB0403994208BF904230BD064C074DAC
:1008F00006E0E06840F0010394E8070098471034F0
:10090000AC42F6D3FFF744FC9C6F0008BC6F0008B4
:1009100070B58C1810F8015B15F0070301D110F8C1
:10092000013B2A1106D110F8012B03E010F8016BEE
:1009300001F8016B5B1EF9D12B0705D40023521E71
:100940000DD401F8013BFAE710F8013BCB1A921CD9
:1009500003E013F8015B01F8015B521EF9D5A142D7
:10096000D8D3002070BD012004F036F8FBE7FEE785
:100970001CB504F03EF80026244C751E0096019626
:100980002B4600226946A06A04F068F80028F5D1D9
:100990009DF80000532805D050282CD01CA003F04F
:1009A00031FEEBE79DF804309DF803209DF802101E
:1009B0001CA003F027FE9DF80100312819D001206A
:1009C0009DF802109DF80420303901EBC10303EBC0
:1009D000011102EB81019DF80320174B02EB82020B
:1009E00003EB42021144414314A0616003F00AFE8C
:1009F000C4E72846E4E7606B04F025FA684601F096
:100A00007FFF0521606B04F005FAB7E708000020BE
:100A1000434D44206973206572726F722121210D4C
:100A20000A000000416E676C652025632C25632C4D
:100A300025630D0A00000000F0FDFFFF416E676CAA
:100A4000652025640D0A0000014800F0E5B90000AA
:100A50009C04002001681823CAB2103AB2FBF3F2DA
:100A6000054B6FF30901032A9B5CC36500D9091D7F
:100A70008165084670470000846E000810B5014685
:100A800000208B698A6A4FF0C07453B1B3F5005FE0
:100A900015D072B1012A0CD0022A0AD0032A09D13A
:100AA00004E01AB1012A06D0022A03D1C96AC90199
:100AB00000D5012010BDC96AA142FAD010BD002A9C
:100AC000F7D0012AF2D0022AF3D0032AF3D010BDC6
:100AD00030B50468256825F48025256004686360C6
:100AE0008368402B036803D099600068C26030BD02
:100AF0009A600068C16030BD704772B6FEE770B59D
:100B00000D4604460188284602F044FCA178284698
:100B100002F01DFC94F8660110B9A088FF2808D9DE
:100B2000FF21284602F013FCA188284602F032FC7F
:100B300003E0C1B2284602F00AFCA288A11D2846A3
:100B400002F007FC284602F09CFB01462846BDE85F
:100B5000704002F0FCBB000070B504460A4844F641
:100B60001246049D06808170828080F86651194685
:100B7000801DFFF7B6FB04486168FFF7C0FF204601
:100B8000BDE8704003F06DB8E0510020F0B51446A8
:100B90002DED028B87B00F4606461D46B0EE408A0B
:100BA00004AA0B2101A802F085FB18EE100A1B49CC
:100BB000884202DD9FED1A8A06E018EE100A1949F4
:100BC000884201D99FED188AB4F57A1F01D99FEDAB
:100BD000178A394601A802F0BAFBB2EE040A01A84E
:100BE00028EE000ABDEEC00A10EE101A02F0C0FB9B
:100BF000214601A802F0C8FB29B201A802F0BEFB01
:100C0000002000900DF111030B220D213046FFF75B
:100C1000A3FF07B00020BDEC028BF0BD0000B4487C
:100C20000000B4480000B4C80000B4C800007A4A0C
:100C300092B003F0FFFD00BF03F068FE04A803F0CC
:100C40001BFD002848D00698FFF715FD06460F4605
:100C50000598FFF710FD04460D460498FFF70BFDBD
:100C60008DE8F00041EC100B1DA053EC102B03F0AD
:100C700033F80A98FFF7FFFC06460F460998FFF77E
:100C8000FAFC04460D460898FFF7F5FC8DE8F000E5
:100C900041EC100B1BA053EC102B03F01DF80E9829
:100CA000FFF7E9FC06460F460D98FFF7E4FC044603
:100CB0000D460C98FFF7DFFC8DE8F00041EC100BBF
:100CC00019A053EC102B03F007F89DED100B1FA09B
:100CD00053EC102B03F000F8642003F07DFEABE72B
:100CE0006779726F5F646174612E41434320203ADB
:100CF000583A256620593A2566205A3A25660D0A43
:100D0000000000006779726F5F646174612E67791B
:100D1000726F203A583A256620593A2566205A3A89
:100D200025660D0A000000006779726F5F646174C8
:100D3000612E616E676C653A583A256620593A25EE
:100D400066205A3A25660D0A0000000020526561AF
:100D50006C2074696D65206973203A25660D0A0060
:100D60002DE9F0410446876D00F0C0FA064694F87C
:100D700035000025022806D08020606584F83450B4
:100D80000120BDE8F0812068016821F016010160B2
:100D90002068416921F080014161206C08B9A06C94
:100DA00020B12068016821F0080101602068016815
:100DB00021F0010101600CE000F098FA801B052889
:100DC00007D920206065032084F8350084F834506A
:100DD000D7E720680068C007EED194F85C103F2088
:100DE0008840B860012084F8350084F83450002031
:100DF000C7E790F83510022903D080214165012012
:100E00007047052180F835100068016821F0010164
:100E100001600020704700002DE9F84304464FF0C0
:100E20000009CDF8009063484FF41651A56D006895
:100E3000B0FBF1F72E6894F85C10082000FA01F17D
:100E400031420FD021680A6852070BD50A6822F098
:100E500004020A6094F85C108840A860606D40F05D
:100E60000100606594F85C104FF0010808FA01F089
:100E7000304208D021684969090604D5A860606D30
:100E800040F00200606594F85C1004208840304215
:100E900008D021680968890704D5A860606D40F012
:100EA0000400606594F85C1010208840304218D02F
:100EB00021680968090714D5A860206801684903FA
:100EC00004D50068000308D5A16C07E00168C905D6
:100ED00003D4016821F008010160216C09B12046AA
:100EE000884794F85C1020208840304231D0216837
:100EF0000968C9062DD5A86094F835000528206832
:100F0000016806D0490347D5006800031DD4616C11
:100F10001CE021F0160101602068416921F0800188
:100F20004161206C08B9A06C20B12068016821F0F3
:100F30000801016094F85C103F208840A86084F8A4
:100F4000358084F83490216D1FE0E16B09B12046B3
:100F50008847606D00282BD0606DC00714D0052035
:100F600084F835002068016821F0010101600098D3
:100F7000401C0090B84203D820680068C007F6D132
:100F800084F8358084F83490E16C002910D001B0E9
:100F90002046BDE8F04308470168C905D5D401687B
:100FA00021F01001016084F8358084F83490CCE79A
:100FB000BDE8F883F00100202DE9F041044600F07F
:100FC00095F906465CB1022084F83500002584F8C6
:100FD00034502068016821F0010101600DE001201A
:100FE000BDE8F08100F082F9801B052805D920209A
:100FF0006065032084F83500F2E720680068C007C8
:10100000F0D12268116820480140D4E90103184357
:10101000D4E903363343184363691843A36918437B
:10102000E3691843236A18430843616A042903D11A
:10103000D4E90B1319430843106020684069666ABD
:1010400020F0070130460E43012704280CD1A06A86
:101050000643E06A40B12046FFF710FD20B1402072
:10106000606584F83570BAE7206846612046FFF76E
:10107000F1FC94F85C203F2191408160656584F823
:1010800035700020ACE700003F8010F02DE9F04102
:101090000446866D90F83400002501280DD001200B
:1010A00084F8340094F835700020012F07D084F8BC
:1010B000340002252846BDE8F0810220FBE7022724
:1010C00084F8357060652046FFF702FD94F85C10E7
:1010D0003F208840B0602068016841F0160101603F
:1010E000206C20B12068016841F00801016020688F
:1010F000016841F001010160DCE700002DE9F84FD3
:10110000DFF8BCA10022012503264FF00F090AF1E8
:10111000040BAAF1040E00BF0B6805FA02F4234089
:10112000A34270D10F7907F00307012F01D0022FDE
:1011300016D187684FEA420806FA08FC27EA0C072E
:10114000D1F80CC00CFA08FC4CEA070CC0F808C037
:101150004768A7430C79C4F3001494403C434460AF
:101160000C79E443A4070AD0C4684FEA420C06FA9B
:101170000CF7BC438F6807FA0CF72743C7600C795C
:1011800004F00304022C12D1D40800EB840CDCF828
:1011900020405707FF0E09FA07F824EA0804D1F89F
:1011A000108008FA07F848EA0408CCF820800468A0
:1011B0004FEA420C06FA0CF7BC430F7907F003071D
:1011C00007FA0CF7274307604C6814F4403F70D0CF
:1011D0003C4C276847F480472760246822F00307C7
:1011E00004F480440094384C07EB040CDCF8084805
:1011F00097074FEA177809FA08F7BC43334FB8420C
:1012000002D1002724E054E0314FB84201D1012738
:101210001EE0304FB84201D1022719E02E4FB842EC
:1012200001D1032714E02D4FB84201D104270FE06C
:101230002B4FB84201D105270AE02A4FB84201D10D
:10124000062705E0284FB84201D1072700E008270C
:1012500007FA08F72743CCF80878DAF80040574631
:10126000D1F804C09C435FEACC2C00D51C433C6001
:10127000DBF800405F46D1F804C09C435FEA8C2C49
:1012800000D51C433C60DEF800407746D1F804C02E
:101290009C435FEA8C3C00D51C433C60084F083FF0
:1012A0003C68D1F804C09C435FEACC3C00D51C43A9
:1012B0003C60521C102AFFF42FAFBDE8F88F0000ED
:1012C000083C014044380240003001400000024028
:1012D0000004024000080240000C024000100240DE
:1012E0000014024000180240001C024001488068BF
:1012F00070470000E4010020024881680278114430
:1013000081607047E40100200B4810B5016841F48A
:1013100000710160016841F480610160016841F47D
:1013200080710160032000F073F80F2000F006F8D0
:1013300000F024F8002010BD003C024070B50D4DB7
:1013400004464FF47A712878B1FBF0F00A49096835
:10135000B1FBF0F000F00EFB48B9102C07D20022D0
:101360002146501E00F034F800206C6070BD012052
:1013700070BD0000E4010020F00100200C4882B0A4
:10138000016841F480410160006800F480400090F1
:101390000748001F016841F0805101600068002289
:1013A00000F0805000900F21901E02B000F010B8A5
:1013B00044380240002809DB00F01F02012191405F
:1013C0004009800000F1E020C0F8001170470000E3
:1013D000F0B40E4B1B680C46C3F30223C3F10705A0
:1013E000042D00D90425191D072901D2002300E08E
:1013F000DB1E012606FA05F1491E214099409E4058
:10140000761E16403143F0BC02F088BC0CED00E0C3
:10141000064900F0070208684FF6FF03184040EA4B
:101420000220034A10430860704700000CED00E002
:101430000000FA052DE9F0470E46050065D0DFF8FB
:101440001481D8F80000F7B200F00700B04207D2CC
:1014500088F80070D8F8000000F00700B04254D1BE
:1014600028683D4C810712D5400703D5206840F419
:10147000E05020602878000703D5206840F46040E1
:1014800020602068A96820F0F000084320602878D8
:10149000C0072DD0304968680839012812D00228C9
:1014A00013D0032811D00968890700292DDA216893
:1014B00021F0030101432160FFF718FF814641F24B
:1014C000883A0EE009688903EFE709688901ECE7CB
:1014D000FFF70CFFA0EB0901514502D90320BDE83D
:1014E000F0872068696800F00C00B0EB810FEFD145
:1014F000D8F80010404601F00701B14207D9077043
:10150000006800F00700B04201D00120E7E728782A
:10151000400705D52068E96820F4E05008432060C2
:101520002878000706D52068296920F4604040EA41
:10153000C100206000F038F82168084AC1F30311A7
:10154000515CC8400649086006480068FFF7F6FE8F
:101550000020C4E7003C0240083802408C6E0008BE
:10156000F0010020E80100200448054900680968EE
:10157000044AC1F38221515CC8407047F001002049
:10158000083802409C6E0008044805490068096854
:10159000044AC1F34231515CC8407047F001002059
:1015A000083802409C6E0008154810B5006810F01D
:1015B0000C02144813D04110042A0FD0082A0ED16F
:1015C0000F4C241F2268236802F03F025B0207D5FC
:1015D0002068C0F38810A0FB010106E0084610BD9A
:1015E0002168C1F38811A1FB00010023FEF748FE2A
:1015F0002168C1F30141491C4900B0FBF1F010BD65
:10160000083802400024F4002DE9F84F04006ED0A1
:101610002078DFF84C93C007A9F104054AD009F1FE
:1016200004000168C1F38101012908D00068C0F3FA
:10163000810002280AD1D9F80000400206D52868A6
:10164000800337D560680028E1D033E06068B0F5EA
:10165000803F10D0B0F5A02F286810D020F4803043
:101660002860286820F4802028606068A8B1FFF70F
:101670003DFE06460DE0286840F48030F4E740F473
:1016800080202860F7E700BFFFF730FE801B64284A
:1016900073D828688003F7D50CE0FFF727FE0646CD
:1016A00005E000BFFFF722FE801B6428F0D8286801
:1016B0008003F7D42078DFF8AC8280074FF0000A6F
:1016C0003ED5A748001D016811F00C0F08D0006836
:1016D000C0F3810002280BD1D9F80000400207D4E2
:1016E0002868800716D5E068012800D112E033E1B0
:1016F000E068B8B10120C8F80000FFF7F7FD064622
:1017000005E000BFFFF7F2FD801B0228C0D8286863
:101710008007F7D52868216920F0F80040EAC10069
:1017200028600DE0C8F800A0FFF7E0FD064604E0E1
:10173000FFF7DCFD801B02281FD828688007F7D43C
:101740002078000722D5864F87486169703771B1CC
:1017500001210160FFF7CAFD064604E0FFF7C6FD60
:10176000801B022809D838688007F7D50EE0C0F83A
:1017700000A0FFF7BBFD064605E082E0FFF7B6FDDF
:10178000801B02287DD838688007F7D4207840076E
:1017900068D5DFF8CCB100270BF13C0BDBF800007B
:1017A000C0000BD4DBF8001041F08051CBF80010E2
:1017B000DBF80000012700F0805000906B4E30688D
:1017C000C00510D4306840F480703060FFF78EFDA3
:1017D000009005E0FFF78AFD0099401A022850D8D2
:1017E0003068C005F6D55E4EA0686C3601280FD073
:1017F0000528306810D020F001003060306820F0FB
:1018000004003060A068B8B1FFF770FD00900FE0F1
:10181000306840F00100F4E740F004003060F7E782
:10182000FFF764FD0099411A41F28830814266D881
:1018300030688007F4D50EE0FFF758FD009007E010
:10184000FFF754FD0099411A41F28830814256D881
:1018500030688007F4D42FB1DBF8001021F08051FC
:10186000CBF80010A069C8B33D49091D0968C1F350
:10187000810102294AD00228504607D0C8F86000EA
:1018800000E03CE0FFF732FD04463BE04746C8F885
:101890006000FFF72BFD064605E000BFFFF726FDC1
:1018A000801B02282BD828688001F7D4D4E90701CF
:1018B0000843A16A2E4A490802EB0141626A41EAE3
:1018C0008211084394F82C1040EA0161C9F8001015
:1018D00001203866FFF70AFD044606E03EE000BF3F
:1018E000FFF704FD001B022809D828688001F7D5FE
:1018F00034E000BFFFF7FAFC001B022802D90320E6
:10190000BDE8F88F28688001F4D427E00128F7D0DB
:10191000D9F80000E26900F4800191421CD1226AEA
:1019200000F03F01914217D147F6C071626A014051
:10193000B1EB821F10D1A26A4FF0FF3300F44031A7
:1019400003EB5202B1EB024F06D194F82C1000F0D9
:101950007060B0EB016F01D00120D1E70020CFE72C
:101960000438024000004742800E474200700040A9
:101970000000FFFF10B5401EB0F1807F01D30120B1
:1019800010BD4FF0E02460610F21601702F0C6F92E
:101990000020A06107202061002010BD70B590F8E4
:1019A0003C20012A32D0012480F83C40022280F8F9
:1019B0003D2003685A689D6822F070060A68324329
:1019C0005A60134B02689A4214D0B2F1804F11D082
:1019D000104B9A420ED0104B9A420BD00F4B9A42AA
:1019E00008D00F4B9A4205D00E4B9A4202D00E4BB4
:1019F0009A4204D1496825F080031943916080F828
:101A00003D40002180F83C10084670BD022070BDAA
:101A1000000001400004004000080040000C0040AD
:101A200000040140004001400018004010B50400CF
:101A300003D094F83D0010B107E0012010BD002054
:101A400084F83C00204600F01FF8022084F83D0096
:101A5000211D206801F02EFD012084F8460084F845
:101A60003E0084F83F0084F8400084F8410084F888
:101A7000420084F8430084F8440084F8450084F868
:101A80003D00002010BD000008B50C4A01680C485C
:101A9000914207D1016841F002010160006800F045
:101AA000020009E0074A914207D1016841F00401B0
:101AB0000160006800F00400009008BD00040040D0
:101AC000403802400008004070B5044690F83C00E1
:101AD0000025012817D0012684F83C60022084F8F4
:101AE0003D002068826822F0770222F47F42826003
:101AF0000868502838D00DDC20284FD005DC90B382
:101B0000102811D14AE0022070BD302846D040286C
:101B10000AD13BE060282FD070280DD0B0F5805F4F
:101B200003D0B0F5005F12D0012584F83D6000209D
:101B300084F83C00284670BDCB68D1E901212068BB
:101B400001F02DFD2068816841F0770109E0CB6844
:101B5000D1E90121206801F022FD2068816841F46B
:101B600080418160E1E719E0CA684968206801F0B6
:101B7000EBFD5021206806E0CA684968206801F042
:101B8000F4FD6021206801F014FDCEE7CA684968C1
:101B9000206801F0D9FD40212068F4E72268014661
:101BA0001046F0E710B586B0044614216846FEF7EB
:101BB000B1FB2368174C002117480222A34210D121
:101BC000036843F002030360006800F00200059020
:101BD00033200090CDE90121CDE9031269460F4879
:101BE00013E00F4CA34212D1036843F008030360D3
:101BF000006800F0080005904FF470400090CDE9B7
:101C00000121CDE9031269460648FFF777FA06B0CD
:101C100010BD0000000400403038024000040240C3
:101C200000080040000C024070B5044690F83C00EB
:101C300000260D4601280FD0012084F83C006AB12F
:101C4000042A1DD0082A2FD00C2A3FD001260020BC
:101C500084F83C00304670BD022070BD206801F061
:101C6000B1FC2068816941F00801816120688169C7
:101C700021F004018161206881692A69114311E022
:101C8000206801F0CFFC2068816941F40061816126
:101C90002068816921F480618161206881692A69F5
:101CA00041EA02218161D2E7206801F0F1FC20685D
:101CB000C16941F00801C1612068C16921F00401D6
:101CC000C1612068C1692A69114311E0206801F0EF
:101CD00013FD2068C16941F40061C1612068C169D8
:101CE00021F48061C1612068C1692A6941EA022149
:101CF000C161ACE710B5040003D094F83D0010B109
:101D000007E0012010BD002084F83C00204600F0D0
:101D10001EF8022084F83D00211D206801F0CAFB56
:101D2000012084F8460084F83E0084F83F0084F8DF
:101D3000400084F8410084F8420084F8430084F8AD
:101D4000440084F8450084F83D00002010BD704731
:101D500010B50446022249B104290ED0082913D037
:101D600094F84100012816D0012010BD94F83E00DF
:101D70000128F9D184F83E200FE094F83F000128B3
:101D8000F2D184F83F2008E094F840000128EBD11C
:101D900084F8402001E084F841200122206801F00D
:101DA000F1FB16492068164A884201D0904203D1BF
:101DB000436C43F4004343642068884213D0B0F17D
:101DC000804F10D00F4988420DD00F4988420AD069
:101DD0000E49884207D0904205D00D49884202D072
:101DE0000C49884204D1816801F00701062903D01B
:101DF000016841F001010160002010BD00000140B8
:101E0000000401400004004000080040000C0040B5
:101E1000004001400018004070477047F8B5016865
:101E200004460868CA684B6910F00F0F4FF00005B0
:101E30005AD003F0010602F49077374365D0C1070A
:101E400005D0D10503D5616C41F001016164410702
:101E500005D5D90703D0616C41F0020161648107A7
:101E600005D5D90703D0616C41F004016164010715
:101E700007D502F02001314303D0616C41F0080125
:101E80006164616C00293BD0800604D5900602D5C0
:101E9000204601F048FD20684069616CC0F3801065
:101EA00001F00801014320462BD001F007FD206816
:101EB0004069400621D52068143050E8001F21F009
:101EC000400140E80012002AF5D1E06BA8B1724948
:101ED0000165E06BFEF78DFF002811D0E06B016D0E
:101EE00001B0BDE8F040084783060ED593060CD537
:101EF0002046BDE8F84001F016BD2046FFF78DFFF3
:101F0000F8BDFFF78AFF6564F8BD266B2023012E1C
:101F10007ED1C6067CD5D6067AD50868486800907A
:101F200048694FF0020640064DD5E26B10684068E4
:101F30004FF480770004000C3AD0A18D814237D94C
:101F4000E085D069B8422DD020680C3050E8001FE1
:101F500021F4807140E80012002AF5D12068143085
:101F600050E8001F21F0010140E80012002AF5D1DD
:101F70002068143050E8001F21F0400140E80012B2
:101F8000002AF5D184F84230256320680C3050E8EF
:101F9000001F21F0100140E80012002AF5D1E06B8B
:101FA000FEF7DEFE6663A08DE18D401A81B206E089
:101FB000A18D8142A8D1D069B842A5D166632046DF
:101FC000FFF72AFFF8BDA08DE18D401A81B2E08DA8
:101FD0000028F7D00029F5D020680C3050E8002FF9
:101FE00022F4907240E80027002FF5D120681430C9
:101FF00050E8002F22F0010240E80027002FF5D121
:1020000084F84230256320680C3050E8002F00E04F
:1020100006E022F0100240E80023002BF3D1CDE7C8
:1020200005062BD5150629D594F841002128C9D1DC
:10203000A068B0F5805F01D12069B0B1206A411C71
:102040002162216800784860E08C401E0004000C8A
:10205000E084B7D12068C16821F08001C1602068A8
:10206000C16841F04001C160F8BD206A0088C0F33A
:1020700008004860206A801C2062E5E74006F3D52E
:102080005006F1D5CA68204622F04002CA6084F8A2
:10209000413000F010FAF8BDC137000870B50400F7
:1020A00004D094F84100002510B106E0012070BD75
:1020B00084F84050204600F023F8242084F84100A2
:1020C0002068C16821F40051C160204601F08CFCF9
:1020D0002068016921F4904101612068416921F083
:1020E0002A0141612068C16841F40051C160656402
:1020F000202084F8410084F842006563002070BD10
:102100002DE9F04F87B0804614216846FEF702F9AA
:102110008248DFF804C2D8F8003000247F49103824
:102120000225032608277E4A4FF4406A634520D1E2
:102130000B6843F400230B60096801F4002105914A
:10214000016841F0040101600068CDF800A000F0D2
:102150000400CDE904700396CDE9015469461046A8
:10216000FEF7CCFF002205213420FFF731F934209F
:1021700036E0DFF8B0C1634537D10B6843F4801314
:102180000B60096801F480110591016841F00401B8
:102190000160016801F004010591016841F0080146
:1021A0000160006802AB00F0080005904FF4805019
:1021B000CDE9000583E8D00069461046FEF79EFF92
:1021C0000420CDE9000502AB694683E8D0005648FB
:1021D000FEF794FF002205213520FFF7F9F835209E
:1021E000FFF7E8F807B0BDE8F08FDFF840C1DFF88F
:1021F0002C914FF0070B09F10409634524D1D9F85C
:10220000002042F01002C9F80020D9F8001001F0B7
:1022100010010591016841F001010160006802AA06
:1022200000F0010005904FF4C060CDE9000582E8A0
:10223000500869463E48FEF761FF0022052125202F
:10224000FFF7C6F82520CBE7DFF8E8C063453BD1B0
:102250000A6842F480220A60096801F4802105912D
:10226000016841F0020101600068CDF800A000F0B3
:102270000200CDE904B00396CDE9015469462E4829
:10228000FEF73CFF2E4D2D4828604FF00060C5E959
:1022900001044014C5E9034080106C61C5E90640A3
:1022A0000002C5E908042846FEF786FE08B1FEF7DD
:1022B00024FCC8F83C50002205212720C5F83880AE
:1022C000FFF786F827208BE71E498B428AD1D9F881
:1022D000003043F02003C9F80030D9F8001001F0B5
:1022E00020010591016841F004010160006802AB22
:1022F00000F004000590C020CDE9000583E8D0007F
:1023000069461046FEF7FAFE002205214720FFF736
:102310005FF8472064E70000004C0040403802406E
:102320000008024000500040000C02400010014034
:1023300000000240004800400004024028600240C3
:102340009C0400200014014090F84230202B01D062
:102350000220704721B11AB10023036301F0CABB08
:102360000120704790F84230202B01D002207047A6
:1023700021B11AB10023036301F00CBC01207047A6
:102380007CB5064600681D49884223D11C4CA01C20
:10239000811E627809780A2A01D0052911D3002507
:1023A00045540195D4F802000090E088ADF804008F
:1023B00014482B462A466946006802F0ADFB25709A
:1023C00002E04254491C21700D490122491C0E486B
:1023D000FFF7C8FF0D4C30682168096888420CD1AE
:1023E0000B480178A06800F09FFF206802B001222E
:1023F000BDE870400649FFF7B5BF7CBD004C00400A
:10240000000000203000002034030020D4510020C0
:102410007402002070472DE9F843044690F841000B
:10242000984616460D46202802D00220BDE8F883C3
:1024300085B17EB100206064212084F84100FEF760
:1024400055FFA6848146E684A0682027B0F5805F0A
:1024500002D003E00120E9E7206910B12E460025F3
:102460000EE000260CE08021204601F0AEFBA8B96A
:10247000C6B116F8010B21684860E08C401EE0846C
:10248000E08C4B464FF00002CDF800800028EAD1E6
:102490004FF04001204601F098FB40B184F84170B4
:1024A0000320C3E735F8020BC0F30800E3E784F824
:1024B00041700020BAE77047FEE70000094808B500
:1024C000016841F4001101600068002200F400106E
:1024D000009005210C20FEF77BFFBDE808400C2092
:1024E000FEF768BF3038024010B52F4A0621102091
:1024F00002F0E6FA2D4C2C4A4FF48171A06218329A
:10250000202002F0DDFAE062294A0021294802F089
:1025100001FC274AA06024320021274802F0FAFB80
:10252000234AE06048320021244802F0F3FB204AAD
:1025300020616C320021224802F0ECFB1A4A6061F3
:10254000903A00211F4802F0E5FB174AA0616C3A5F
:1025500000211D4802F0DEFB134AE061483A0021E9
:102560001A4802F0D7FB104A2062243A002118488A
:1025700002F0D0FB6062002002F02BFB206308B960
:10258000FEF7BBFA00221146012002F077FB002380
:10259000A0631A4601210F4802F000FC6063BDE809
:1025A0001040052102F036BCA46C00080800002091
:1025B000846B00081132000871090008E92800083E
:1025C000310C0008A13300085532000867090008E3
:1025D000E12800081D310008154808B5016841F0E0
:1025E00080010160016801F080010091016841F003
:1025F00002010160016801F002010091016841F0EF
:1026000008010160016801F008010091016841F0D2
:1026100004010160016801F004010091016841F0CA
:1026200001010160006800F00100009008BD000099
:102630003038024010B58EB00024079408940994F5
:102640000A940B941C2168460C94FDF763FE2A48FB
:102650002849016040F21941C0E90114C721C0E9CD
:1026600003148461FFF7E2F908B1FEF746FA4FF46C
:102670008050079007A92048FFF726FA08B1FEF717
:102680003CFA1D48FFF736FB08B1FEF736FA0B940B
:102690000BA919480C94FFF781F908B1FEF72DFA40
:1026A0006020CDE900040294002269461248049497
:1026B000FFF7BAFA08B1FEF720FA042269460E487D
:1026C000FFF7B2FA08B1FEF718FA082269460A487D
:1026D000FFF7AAFA08B1FEF710FA0C22694606487D
:1026E000FFF7A2FA08B1FEF708FA0348FFF75AFA13
:1026F0000EB010BD00040040A402002010B58EB042
:1027000000240794089409940A940B941C216846A9
:102710000C94FDF7FFFD2A482849016040F2194159
:10272000C0E90114C721C0E903148461FFF77EF9F1
:1027300008B1FEF7E2F94FF48050079007A920484E
:10274000FFF7C2F908B1FEF7D8F91D48FFF7D2FA32
:1027500008B1FEF7D2F90B940BA919480C94FFF7B6
:102760001DF908B1FEF7C9F96020CDE90004029413
:102770000022694612480494FFF756FA08B1FEF7A2
:10278000BCF9042269460E48FFF74EFA08B1FEF77D
:10279000B4F9082269460A48FFF746FA08B1FEF77D
:1027A000ACF90C2269460648FFF73EFA08B1FEF77D
:1027B000A4F90348FFF7F6F90EB010BD0008004079
:1027C000EC0200200C4810B50A4901604FF4165184
:1027D0004160002181600C22C160C0E90412816166
:1027E000C161FFF75BFC002803D0BDE81040FEF795
:1027F00084B910BD004C0040340300200C4810B5D3
:102800000A4901604FF461214160002181600C227E
:10281000C160C0E904128161C161FFF73FFC00287B
:1028200003D0BDE81040FEF768B910BD005000406D
:102830007C0300200C4810B50A4901604FF4E131D7
:102840004160002181600C22C160C0E904128161F5
:10285000C161FFF723FC002803D0BDE81040FEF75C
:102860004CB910BD00100140C40300200C4810B545
:102870000A4901604FF4E1314160002181600C227E
:10288000C160C0E904128161C161FFF707FC002843
:1028900003D0BDE81040FEF730B910BD004800403D
:1028A0000C0400200C4810B50A4901604FF4E131D6
:1028B0004160002181600C22C160C0E90412816185
:1028C000C161FFF7EBFB002803D0BDE81040FEF725
:1028D00014B910BD0014014054040020FEE7FEE7C7
:1028E000012002F079F8FBE700F0F0FB9FED030A0E
:1028F00000F084F9642002F06FF8FBE70000484222
:102900002DE9F04F2DED048B87B0017850297ED151
:1029100046788578C778047900943B462A46314644
:102920007EA0019401F06EFE00EE107AB8EE400A2F
:10293000DFED820A20EE208A00EE104AB8EE400A4F
:102940009FED7F1AC0EE010A9FED7E0A01214FF034
:10295000FF30122E20EE809A00EE104AB8EE400AA8
:10296000C0EE010A7DD008DC002E55D0012E64D0C7
:10297000102E77D0112E4AD1B9E0132E73D0142E19
:1029800072D0152E43D10024012707FA04F0284203
:102990003AD004EB44006C4A6B49C03A01EBC001E9
:1029A00002EBC006884618223046FDF79AFC86EDF9
:1029B000008A96ED020A012070EE098AC6ED028AAD
:1029C000307518EE100AFDF756FE98ED020A8246A1
:1029D0008B4638EEC00A10EE100AFDF74CFE064694
:1029E0000F4618EE900AFDF746FECDE9000102A958
:1029F000554881E8C00CC030012150F8242000E087
:102A000005E052A001F0FEFD641C082CBCDB07B001
:102A1000BDEC048BBDE8F08F00204B4C0346C03C5E
:102A200001FA00F22A4204D000EB400204EBC20299
:102A30001375401C0828F3DBE9E700248B460BFAEA
:102A400004F05F4628423DD004EB44003E4A3E4934
:102A5000C03A01EBC00102EBC0068A46182230469C
:102A600003E04DE03AE04DE055E0FDF73AFC86ED3D
:102A7000008A96ED020ABB4618EE100A70EE098A2B
:102A8000C6ED028A3775FDF7F6FD9AED020A80461B
:102A9000894638EEC00A10EE100AFDF7ECFD064636
:102AA0000F4618EE900AFDF7E6FD02460B468DE84C
:102AB000CC0325485946C03050F8242023A001F00B
:102AC000A1FD07E02049002004EB4402C03901EBDE
:102AD000C2010875641C082CB1DB98E707B0B0EEA2
:102AE000480ABDEC048BBDE8F04F00F095B807B084
:102AF000B0EE480ABDEC048BBDE8F04F00F0E0B941
:102B00000120F4E707B0B0EE480ABDEC048BBDE845
:102B1000F04F00F01FB90120F4E70000456E746526
:102B200072202530582C2530582C2530582C253033
:102B3000582C25642F3235350D0A0000CDCCCC3D04
:102B400000007F43DA0FC9400401002063683A2582
:102B5000642C51493A252D36732C7975616E3A25CE
:102B60002E33662C6F66667365743A252E33662C99
:102B7000667265713A252E33660D0A0007282ED835
:102B8000B5EEC00ADFED1A0A184AF1EE10FA02D2C9
:102B90009FED180A05E010EE101A914201DDB0EE2B
:102BA000600A154A52F8301002EBC000096842680A
:102BB000C86A80EE201A00EE100AF8EE400AB6EE5F
:102BC000000A01EE200ABCEEC00A10EE100A3AB16B
:102BD000042A07D0082A07D00C2A00D108647047BD
:102BE0004863704788637047C86370470000C842F5
:102BF0000000C84200000000A46E000800B5F0EE1E
:102C0000401A0023B0EE610A1846FFF7B7FF5B1CBD
:102C1000DBB2072BF6D900BD10B52DED028BA4B0A9
:102C2000B0EE408A9FED430A60EE808A18EE900A6B
:102C3000FDF721FD41EC100B3FA053EC102B01F0F0
:102C4000E1FC182241496846FDF74BFB404C8DEDF5
:102C5000008A182294ED140A6946A4F1780030EE37
:102C6000280A8DED020AFDF73CFB3849182218317D
:102C700006A8FDF736FB8DED068A94ED0E0A1822A4
:102C80008DED080A06A9A4F19000FDF72AFB2F4953
:102C9000182230310CA8FDF724FB8DED0C8A94ED41
:102CA0002C0A18220CA930EE680AA4F118008DED48
:102CB0000E0AFDF716FB25491822483112A8FDF728
:102CC00010FB8DED128A94ED020A182212A930EE43
:102CD000280AA4F1C0008DED140AFDF702FB1B4980
:102CE0001822603118A8FDF7FCFA8DED188A94EDD2
:102CF000080A18228DED1A0A18A9A4F1A800FDF7F8
:102D0000F0FA1249182278311EA8FDF7EAFA8DED83
:102D10001E8A94ED1A0A18221EA930EE680AA4F140
:102D200060008DED200AFDF7DCFA24B0BDEC028BCB
:102D300010BD0000DA0FC940466F727761726420DF
:102D4000647068693A252E32660D0A00D46C00085A
:102D50000401002030B504462DED028BA5B0B0EE85
:102D6000408A9FED4C0A60EE808A18EE900AFDF7CB
:102D700082FC41EC100B48A053EC102B009401F0A6
:102D800041FC18224C4901A8FDF7ABFA00EE104AAD
:102D90004A4D8DED018AB8EEC00AD5ED140A18220D
:102DA00001A940EE680AA5F17800CDED030AFDF710
:102DB00098FA41491822183107A8FDF792FA8DEDCB
:102DC000078A95ED0E0A18228DED090A07A9A5F1CB
:102DD0009000FDF786FA3849182230310DA8FDF72A
:102DE00080FA00EE104A8DED0D8AD5ED2C0AB8EE72
:102DF000C00A18220DA9A5F1180040EE280ACDED51
:102E00000F0AFDF76EFA2C491822483113A8FDF776
:102E100068FA00EE104A8DED138AD5ED020AB8EE7D
:102E2000C00A182213A9A5F1C00040EE680ACDED32
:102E3000150AFDF756FA20491822603119A8FDF746
:102E400050FA8DED198A95ED080A18228DED1B0AAE
:102E500019A9A5F1A800FDF744FA174918227831FD
:102E60001FA8FDF73EFA00EE104A8DED1F8AD5ED42
:102E70001A0AB8EEC00A18221FA9A5F1600040EE98
:102E8000280ACDED210AFDF72CFA25B0BDEC028B06
:102E900030BD0000DA0FC940536574526F7461741D
:102EA0006520647068693A252E32662C6469723A2E
:102EB00025640D0A00000000F46D000804010020E4
:102EC0002DE9F04780462DED028BA4B0B0EE408A8C
:102ED0009FED740A60EE808A18EE900AFDF7CBFB36
:102EE00041EC100B70A053EC102BCDF8008001F0DA
:102EF00089FB744FA7F1C00404F1480904F1300ABA
:102F000004F1A80604F118056034B8F1000F5BDA8B
:102F100018226D496846FDF7E4F98DED008A97EDBA
:102F2000140A1822694630EE280A48468DED020A36
:102F3000FDF7D7F964491822183106A8FDF7D1F931
:102F40008DED068A97ED0E0A18228DED080A06A966
:102F50005046FDF7C6F95C49182230310CA8FDF740
:102F6000C0F98DED0C8A97ED2C0A18220CA930EED1
:102F7000680A30468DED0E0AFDF7B3F9182112A844
:102F8000FDF7C8F98DED128A97ED020A182212A9F1
:102F900030EE280AA4F160008DED140AFDF7A1F9C6
:102FA000182118A8FDF7B6F98DED188A97ED080AD3
:102FB00018228DED1A0A18A92846FDF792F9182152
:102FC0001EA8FDF7A7F95BE018216846FDF7A2F9F6
:102FD0008DED008A97ED140A1822694630EE280A12
:102FE00048468DED020AFDF77CF9182106A8FDF789
:102FF00091F98DED068A97ED0E0A18228DED080ADB
:1030000006A95046FDF76DF918210CA8FDF782F9C5
:103010008DED0C8A97ED2C0A18220CA930EE680A67
:1030200030468DED0E0AFDF75CF92749182248312C
:1030300012A8FDF756F98DED128A97ED020A214884
:10304000182230EE280A12A9C0388DED140AFDF7B7
:1030500048F91D491822603118A8FDF742F98DED95
:10306000188A97ED080A18228DED1A0A18A9284621
:10307000FDF737F91449182278311EA8FDF731F908
:103080008DED1E8A97ED1A0A18221EA930EE680AE5
:1030900020468DED200AFDF724F924B0BDEC028B0B
:1030A000BDE8F087DA0FC9405365745475726E201D
:1030B000647068693A252E32662C6469723A256418
:1030C0000D0A000004010020646D000810B5002105
:1030D0001048FEF73DFE04210E48FEF739FE082198
:1030E0000C48FEF735FE0C210A48FEF731FE0021A0
:1030F0000948FEF72DFE04210748FEF729FE0821A6
:103100000548FEF725FEBDE810400C210248FEF7F9
:103110001FBE0000A4020020EC0200202DE9F041B7
:10312000334EDFF8D080364D364F00242DED048B22
:10313000F1EE048A9FED308A9FED309A04EB440053
:1031400006EBC000017DE1B3D0ED000A2E4A10EE7F
:10315000901A914239DD264960EE880A3C3990ED9B
:10316000010A91ED001A414600EE810A10EE102A84
:1031700080ED010A8A4203DB30EE480A80ED010A45
:10318000D0ED020A30EE200A02E000BF30EE480A1D
:1031900010EE100A8842F9DA02E000BF30EE080AA9
:1031A000B5EEC00AF1EE10FAF8D300BFC0EE080A7F
:1031B000B0EE680A00EE890A10EE100AA84207DA9B
:1031C00000E002E0B0EE680A08E090ED030AEDE7E7
:1031D00010EE100AB84201DD9FED0C0AE0B2FFF7D5
:1031E000CDFC641C082CA9DBBDEC048BBDE8F08190
:1031F00044000020DA0FC940DA0FC9400000B44291
:103200000000A0400000BE420AD7233C0000BE429E
:103210000E4DC2B04FF0FF34234600226946E86AE3
:1032200001F01CFC0028F7D12146286B01F0A8FC16
:103230000028F1D1BDF80021234669460448FFF774
:10324000EAF8286B01F0F9FCE6E70000080000202E
:1032500034030020012001F0BFFBFBE700B5038928
:103260005B1E00F003F8181A80B200BD8288C18886
:103270008A4201D8881A02E00089511A401A80B2A5
:10328000704770B50346FFF7F1FF02460020014684
:103290000DE09C88491C1D890C44B4FBF5F605FB28
:1032A00016441D68A4B289B22C5D2044C0B291427C
:1032B000EFD370BD026000228280C280491C018170
:1032C000114603E003685A54491C89B203898B42B2
:1032D000F8D8704710B50446FFF7C0FF2189491E92
:1032E00089B2884201D1012010BD002010BD00B577
:1032F000FFF7B4FF08B1002000BD012000BD10B5EC
:103300000446FFF7E7FF08B1002010BDA08821891F
:10331000401CB0FBF1F201FB120081B2A1802268D7
:103320000023505C535410BD30B50D460446FFF7E2
:10333000DEFF00280AD1E0882189401CB0FBF1F2B1
:1033400001FB120080B2E08021680D5430BDFFF710
:10335000EBBFF0B515460E460746002405E0315D8B
:103360003846FFF7E1FF641CA4B2AC42F7D3F0BDCE
:1033700003B501A90422FFF7ECFF0CBD03B501A9B9
:103380000222FFF7E6FF0CBD03B501A90422FFF7F7
:10339000E0FF0CBD03B501A90222FFF7DAFF0CBD67
:1033A0004FF0000A114C124ED1464FF4FF774FF404
:1033B00057754FF4AF784FF4FA7B6068C822A0F5D8
:1033C000AF71B94205D9A84201DD656001E0C4F8DA
:1033D000048094ED010A4B465146B8EEC00A3068AD
:1033E000FDF7D4FB584601F0F7FAE6E708000020A5
:1033F0007802002010B5FDF77FFF03F07FF9012868
:1034000003D0BDE8104002F0E9BC10BD30B593B068
:1034100030216846FCF77EFF14210CA8FCF77AFFE8
:103420001E480025016841F080510160006800F0ED
:10343000805011901A48016841F480410160006891
:10344000022400F4804011900120009000040190BB
:103450008001CDE90640082008904FF4A870CDE91E
:10346000090404200B906846FEF7CEF808B172B646
:10347000FEE70CA90F2081E831004FF4A0500F9017
:103480004FF48050109005210CA8FDF7D3FF0028C1
:1034900001D072B6FEE713B030BD000040380240E4
:1034A000007000400248016841F4700101607047FB
:1034B00088ED00E0F0B50268274B284D284E294FD3
:1034C000294C4FF0804C984209D0604507D0A84263
:1034D00005D0B04203D0B84201D0A04204D122F0BE
:1034E000700E4A6842EA0E0298421BD0604519D01D
:1034F000A84217D0B04215D0B84213D0A04211D084
:103500001A4DA8420ED01A4DA8420BD0194DA84210
:1035100008D0194DA84205D0184DA84202D0184D28
:10352000A84203D122F44075CA682A434D6922F0AB
:1035300080022A438D68C5620D688562984201D079
:10354000A04201D109690163016841F004010160F1
:10355000012141610260F0BD000001400004004013
:1035600000080040000C0040000401400040014001
:10357000004401400048014000180040001C004089
:103580000020004010B501F01F030121046A99409A
:103590008C430462016A9A401143016210BD10B568
:1035A000846842EA032224F47F440A43224382606F
:1035B00010BD826822F070020A4342F00701816068
:1035C00070470000F0B5036A026A22F0010202624D
:1035D00042688469124E24F073050C682C4323F072
:1035E00002058B682B430D4DA84201D0B04205D196
:1035F00023F00807CB683B4323F00403A84201D023
:10360000B04205D14D6922F4407215438A692A43BC
:1036100042608461496841630362F0BD000001407B
:1036200000040140F0B5026A036A23F0100303624C
:10363000436884690D6824F4E64444EA05248D68EF
:1036400022F0200242EA05120F4D104EA84201D08E
:10365000B04206D1CF6822F0800242EA071222F07F
:103660004002A84201D0B04207D14D6923F4406323
:1036700043EA85038D6943EA8503436084614968B1
:1036800081630262F0BD00000000014000040140BF
:10369000F0B5026A036A23F4807303624368C46965
:1036A00022F4007224F073050C68124E2C438D68CE
:1036B00042EA05220E4DA84201D0B04206D1CF68A1
:1036C00022F4006242EA072222F48062A84201D07A
:1036D000B04207D14D6923F4405343EA05138D6985
:1036E00043EA05134360C4614968C1630262F0BDE7
:1036F000000001400004014030B5046A026A22F46F
:10370000805202624268C3690D6823F4E64343EACB
:1037100005238D6824F4005444EA0534084DA8427A
:1037200002D0084DA84204D14D6922F4804242EAF9
:1037300085124260C36149680164046230BD0000C3
:10374000000001400004014010B5036A046A24F03F
:1037500001040462846924F0F00444EA021423F0B2
:103760000A020A438461026210BD10B5036A046A4A
:1037700024F010040462846923F0A00324F470444C
:1037800044EA023243EA01118261016210BD10B5C0
:1037900001F0F4FF002805D0D0E90021BDE8104079
:1037A0000846104710BD00000148FEF737BB000077
:1037B000340300200148FEF731BB00007C030020E9
:1037C00010B5806B0021C185FEF727FB10BD70B5D9
:1037D000846B2068406994F84110C0F3C010002544
:1037E000212904D118B1E584204600F08EF8206824
:1037F000406994F84210C0F38010222904D118B116
:10380000E585204600F05AF8606C40F010006064D6
:103810002046FEF702FB70BD10B50146806B0968BB
:1038200009684FF00002C9052ED4C28501680C3129
:1038300051E8003F23F4807341E80034002CF5D1B7
:103840000168143151E8003F23F0010341E80034DE
:10385000002CF5D10168143151E8003F23F04003FA
:1038600041E80034002CF5D1202180F84210016B92
:10387000012909D101680C3151E8003F23F0100300
:1038800041E80034002CF5D14263016B012902D0DC
:10389000FEF776FD10BD818DFEF7BEFA10BD10B5A6
:1038A000806B01214163016B012902D0FEF7B2FD5B
:1038B00010BD818D4908FEF7AFFA10BD01680C31CB
:1038C00051E8002F22F4907241E80023002BF5D13B
:1038D0000168143151E8002F22F0010241E8002371
:1038E000002BF5D1016B012909D101680C3151E898
:1038F000002F22F0100241E80023002BF5D12021F7
:1039000080F8421000210163704701680C3151E8D2
:10391000002F22F0C00241E80023002BF5D1202126
:1039200080F84110704708B590F84210222901D064
:10393000022008BD82684FF480539A4201D1016988
:1039400021B1816A9A421BD04AB10AE00268816AB9
:103950005268C2F308020A80816A891C08E0026981
:1039600072B10268526802F07F020A70816A491CD3
:103970008162C18D491E0904090CC18503D01BE079
:1039800002685268F1E70168CA6822F02002CA6042
:103990000168CA6822F48072CA6001684A6922F02C
:1039A00001024A61202180F8421000214163026B2C
:1039B000012A03D0FEF7E4FC002008BD0163016882
:1039C0000C3151E8002F22F0100241E80023002BB7
:1039D000F5D101680A68D20602D50A6849680091E3
:1039E000818DFEF719FAE7E770B5044600680169B2
:1039F000E26821F44051114301612169A068E26944
:103A000008436169114308432168CA6849F20C639D
:103A10009A430243CA6020684169A26921F4407157
:103A20001143416131492068884202D030498842BF
:103A300002D1FDF7A9FD01E0FDF796FDE269002343
:103A4000192164253226B2F5004F626828D0A0FB08
:103A50000101930F9200FCF713FC0146B0FBF5F057
:103A60006FF01802504301EB800006EB0010B0FB32
:103A7000F5F000F0F002B1FBF5F002EB0012B1FB43
:103A8000F5F06FF01803584301EB800006EB0010CF
:103A9000B0FBF5F000F00F0021681044886070BDA5
:103AA000A0FB010192185B41FCF7EAFB0146B0FB69
:103AB000F5F00201B1FBF5F06FF01803584301EB8C
:103AC000800006EBC000B0FBF5F000F0F80002EB60
:103AD0004002B1FBF5F0584301EB800006EBC0005B
:103AE000B0FBF5F000F00700D6E700000010014041
:103AF0000014014038B581620446828500201346D7
:103B00006064222284F84220E56B1F4AEA63E56B79
:103B10001E4A2A64E56B1E4AEA64E26B10650A4697
:103B20002168E06B091DFDF7B1FA30B11020606427
:103B3000202084F84200012038BD206801684068D8
:103B40000090206948B120680C3050E8001F41F413
:103B5000807140E80012002AF5D12068143050E846
:103B6000001F41F0010140E80012002AF5D1206851
:103B7000143050E8001F41F0400140E80012002AD4
:103B8000F5D1002038BD0000193800089F38000822
:103B9000CF37000881628285C285002141642221DD
:103BA00080F84210016921B10168CA6842F480724C
:103BB000CA6001684A6942F001024A610068C1684E
:103BC00041F02001C160002070472DE9F84398467C
:103BD00017460D460446089E24E0701C22D0FDF7CF
:103BE00085FBA0EB0800B0421AD8CEB12068C168AE
:103BF000490717D5802D15D0402D13D00168C94332
:103C000009070FD401680025406800902046FFF79F
:103C100055FE0820606484F840500120BDE8F88318
:103C20000320FBE72068006835EA000004D000208C
:103C3000B842D2D00020F1E70120F9E70148FEF7B1
:103C4000EDB80000C40300200148FEF7E7B800000B
:103C50000C0400200148FEF7E1B8000054040020E5
:103C6000FEE738B504460AE06068FFF748FB8DF8C8
:103C7000000001231A4669462068FEF7CCFB606805
:103C8000FFF7F4FA0028EFD138BD000070B50E4AF6
:103C900004464FF4FA75294602F57B70FFF70AFBDC
:103CA0000A4A294602F20320FFF704FB084901F102
:103CB0000C0081600C39C0E900412046BDE870402D
:103CC00001220449FEF74EBBD04D0020C54F002015
:103CD000C8510020740200200FB4054B10B503A991
:103CE000044A029800F0ECF810BC5DF814FB0000E8
:103CF00061460008A00200207CB5491E1C461546FE
:103D0000CDE90001044B6A462146284600F0D8F868
:103D1000009A002111707CBDEF4500080907090ECB
:103D2000002804DB00F1E02080F80014704700F068
:103D30000F0000F1E02080F8141D704702E008C871
:103D4000121F08C1002AFAD170477047002001E015
:103D500001C1121F002AFBD1704700002DE9FF5F4F
:103D6000DDE90220010DDDF838B0024318D044F639
:103D70001050A1F2FF3141430D140F98012820D0BB
:103D8000A5EB0B00401C5FEA000A4FF00004474E11
:103D9000DFF81C91A046504616D5CAF1000728E06E
:103DA0000F98012443A2012808D0002100980F9BFE
:103DB000C0E90021C0E90243BDE8FF9F6FEA0B01A3
:103DC000F4E7CBF10000DEE7074612E0F80707D082
:103DD0002246334640464946FCF74EFB804689461C
:103DE0002246334610461946FCF746FB04460E466B
:103DF0007F10002FEAD1DDE90201BAF1000F42463F
:103E00004B4602DAFCF738FB01E0FCF7A7FB04465F
:103E10000E460022284BFCF751FD03D84FF0FF302F
:103E2000014607E00022254B20463146FCF77DFA8B
:103E3000FCF72BFD102409E0002C0ADB0A220023EA
:103E4000FCF71EFA019B30321A55641E50EA01023B
:103E5000F2D1641C019AC4F1110314440F9A012A8F
:103E600003D0012208430DD10AE0084304D000200A
:103E70004FF0110B0F9080E7A3EB0B056D1E0DE0CB
:103E80005B4504DD4FF0000205F1010504E003DAB3
:103E90004FF00002A5F10105002AECD000980F991F
:103EA000C0E90231C0E9004586E700000000244077
:103EB0000000F03F300000000000F0430000E03F51
:103EC0002DE9FF4F95B09B468946064600250FE237
:103ED000252877D100242746F84A0121059400E0DF
:103EE000044316F8013F203B01FA03F01042F7D1DA
:103EF00030782A2811D06FF02F033078A0F13002EB
:103F0000092A16D8059A44F0020402EB820203EB58
:103F100042021044761C0590EFE759F8042B0592F5
:103F2000002A03DA504244F40054059044F002049D
:103F3000761C30782E2816D116F8010F44F00404B0
:103F40002A280DD06FF02F023078A0F13003092B12
:103F500009D807EB870302EB4303C718761CF3E786
:103F600059F8047B761C30786C280FD006DC4C287E
:103F700017D068280DD06A2814D104E0742810D016
:103F80007A280FD10DE044F400140AE044F48014C0
:103F900001E044F440147278824202D104F58014A6
:103FA000761C761C307866280BD013DC582877D026
:103FB00009DC002875D04528F6D04628F4D04728DB
:103FC0001AD19DE118E0632835D0642879D065289E
:103FD00012D195E1702873D008DC6728F1D06928E8
:103FE0006FD06E280DD06F2806D1B5E073282CD085
:103FF000752875D0782874D05A46179990476D1C4B
:1040000075E1C4F30250022809D003280DD0D9F875
:10401000001004280DD00D6009F1040967E1D9F8FA
:104020000010EA17C1E90052F6E7D9F800100D8038
:10403000F2E70D70F0E719F8041B8DF8001000206E
:104040008DF80100EA46012003E059F804AB4FF077
:10405000FF3061074FF0000102D40DE008F10101CB
:104060008846B9420FDA8045F8DB1AF808100029B3
:10407000F4D108E008F1010188468142FADB1AF820
:1040800008100029F6D105985B46A0EB08072146E9
:104090003846179A00F094FA284400EB080507E028
:1040A0004DE029E10DE01AF8010B5A4617999047A7
:1040B000B8F10108F7D25B4621463846179A13E15A
:1040C00042E00A220092C4F302524FF0000A022A90
:1040D00008D059F804CB032A4FEAEC710AD00DE05E
:1040E00029E02AE009F1070121F00702F2E802C104
:1040F000914609E00FFA8CFC4FEAEC71042A03D1D7
:104100004FFA8CFC4FEAEC71002907DA0A460021CD
:10411000DCF1000C61EB02012D2202E0220504D546
:104120002B228DF80420012203E0E20701D0202297
:10413000F7E7904659E00A2102E010220DE0102135
:104140004FF0000A00910BE010224FF0000A44F0FB
:1041500004040827009203E008224FF0000A0092AE
:10416000C4F30252022A05D059F804CB0021032AD5
:1041700008D009E009F1070121F00702F2E802C1C5
:10418000914605E01FFA8CFC042A01D10CF0FF0CCB
:104190004FF00008220728D5702806D0009B83F036
:1041A000100353EA0A0305D00EE040228DF80420E4
:1041B000012208E05CEA010206D030228DF80420DA
:1041C0008DF8050002229046009B83F0080353EA15
:1041D0000A030AD15CEA010201D1620705D5302247
:1041E0008DF804204FF001087F1E582804D034A019
:1041F00003900EA802900DE036A0F9E75346604602
:10420000009AFCF73DF884460398825C0298401EB1
:10421000029002705CEA0100F0D1029806A9081A27
:1042200000F1200A600702D524F4803400E0012761
:10423000574502DDA7EB0A0000E0002000EB0A0171
:10424000009005984144401A0590E00306D45B466F
:104250002146179A059800F0B3F90544002706E0B7
:1042600001A85A46C05D179990476D1C7F1C4745B1
:10427000F6DBE0030CD55B462146179A059800F063
:104280009FF9054404E030205A46179990476D1C69
:104290000099481E00900029F5DC08E00298029978
:1042A0005A460078491C0291179990476D1CBAF143
:1042B0000001AAF1010AF1DC65E100000928010012
:1042C000303132333435363738396162636465668C
:1042D000000000003031323334353637383941424E
:1042E000434445460000000000F058F90544761CA0
:1042F000307800287FF4ECAD19B02846BDE8F08F87
:10430000620700D4062709F1070222F0070CFCE837
:104310000223E14603F000485FEA080C02D00FF2E6
:10432000702C0DE05FEA045C02D50FF2682C07E008
:104330005FEAC47C02D00FF2602C01E0AFF2700C97
:104340004FF0FF3823F00043CDF850C065280CD063
:1043500006DC452809D046281DD047283DD13DE040
:10436000662818D067287ED138E00021112F01DBA4
:10437000112000E0781CCDE9000106A90EA8FFF786
:10438000EDFCDDE90F010E9A03910021009207F187
:10439000010A04914DE04FF000400097CDE9011073
:1043A00006A90EA8FFF7DAFCDDE90F0203920E9BC7
:1043B00011990022DDF80CA00093049211B9791C28
:1043C00000EB010AB7EB0A0004D4C0F1FF3007F19B
:1043D000010A0490AAEB0700019044E0012F00DAE3
:1043E00001270021112F01DD112000E03846CDE921
:1043F000000106A90EA8FFF7B1FCDDE90F010E9A36
:104400000391002104910092BA4621070CD403992C
:10441000514500DA8A46BAF1010F05DD009AAAF18A
:104420000101515C302908D0B84202DA10F1040FC2
:1044300006DA0121CDE9011015E0AAF10101E9E751
:10444000002805DC049901440491AAEB000102E074
:10445000411C514500DD8A460499401A401C0190D8
:104460004FF000400290200704D40198504501DB32
:10447000CDF8048000208DF84F0002980DF14F0711
:10448000B0F1004F25D02B200E9002984FF002087B
:1044900000280CDA404202902D200E9007E00A21FD
:1044A0000298FCF717F93031029007F8011DB8F1B6
:1044B0000001A8F10108F2DC02980028EFD1791E72
:1044C0000E980870307800F0200040F0450007F8A2
:1044D000020D12A8C01B00F107081498007800B163
:1044E000012000EB0A01019801EBE07105984144BD
:1044F000401A401E0590E00306D45B462146179AF9
:10450000059800F05DF805441498007818B15A46F3
:10451000179990476D1CE00324D55B462146179AF6
:10452000059800F04DF805441CE00498002807DBCE
:10453000DDE90301884203DD0098405C179901E042
:10454000179930205A469047049805F10105401C00
:1045500004900198401E019004D12E205A461799CC
:1045600090476D1CBAF10001AAF1010ADDDC05E0FB
:1045700017F8010B5A46179990476D1CB8F10001C6
:10458000A8F10108F4DC5B462146179A0598ABE6D2
:104590002D0000002B000000200000002DE9F0415C
:1045A000044600251E461746880404D405E0394613
:1045B0002020B0476D1C641EF9D52846BDE8F08167
:1045C0002DE9F041044600251E469046C80301D55A
:1045D000302700E02027880404D505E0414638460E
:1045E000B0476D1C641EF9D52846BDE8F0814A68C5
:1045F000002A06D00A68531C0B6010704868401EE1
:10460000486070470FB410B5ADF5027D4FF480746B
:1046100021466846FBF77EFE85AB21466846849AB4
:10462000FFF76AFB80B2ADF80002FF2802D3FE203C
:10463000ADF8000282B2694640A8521CFBF751FE59
:1046400006484FF0FF33002240A9C06A00F064FA28
:104650000DF5027D10BC5DF814FB00000800002081
:1046600013B54FF0FF33012269460248FDF7D3FE30
:1046700000981CBD7C03002070B5654E04462DEDEE
:10468000048B307800287CD006F10C0595F90000E9
:1046900095F9011040EA0120FBF7CFFF9FED5D8BFC
:1046A00053EC182BFBF7E8FE9FED5C9B53EC192BAA
:1046B000FBF7E2FEFBF7F2FF206095F9020095F9A7
:1046C000031040EA0120FBF7B8FF53EC182BFBF76F
:1046D000D3FE53EC192BFBF7CFFEFBF7DFFF606037
:1046E00095F9040095F9051040EA0120FBF7A5FFB4
:1046F00053EC182BFBF7C0FE53EC192BFBF7BCFE59
:10470000FBF7CCFF0835A06095F9000095F9011082
:1047100040EA0120FBF791FF53EC182BFBF7ACFEAE
:104720009FED409B53EC192BFBF7A6FEFBF7B6FF62
:10473000206195F9020095F9031040EA0120FBF78A
:104740007CFF53EC182BFBF797FE53EC192BFBF770
:1047500093FEFBF7A3FF606195F9040095F905103E
:1047600040EA0120FBF769FF53EC182BFBF784FEAE
:1047700053EC192BFBF780FEFBF790FF0835A06187
:1047800000E042E095F9000095F9011040EA0120AF
:10479000FBF753FF53EC182BFBF76EFE9FED239BAB
:1047A00053EC192BFBF768FEFBF778FF206295F9B5
:1047B000020095F9031040EA0120FBF73EFF53EC9D
:1047C000182BFBF759FE53EC192BFBF755FEFBF7A3
:1047D00065FF606295F9040095F9051040EA012033
:1047E000FBF72BFF53EC182BFBF746FE53EC192B72
:1047F000FBF742FEFBF752FFA0627068FBF72EFF4B
:10480000C4E90C01002030700120BDEC048B70BDA8
:104810007C020020000000000000003F00000000BB
:10482000000030400000000000409F4000000000F9
:104830000080664070B50EA0FFF74EFA4FF480720C
:1048400010491148FDF780FD104C0E4800250D2140
:104850000D38A560FBF75EFDE56025616561A5612A
:10486000E56125622570FCF741FD606070BD0000C8
:104870006779726F5F496E6974206973204F4B0DC1
:104880000A000000E55400200C0400207C020020F7
:104890002DE9F0411B4C0026E17A6054E07A401C7F
:1048A000C0B2E0722178552928D10B2827D360782F
:1048B000154D0127512804D052280AD053281DD164
:1048C00010E0D4F80200E860D4F8060028612773ED
:1048D00014E0D4F802006861D4F80600A861022050
:1048E00020730BE0D4F80200E861D4F806002862D7
:1048F00003202073FCF7FAFC68602F70E672BDE8B5
:10490000F0810000D85400207C0200202DE9F04105
:104910001548C06B00684068144CC0F58076A068EC
:10492000864204D1BDE8F04111A0FFF7D5B902D30A
:10493000A6EB000703E0C0F5807000EB06074FF020
:104940000005DFF8388009E0207A2844C0B218F862
:104950000000FFF79DFF207810B96D1CBD42F3D316
:10496000A660BDE8F08100000C0400207C0200205D
:104970004E4F20446174610D0A000000E554002090
:10498000FCF7C2FCFEF742FDFDF726FEFDF796FDA3
:10499000FDF750FEFDF7B2FEFDF714FFFDF72EFF09
:1049A000FDF748FFFDF762FFFDF77CFF0122074995
:1049B0000748FDF7D7FC0748FFF768F900F020F833
:1049C000FDF792FD00F02EF8FEE700000100002048
:1049D000340300205404002010B5EFF3058111B119
:1049E0006FF0050403E0002408B101F04FF8204601
:1049F00010BDEFF3058008B101F094BE01F08CBE4C
:104A0000EFF3058010B16FF00500704704480168AE
:104A100011B14FF0FF307047012101600020704755
:104A20004402002010B5EFF3058010B16FF00500CF
:104A300010BD08480168012902D04FF0FF3010BDB9
:104A4000054A002182F8141D0221016001F0CEF810
:104A5000002010BD440200200BE000E0F8B51D4628
:104A60006FF003026FF002064FF00004EFF30583CE
:104A7000A3B1F0B1E9B1E5B9002200926A4601F0B4
:104A80007BFC012817D10098B0B10C494FF0805041
:104A90000860BFF34F8FBFF36F8F0DE048B141B196
:104AA0002A4601F0CDFB012806D025B16FF00104A4
:104AB00002E0144600E034462046F8BD04ED00E074
:104AC000F8B514464FF00005EFF3058212BB08B3AA
:104AD00001B3A4B1D4E9023263B1502A1AD32269D6
:104AE000C2B1676900FB01F6B74213D3009501F02C
:104AF00001FA07E072B9226962B9626952B900220B
:104B000001F0D7F9050005D00CB1216800E00021C3
:104B100000F05AFF2846F8BDF8B51D466FF00302B5
:104B20006FF002064FF00004EFF30583ABB100B362
:104B3000F9B1F5B90022134600926A4601F002FB72
:104B4000012818D10098B8B10C494FF08050086086
:104B5000BFF34F8FBFF36F8F0EE050B149B1002309
:104B60002A4601F03FFA012806D025B16FF0010472
:104B700002E0144600E034462046F8BD04ED00E0B3
:104B80002DE9F0410D46014620F0010001F0010140
:104B90004FF00004EFF305820AB1A41F16E048B1FC
:104BA00000296FF001066FF00207294608D001F0D6
:104BB000EDFC07E06FF0030408E035B1344605E092
:104BC00001F028FC0128F8D100E03C462046BDE871
:104BD000F08170B505464FF00004EFF3058050BB3F
:104BE0000DB1686800E00020C10701D0012600E097
:104BF000002600071FD46DB1D5E9021021B150285D
:104C000019D31EB1042002E020B114E0012001F00C
:104C100043F905E00EB1042000E0012001F031F974
:104C2000040008D00DB1296800E0002100F0CCFE9E
:104C30000EB144F00104204670BD70B5014620F06D
:104C4000010001F001014FF00004EFF305820AB109
:104C5000A41F11E028B16FF0020529B101F0D1FACB
:104C600007E06FF0030407E000231A46194601F03D
:104C7000B9F9012800D02C46204670BDF8B514467D
:104C800003460E464FF00005EFF3058098BB93B343
:104C90009E423DD84CB1A0680028E06803D050285F
:104CA00036D3012002E008B132E00020012B05D00C
:104CB00010B31846A26801F0C4F820E040B1032008
:104CC0000090002211460120A36801F013F904E0CE
:104CD00003220021012001F0ECF8050018D086B174
:104CE00000231A46194601F07DF9012809D028460B
:104CF00000F07EFE00250BE0184601F085F8050067
:104D000006D00CB1216800E00021284600F05CFECE
:104D10002846F8BD2DE9FF410B464FF00005EFF3A3
:104D20000581039549BB40B38027182100244AB36D
:104D3000166806B1344696691EB13146761E382E85
:104D400002D21679F60703D0002004B0BDE8F08146
:104D5000566906B1B708D2F808C0BCF1000F0DD0F3
:104D6000D5685C2D18D312693AB136B18DE80610BA
:104D70003A46214601F091FC03900DE0D6685EB9F9
:104D800012694AB903AACDE90012BAB2214601F06C
:104D900057FC012800D003950398D6E72DE9FC477E
:104DA0001C469046894607464FF00006EFF3058003
:104DB00058BB57B3082000F067FC050025D0C5E9B3
:104DC0000078B9F1000F12D00122114B002094B1EC
:104DD000216801B10846A16859B1E4682C2C11D3AF
:104DE000CDE900312B46012101F038FE08E0002218
:104DF000EBE7E16831B900932B46012101F014FE85
:104E0000060002D1284600F071FD3046BDE8FC875F
:104E10008F37000808B5EFF3058212B16FF0050077
:104E200008BD58B10022134600920A46042101F041
:104E30005DFE012805D06FF0020008BD6FF0030091
:104E400008BD002008BD38B50446EFF3058010B159
:104E50006FF0050038BD84B1204601F07BFE78B1CB
:104E600000200346024600900321204601F03EFE4A
:104E7000012808D04FF0FF3038BD6FF0030038BD77
:104E80006FF0020038BD002038BD00002DE9F04170
:104E9000134C0F460546E6682068001D00F096FC9E
:104EA000681C07D137B12168BDE8F0410D48091DE4
:104EB00000F0DCBC20683544B5424560216805D26D
:104EC000A06BBDE8F041091D00F0B8BC606B091D86
:104ED00000F0B4FCA06A854200D2A562BDE8F08172
:104EE000F4010020EC0900202DE9F041054600F016
:104EF000C9FC2D4CA068401CA06020682B4F10B14D
:104F0000606930B32BE02560A068012827D1002616
:104F100006EB860007EB800000F082FC761C382E42
:104F2000F6D3234800F07CFC2148143000F078FCD4
:104F30001F48283000F074FC1D483C3000F070FC25
:104F40001B48503000F06CFC194860631430A063BB
:104F500005E02068E96AC06A884200D82560606A76
:104F6000401C60626864E86A2169884200D9206157
:104F700000EB800007EB8000291D00F077FC00F0BB
:104F8000A1FC606900280CD02068E96AC06A8842E8
:104F900007D208494FF080500860BFF34F8FBFF32E
:104FA0006F8FBDE8F0810000F40100203C05002077
:104FB0009C09002004ED00E038B500F063FC104CC3
:104FC0002068C8B90F4800F02BFC0E48143000F0E0
:104FD00027FC0C48E060143020610A4B0020F03BB5
:104FE000009003F1500210210A2000F083FF20609E
:104FF00010B105A100F0E8FCBDE8384000F062BC4B
:1050000030020020F00A0020546D725100000000B0
:1050100030B4026C0B46002A0BD0C1681144C16049
:105020008468A14201D30168C16030BC1846FBF717
:1050300058B930BC70472DE9F041856B17460446DE
:105040000026026C82B1C7B1E068FBF74AF9E1685B
:10505000206C091AE1602268914202D2A168081A04
:10506000E060022F16D017E02068A8B9A06801F010
:10507000C5FB06460020A0600EE06068FBF731F932
:10508000216C606808446060A168884204D320688D
:10509000606001E005B16D1E6D1CA5633046BDE882
:1050A000F08110B5044690F8590058B101280CD091
:1050B00002280FD0502080F31188BFF34F8FBFF329
:1050C0006F8FFEE7206B00F011FC2046BDE810401A
:1050D00000F00CBC10BD000010484FF470514207A6
:1050E00006D0C01D0D4920F00700411AC1F57051CE
:1050F0000B4A00230144C2E900030839183A21F0A1
:10510000070111604B600B600B1AC0E9001393603C
:105110004FF000405360506170470000D0110020F4
:1051200060020020144E154CA6F29C474FF08058A8
:10513000DFF84C9012E000BF00F0A4FBF068C568F7
:10514000281D00F043FBA068401EA0606068401E60
:10515000606000F0B7FB2846FFF7A3FF60680028F7
:10516000EAD138680128F9D9C9F80080BFF34F8F18
:10517000BFF36F8FF2E70000D8090020F401002090
:1051800004ED00E0002807D00021816001600B469B
:105190000A46C16000F026BF7047000070B51D468A
:1051A000049C51B1C4F80020C4E90F01012120463C
:1051B00000F0D4FE84F84C5070BD2460F4E7000089
:1051C0002DE9F05F8846DDE90B9415468346910092
:1051D0009A460A9EA522206BFBF795F86FF0030113
:1051E000206B01EB8501084420F00707780707D002
:1051F000502080F31188BFF34F8FBFF36F8FFEE70E
:105200000025B8F1000F0FD05FF00000221818F849
:10521000001082F8341018F8001011B1401C10284A
:10522000F4D384F8435001E084F83450382E00D38E
:105230003726E662C4E91365201D00F0FCFA04F18C
:10524000180000F0F8FA2461C6F138006462A06129
:10525000656584F8585052465946384600F0A0FA21
:105260002060B9F1000F01D0C9F80040BDE8F09FFF
:105270002DE9F0471E46DDE9089417460D008046EB
:1052800015D0002C11D0FFF797FE04F11801C4F8D7
:10529000008081E86002201D00F0CDFA002F04D0CC
:1052A00014F8280F40F004002070BDE8F08750206B
:1052B00080F31188BFF34F8FBFF36F8FFEE70000BD
:1052C00030B5114900E011460A688242FBD34B68B1
:1052D0005C18844203D1406818444860084643681B
:1052E0001C18944209D1084C183C2468A24209D0E9
:1052F00052681A4442600A6812680260814200D013
:10530000086030BD0460F9E76002002070B5002439
:1053100041600B4D0061914206D8D11A82699142D9
:1053200006D2011D286907E09A4203D2994201D3AF
:10533000012403E0011DE86800F080FA204670BDFA
:105340003002002010B5044600F09CFAA06B28B192
:105350005FF0000400F0B6FA204610BD0124F9E722
:1053600030B589B03C4D6EE00498002806DADDE9DE
:105370000601059A90470498002864DB069C606942
:1053800010B1201D00F022FA03A800F0D7F8024661
:1053900004980A2857D2DFE800F00505052D334AA6
:1053A00005052D3394F8280040F0010084F828000A
:1053B0000599A069059B01442046FFF7A7FF68B344
:1053C000216A2046884794F8280040073BD50020F2
:1053D00000900598A169002342181946204601F063
:1053E00085FBD8B9502080F31188BFF34F8FBFF3EE
:1053F0006F8FFEE714F8280F20F00100207022E0E4
:1054000094F8280040F0010084F828000598A06175
:1054100028B1811813462046FFF778FF13E050208B
:1054200080F31188BFF34F8FBFF36F8FFEE794F8BF
:105430002800810703D4204600F058FA03E020F04A
:10544000010084F82800002204A9286800F0F8FE72
:10545000002889D109B030BD300200202DE9FC417F
:105460000F46054600F006FC01A800F067F8044668
:10547000019818B101F076FABDE8FC81254EAFB174
:1054800030690068D0B30027291B3A46306800F025
:10549000DBFA01F067FA0028EED11F494FF0805087
:1054A0000860BFF34F8FBFF36F8FE5E7A542EBD8DE
:1054B00001F058FAF0682746C068C468201D00F063
:1054C00085F994F82800410719D5A0692B464119A0
:1054D0003A462046FFF71AFFA8B1002003460146CE
:1054E00000902A46204601F001FB60B9502080F36D
:1054F0001188BFF34F8FBFF36F8FFEE707E020F0F7
:10550000010084F82800216A20468847B4E7012773
:10551000BAE700003002002004ED00E00648416BCD
:10552000096829B1416BC968C968496881627047D7
:105530004FF0FF31FAE70000F401002070B5054696
:1055400001F0EAF8064E0446B068844203D200F047
:1055500009F8012000E0002028602046B46070BDFA
:1055600030020020F8B5194D20E0C068C468066814
:10557000201D00F02BF9216A2046884794F8280066
:10558000400713D5A0693044B04206D92461606059
:10559000211DE86800F052F908E0002003460146AA
:1055A00000903246204601F0A1FA38B1E86801685F
:1055B0000029DAD12969C5E90310F8BD502080F32C
:1055C0001188BFF34F8FBFF36F8FFEE730020020CB
:1055D00008484068401C4FF0500080F3118804D008
:1055E000BFF34F8FBFF36F8FFEE7BFF34F8FBFF354
:1055F0006F8FFEE768020020074CE068016841B148
:10560000C0680021D0F80000FFF728FFFFF7A8FED0
:10561000F3E701210020F7E7300200202DE9F041F7
:10562000044600F02FF994F9455004F1240609E0EE
:10563000606A48B1304601F05DF908B100F054FAF3
:105640006D1E6DB2002DF3DC4FF0FF3684F845601F
:1056500000F038F900F016F994F9445004F11007FD
:1056600009E0206948B1384601F044F908B100F07A
:105670003BFA6D1E6DB2002DF3DC84F84460BDE88A
:10568000F04100F01FB900002DE9F0410546002768
:1056900000F0F0FA324E306808B9FFF71DFD70696E
:1056A00005424ED1C5B3083568070ED005F0070096
:1056B000C0F108000544680707D0502080F3118826
:1056C000BFF34F8FBFF36F8FFEE72DB37068854236
:1056D00037D82348183001460C6801E020460C46B4
:1056E0006168A94202D221680029F7D131688C4251
:1056F00027D007682168016060680837411B1029BE
:105700000FD96019420708D0502080F31188BFF3E9
:105710004F8FBFF36F8FFEE713E041606560FFF7C7
:10572000CFFD61687068401A7060B268904200D224
:10573000B060706901430020C4E90001F068401CBA
:10574000F06001F00FF9780707D0502080F311883E
:10575000BFF34F8FBFF36F8FFEE73846BDE8F08190
:10576000480200200449086818B10868026D521CFC
:105770000265086870470000F401002010B50400BD
:1057800006D000F07FF8E46900F09CF8204610BDD8
:10579000502080F31188BFF34F8FBFF36F8FFEE768
:1057A00010B5031F4FF080741C601B1F21F0010116
:1057B0001960191F044B0B6014390A60091F6FF040
:1057C000020244380A6010BDD1550008D0E9013208
:1057D00001699A60D0E901235A604A68824201D186
:1057E00082684A60002202610868401E08600868FA
:1057F00070470000034B036003F15C0008608020E9
:1058000010607047180B0020044B036003F15C002C
:1058100008604FF48070106070470000740D002025
:1058200000F108014FF0FF32C0E90112C1600161CF
:1058300000210160704700210161704730B50B689D
:105840005A1C02D000F1080202E0026904E022467C
:10585000546825689D42FAD953684B6099608A6004
:10586000516008610168491C016030BD42684A60AE
:1058700093688B6093685960916008610168491C66
:1058800001607047502080F31188BFF34F8FBFF342
:105890006F8F0A494868401C486001280CD10848AD
:1058A000006810F0FF0F07D0502080F31188BFF37D
:1058B0004F8FBFF36F8FFEE7704700006802002034
:1058C00004ED00E00849486828B1401E486001D155
:1058D00080F311887047502080F31188BFF34F8FF9
:1058E000BFF36F8FFEE700006802002070B500284C
:1058F0002AD0164DA0F1080460686969084207D1F2
:10590000502080F31188BFF34F8FBFF36F8FFEE7F6
:1059100022683AB1502080F31188BFF34F8FBFF354
:105920006F8FFEE78843606000F0A4F960686968E3
:10593000084468602046FFF7C3FC2869401C2861C2
:10594000BDE8704001F00EB870BD000048020020B4
:105950004FF0E02000210161816105494FF47A7226
:105960000968B1FBF2F1491E4161072101617047ED
:10597000F001002010B5FAF76DFC114910280ED384
:1059800000F1E02090F8F0030A78904207D250200E
:1059900080F31188BFF34F8FBFF36F8FFEE7094885
:1059A0000068896800F4E060884207D9502080F3DD
:1059B0001188BFF34F8FBFF36F8FFEE710BD00005C
:1059C000680200200CED00E010B5084B002200BF7B
:1059D00053F832401CB1521C082AF9D310BD43F8C9
:1059E000321003EBC201486010BD0000FC0400202F
:1059F00010B504000AD000F013F894F8460000280F
:105A00000CD12046BDE81040FFF770BF502080F356
:105A10001188BFF34F8FBFF36F8FFEE710BD0000FB
:105A2000084A002102EBC1035B68834206D10020D3
:105A300042F8310002EBC10148607047491C082957
:105A4000F0D37047FC04002070B515460E4604469E
:105A5000FFF718FF94F944100020491C01D184F885
:105A6000440094F94510491C01D184F84500FFF722
:105A700029FFA06B28B92A46314604F1240000F022
:105A800051F82046BDE87040FFF7C8BD10B50200D0
:105A900014D00F48006B38B1502080F31188BFF349
:105AA0004F8FBFF36F8FFEE700F0E4F80021104640
:105AB000FFF7ECF900F056FF002807D105494FF039
:105AC00080500860BFF34F8FBFF36F8F10BD000091
:105AD000F401002004ED00E002490A6A0260C9688E
