:020000040800F2
:10000000B00B00205D0200084F1D00081B1A0008FD
:100010004D1D00088D030008E123000800000000CA
:100020000000000000000000000000009D0100082A
:100030001904000800000000F9010008511D000823
:1000400077020008770200087702000877020008AC
:10005000770200087702000877020008770200089C
:10006000770200087702000877020008770200088C
:100070009103000877020008770200087702000861
:10008000770200087702000877020008770200086C
:10009000770200087702000877020008770200085C
:1000A000770200087702000877020008770200084C
:1000B000770200087702000877020008770200083C
:1000C000770200087702000877020008770200082C
:1000D00077020008BD23000877020008C923000842
:1000E000770200087702000877020008770200080C
:1000F00077020008770200087702000877020008FC
:1001000077020008770200087702000877020008EB
:10011000D1200008DD2000087702000877020008DF
:1001200077020008770200087702000877020008CB
:1001300077020008770200087702000877020008BB
:1001400077020008770200087702000877020008AB
:10015000770200087702000877020008D52300081C
:10016000770200087702000877020008770200088B
:1001700077020008770200087702000800000000FC
:100180007702000877020008DFF80CD000F0ECF8E6
:100190000048004731250008B00B00202C4B19689F
:1001A0000868B0E8F04F80F30988BFF36F8F4FF015
:1001B000000080F3118870470000000008480068C4
:1001C000006880F308884FF0000080F3148862B65E
:1001D00061B6BFF34F8FBFF36F8F00DF00BF00BF6B
:1001E00008ED00E0DFF80C00016841F470010160E7
:1001F000704700BF88ED00E0EFF30980BFF36F8F19
:10020000134B1A681EF0100F08BF20ED108A20E96A
:10021000F04F106009B44FF0500080F31188BFF325
:100220004F8FBFF36F8F02F04DFB4FF0000080F354
:10023000118809BC19680868B0E8F04F1EF0100F6B
:1002400008BFB0EC108A80F30988BFF36F8F704746
:1002500044000020EFF30580704700000648804707
:1002600006480047FEE7FEE7FEE7FEE7FEE7FEE79B
:10027000FEE7FEE7FEE7FEE7011E00088901000831
:100280002DE9F05F0546002092469B4688460646CB
:10029000814640241BE0284641464746224600F05E
:1002A00053F853465A46C01A914110D31146184686
:1002B000224600F03AF82D1A67EB01084F46224615
:1002C0000120002100F031F817EB00094E41201EFB
:1002D000A4F10104DFDC484631462A464346BDE826
:1002E000F09F40EA01039B0703D009E008C9121FF1
:1002F00008C0042AFAD203E011F8013B00F8013BE0
:10030000521EF9D27047D2B201E000F8012B491E0B
:10031000FBD270470022F6E710B513460A460446A2
:100320001946FFF7F0FF204610BD202A04DB203AD3
:1003300000FA02F1002070479140C2F1200320FA38
:1003400003F3194390407047202A04DB203A21FA36
:1003500002F00021704721FA02F3D040C2F12002DE
:100360009140084319467047064C074D06E0E06887
:1003700040F0010394E8070098471034AC42F6D3EC
:10038000FFF706FFA02E0008C02E0008FEE70000C1
:10039000014800F09FB8000088020020016818237F
:1003A000CAB2103AB2FBF3F2054B6FF30901032A0C
:1003B0009B5CC36500D9091D816508467047000034
:1003C000802E000810B5014600208B698A6A4FF024
:1003D000C07453B1B3F5005F15D072B1012A0CD0CF
:1003E000022A0AD0032A09D104E01AB1012A06D050
:1003F000022A03D1C96AC90100D5012010BDC96A0A
:10040000A142FAD010BD002AF7D0012AF2D0022A68
:10041000F3D0032AF3D010BD704772B6FEE72DE982
:10042000F0410446876D00F099FA064694F83500CD
:100430000025022806D08020606584F83450012011
:10044000BDE8F0812068016821F016010160206894
:10045000416921F080014161206C08B9A06C20B194
:100460002068016821F0080101602068016821F01E
:10047000010101600CE000F071FA801B052807D92A
:1004800020206065032084F8350084F83450D7E7D5
:1004900020680068C007EED194F85C103F208840C7
:1004A000B860012084F8350084F834500020C7E794
:1004B00090F83510022903D0802141650120704752
:1004C000052180F835100068016821F00101016004
:1004D000002070472DE9F84304464FF00009CDF89D
:1004E000009063484FF41651A56D0068B0FBF1F71A
:1004F0002E6894F85C10082000FA01F131420FD008
:1005000021680A6852070BD50A6822F004020A60C3
:1005100094F85C108840A860606D40F00100606550
:1005200094F85C104FF0010808FA01F0304208D04E
:1005300021684969090604D5A860606D40F0020091
:10054000606594F85C1004208840304208D021682F
:100550000968890704D5A860606D40F004006065F3
:1005600094F85C1010208840304218D02168096847
:10057000090714D5A86020680168490304D50068FC
:10058000000308D5A16C07E00168C90503D4016820
:1005900021F008010160216C09B12046884794F8D8
:1005A0005C1020208840304231D021680968C9069B
:1005B0002DD5A86094F8350005282068016806D07C
:1005C000490347D5006800031DD4616C1CE021F08D
:1005D000160101602068416921F080014161206CB1
:1005E00008B9A06C20B12068016821F00801016001
:1005F00094F85C103F208840A86084F8358084F827
:100600003490216D1FE0E16B09B120468847606D91
:1006100000282BD0606DC00714D0052084F8350069
:100620002068016821F0010101600098401C0090E1
:10063000B84203D820680068C007F6D184F8358036
:1006400084F83490E16C002910D001B02046BDE858
:10065000F04308470168C905D5D4016821F01001AD
:10066000016084F8358084F83490CCE7BDE8F883E5
:10067000400000202DE9F041044600F06FF90646E5
:100680005CB1022084F83500002584F834502068DD
:10069000016821F0010101600DE00120BDE8F08159
:1006A00000F05CF9801B052805D920206065032037
:1006B00084F83500F2E720680068C007F0D12268AE
:1006C000116820480140D4E901031843D4E90336F6
:1006D0003343184363691843A3691843E369184314
:1006E000236A18430843616A042903D1D4E90B1330
:1006F00019430843106020684069666A20F00701CA
:1007000030460E43012704280CD1A06A0643E06A54
:1007100040B12046FFF756FE20B14020606584F8C6
:100720003570BAE7206846612046FFF737FE94F837
:100730005C203F2191408160656584F83570002020
:10074000ACE700003F8010F070B5044600F006F9F9
:100750000546601C02D004480078044400F0FEF80E
:10076000401BA042FAD370BD340000202DE9F84FA1
:10077000DFF8BCA10022012503264FF00F090AF182
:10078000040BAAF1040E00BF0B6805FA02F4234023
:10079000A34270D10F7907F00307012F01D0022F78
:1007A00016D187684FEA420806FA08FC27EA0C07C8
:1007B000D1F80CC00CFA08FC4CEA070CC0F808C0D1
:1007C0004768A7430C79C4F3001494403C43446049
:1007D0000C79E443A4070AD0C4684FEA420C06FA35
:1007E0000CF7BC438F6807FA0CF72743C7600C79F6
:1007F00004F00304022C12D1D40800EB840CDCF8C2
:1008000020405707FF0E09FA07F824EA0804D1F838
:10081000108008FA07F848EA0408CCF82080046839
:100820004FEA420C06FA0CF7BC430F7907F00307B6
:1008300007FA0CF7274307604C6814F4403F70D068
:100840003C4C276847F480472760246822F0030760
:1008500004F480440094384C07EB040CDCF808489E
:1008600097074FEA177809FA08F7BC43334FB842A5
:1008700002D1002724E054E0314FB84201D10127D2
:100880001EE0304FB84201D1022719E02E4FB84286
:1008900001D1032714E02D4FB84201D104270FE006
:1008A0002B4FB84201D105270AE02A4FB84201D1A7
:1008B000062705E0284FB84201D1072700E00827A6
:1008C00007FA08F72743CCF80878DAF800405746CB
:1008D000D1F804C09C435FEACC2C00D51C433C609B
:1008E000DBF800405F46D1F804C09C435FEA8C2CE3
:1008F00000D51C433C60DEF800407746D1F804C0C8
:100900009C435FEA8C3C00D51C433C60084F083F89
:100910003C68D1F804C09C435FEACC3C00D51C4342
:100920003C60521C102AFFF42FAFBDE8F88F000086
:10093000083C0140443802400030014000000240C1
:100940000004024000080240000C02400010024077
:100950000014024000180240001C02400148806858
:10096000704700003400002002488168027811447A
:1009700081607047340000200B4810B5016841F4D5
:1009800000710160016841F480610160016841F417
:1009900080710160032000F073F80F2000F006F86A
:1009A00000F024F8002010BD003C024070B50D4D51
:1009B00004464FF47A712878B1FBF0F00A490968CF
:1009C000B1FBF0F000F00EFB48B9102C07D200226A
:1009D0002146501E00F034F800206C6070BD0120EC
:1009E00070BD000034000020400000200C4882B0A0
:1009F000016841F480410160006800F4804000908B
:100A00000748001F016841F0805101600068002222
:100A100000F0805000900F21901E02B000F010B83E
:100A200044380240002809DB00F01F0201219140F8
:100A30004009800000F1E020C0F80011704700007C
:100A4000F0B40E4B1B680C46C3F30223C3F1070539
:100A5000042D00D90425191D072901D2002300E027
:100A6000DB1E012606FA05F1491E214099409E40F1
:100A7000761E16403143F0BC01F0C4BC0CED00E022
:100A8000064900F0070208684FF6FF03184040EAE5
:100A90000220034A10430860704700000CED00E09C
:100AA0000000FA052DE9F0470E46050065D0DFF895
:100AB0001481D8F80000F7B200F00700B04207D266
:100AC00088F80070D8F8000000F00700B04254D158
:100AD00028683D4C810712D5400703D5206840F4B3
:100AE000E05020602878000703D5206840F460407B
:100AF00020602068A96820F0F00008432060287872
:100B0000C0072DD0304968680839012812D0022862
:100B100013D0032811D00968890700292DDA21682C
:100B200021F0030101432160FFF718FF814641F2E4
:100B3000883A0EE009688903EFE709688901ECE764
:100B4000FFF70CFFA0EB0901514502D90320BDE8D6
:100B5000F0872068696800F00C00B0EB810FEFD1DE
:100B6000D8F80010404601F00701B14207D90770DC
:100B7000006800F00700B04201D00120E7E72878C4
:100B8000400705D52068E96820F4E050084320605C
:100B90002878000706D52068296920F4604040EADB
:100BA000C100206000F038F82168084AC1F3031141
:100BB000515CC8400649086006480068FFF7F6FE29
:100BC0000020C4E7003C024008380240882E00089C
:100BD00040000020380000200448054900680968EA
:100BE000044AC1F38221515CC84070474000002094
:100BF00008380240982E0008044805490068096832
:100C0000044AC1F34231515CC840704740000020A3
:100C100008380240982E0008154810B5006810F0FA
:100C20000C02144813D04110042A0FD0082A0ED108
:100C30000F4C241F2268236802F03F025B0207D595
:100C40002068C0F38810A0FB010106E0084610BD33
:100C50002168C1F38811A1FB00010023FFF710FBFD
:100C60002168C1F30141491C4900B0FBF1F010BDFE
:100C7000083802400024F4002DE9F84F04006ED03B
:100C80002078DFF84C93C007A9F104054AD009F198
:100C900004000168C1F38101012908D00068C0F394
:100CA000810002280AD1D9F80000400206D5286840
:100CB000800337D560680028E1D033E06068B0F584
:100CC000803F10D0B0F5A02F286810D020F48030DD
:100CD0002860286820F4802028606068A8B1FFF7A9
:100CE0003DFE06460DE0286840F48030F4E740F40D
:100CF00080202860F7E700BFFFF730FE801B6428E4
:100D000073D828688003F7D50CE0FFF727FE064666
:100D100005E000BFFFF722FE801B6428F0D828689A
:100D20008003F7D42078DFF8AC8280074FF0000A08
:100D30003ED5A748001D016811F00C0F08D00068CF
:100D4000C0F3810002280BD1D9F80000400207D47B
:100D50002868800716D5E068012800D112E033E149
:100D6000E068B8B10120C8F80000FFF7F7FD0646BB
:100D700005E000BFFFF7F2FD801B0228C0D82868FD
:100D80008007F7D52868216920F0F80040EAC10003
:100D900028600DE0C8F800A0FFF7E0FD064604E07B
:100DA000FFF7DCFD801B02281FD828688007F7D4D6
:100DB0002078000722D5864F87486169703771B166
:100DC00001210160FFF7CAFD064604E0FFF7C6FDFA
:100DD000801B022809D838688007F7D50EE0C0F8D4
:100DE00000A0FFF7BBFD064605E082E0FFF7B6FD79
:100DF000801B02287DD838688007F7D42078400708
:100E000068D5DFF8CCB100270BF13C0BDBF8000014
:100E1000C0000BD4DBF8001041F08051CBF800107B
:100E2000DBF80000012700F0805000906B4E306826
:100E3000C00510D4306840F480703060FFF78EFD3C
:100E4000009005E0FFF78AFD0099401A022850D86B
:100E50003068C005F6D55E4EA0686C3601280FD00C
:100E60000528306810D020F001003060306820F094
:100E700004003060A068B8B1FFF770FD00900FE08B
:100E8000306840F00100F4E740F004003060F7E71C
:100E9000FFF764FD0099411A41F28830814266D81B
:100EA00030688007F4D50EE0FFF758FD009007E0AA
:100EB000FFF754FD0099411A41F28830814256D81B
:100EC00030688007F4D42FB1DBF8001021F0805196
:100ED000CBF80010A069C8B33D49091D0968C1F3EA
:100EE000810102294AD00228504607D0C8F8600084
:100EF00000E03CE0FFF732FD04463BE04746C8F81F
:100F00006000FFF72BFD064605E000BFFFF726FD5A
:100F1000801B02282BD828688001F7D4D4E9070168
:100F20000843A16A2E4A490802EB0141626A41EA7C
:100F30008211084394F82C1040EA0161C9F80010AE
:100F400001203866FFF70AFD044606E03EE000BFD8
:100F5000FFF704FD001B022809D828688001F7D597
:100F600034E000BFFFF7FAFC001B022802D903207F
:100F7000BDE8F88F28688001F4D427E00128F7D075
:100F8000D9F80000E26900F4800191421CD1226A84
:100F900000F03F01914217D147F6C071626A0140EB
:100FA000B1EB821F10D1A26A4FF0FF3300F4403141
:100FB00003EB5202B1EB024F06D194F82C1000F073
:100FC0007060B0EB016F01D00120D1E70020CFE7C6
:100FD0000438024000004742800E47420070004043
:100FE0000000FFFF10B5401EB0F1807F01D301204B
:100FF00010BD4FF0E02460610F21601701F002FA8C
:101000000020A06107202061002010BD70B590F87D
:101010003C20012A32D0012480F83C40022280F892
:101020003D2003685A689D6822F070060A683243C2
:101030005A60134B02689A4214D0B2F1804F11D01B
:10104000104B9A420ED0104B9A420BD00F4B9A4243
:1010500008D00F4B9A4205D00E4B9A4202D00E4B4D
:101060009A4204D1496825F080031943916080F8C1
:101070003D40002180F83C10084670BD022070BD44
:10108000000001400004004000080040000C004047
:1010900000040140004001400018004010B5040069
:1010A00003D094F83D0010B107E0012010BD0020EE
:1010B00084F83C00204600F01FF8022084F83D0030
:1010C000211D206800F0A4FE012084F8460084F869
:1010D0003E0084F83F0084F8400084F8410084F822
:1010E000420084F8430084F8440084F8450084F802
:1010F0003D00002010BD000008B50C4A01680C48F6
:10110000914207D1016841F002010160006800F0DE
:10111000020009E0074A914207D1016841F0040149
:101120000160006800F00400009008BD0004004069
:10113000403802400008004070B5044690F83C007A
:101140000025012817D0012684F83C60022084F88D
:101150003D002068826822F0770222F47F4282609C
:101160000868502838D00DDC20284FD005DC90B31B
:10117000102811D14AE0022070BD302846D0402806
:101180000AD13BE060282FD070280DD0B0F5805FE9
:1011900003D0B0F5005F12D0012584F83D60002037
:1011A00084F83C00284670BDCB68D1E90121206855
:1011B00000F096FE2068816841F0770109E0CB6875
:1011C000D1E90121206800F08BFE2068816841F49C
:1011D00080418160E1E719E0CA684968206800F051
:1011E00053FF5021206806E0CA684968206800F073
:1011F0005CFF6021206800F07DFECEE7CA68496888
:10120000206800F041FF40212068F4E72268014691
:101210001046F0E710B586B0044614216846FFF783
:1012200079F82368174C002117480222A34210D1F5
:10123000036843F002030360006800F002000590B9
:1012400033200090CDE90121CDE9031269460F4812
:1012500013E00F4CA34212D1036843F0080303606C
:10126000006800F0080005904FF470400090CDE950
:101270000121CDE9031269460648FFF777FA06B067
:1012800010BD00000004004030380240000402405D
:1012900000080040000C024070B5044690F83C0085
:1012A00000260D4601280FD0012084F83C006AB1C9
:1012B000042A1DD0082A2FD00C2A3FD00126002056
:1012C00084F83C00304670BD022070BD206800F0FC
:1012D00019FE2068816941F00801816120688169F7
:1012E00021F004018161206881692A69114311E0BC
:1012F000206800F037FE2068816941F40061816157
:101300002068816921F480618161206881692A698E
:1013100041EA02218161D2E7206800F059FE20688D
:10132000C16941F00801C1612068C16921F004016F
:10133000C1612068C1692A69114311E0206800F089
:101340007BFE2068C16941F40061C1612068C16908
:1013500021F48061C1612068C1692A6941EA0221E2
:10136000C161ACE710B5040003D094F83D0010B1A2
:1013700007E0012010BD002084F83C00204600F06A
:101380001EF8022084F83D00211D206800F040FD79
:10139000012084F8460084F83E0084F83F0084F879
:1013A000400084F8410084F8420084F8430084F847
:1013B000440084F8450084F83D00002010BD7047CB
:1013C00070477047F8B5016804460868CA684B69F9
:1013D00010F00F0F4FF0000559D003F0010602F492
:1013E0009077374365D0C10705D0D10503D5616C2F
:1013F00041F001016164410705D5D90703D0616C53
:1014000041F002016164810705D5D90703D0616C01
:1014100041F004016164010707D502F02001314366
:1014200003D0616C41F008016164616C00293AD01D
:10143000800604D5900602D5204600F083FE206881
:101440004069616CC0F38010090700D460B3204686
:1014500000F051FE20684069400621D52068143014
:1014600050E8001F21F0400140E80012002AF5D1A9
:10147000E06BA8B172490165E06BFFF719F800282D
:1014800011D0E06B016D01B0BDE8F0400847830664
:101490000FD593060DD52046BDE8F84000F052BEAA
:1014A0002046FFF78EFFF8BD2046FFF78AFF6564F0
:1014B000F8BD266B2023012E7ED1C6067CD5D6062C
:1014C0007AD508684868009048694FF002064006DF
:1014D0004DD5E26B106840684FF480770004000C33
:1014E0003AD0A18D814237D9E085D069B8422DD05C
:1014F00020680C3050E8001F21F4807140E8001291
:10150000002AF5D12068143050E8001F21F00101B5
:1015100040E80012002AF5D12068143050E8001F7E
:1015200021F0400140E80012002AF5D184F8423051
:10153000256320680C3050E8001F21F0100140E8BE
:101540000012002AF5D1E06BFEF769FF6663A08DFB
:10155000E18D401A81B206E0A18D8142A8D1D06907
:10156000B842A5D166632046FFF72AFFF8BDA08DDB
:10157000E18D401A81B2E08D0028F7D00029F5D026
:1015800020680C3050E8002F22F4907240E80027C9
:10159000002FF5D12068143050E8002F22F001020E
:1015A00040E80027002FF5D184F8423025632068F9
:1015B0000C3050E8002F00E006E022F0100240E876
:1015C0000023002BF3D1CDE705062BD5150629D531
:1015D00094F841002128C9D1A068B0F5805F01D1FD
:1015E0002069B0B1206A411C2162216800784860FE
:1015F000E08C401E0004000CE084B7D12068C16874
:1016000021F08001C1602068C16841F04001C160E3
:10161000F8BD206A0088C0F308004860206A801C7A
:101620002062E5E74006F3D55006F1D5CA682046AA
:1016300022F04002CA6084F8413000F0EDF9F8BDB4
:10164000E920000870B5040004D094F8410000259A
:1016500010B106E0012070BD84F84050204600F033
:1016600023F8242084F841002068C16821F4005147
:10167000C160204600F0C8FD2068016921F4904156
:1016800001612068416921F02A0141612068C16837
:1016900041F40051C1606564202084F8410084F861
:1016A00042006563002070BD2DE9F04F87B0804691
:1016B00014216846FEF72EFE8248DFF804C2D8F8EF
:1016C000003000247F4910380225032608277E4A6F
:1016D0004FF4406B634520D10B6843F400230B604B
:1016E000096801F400210591016841F004010160DD
:1016F0000068CDF800B000F00400CDE90470039656
:10170000CDE9015469461046FFF730F80022062162
:101710003420FFF795F9342036E0DFF8B0C1634597
:1017200037D10B6843F480130B60096801F4801112
:101730000591016841F004010160016801F00401B4
:101740000591016841F008010160006802AB00F0FA
:10175000080005904FF48050CDE9000583E8D000E3
:1017600069461046FFF702F80420CDE9000502ABF8
:10177000694683E8D0005648FEF7F8FF00220721AB
:101780003520FFF75DF93520FFF74CF907B0BDE8CC
:10179000F08FDFF840C1DFF82C914FF0070A09F114
:1017A0000409634524D1D9F8002042F01002C9F899
:1017B0000020D9F8001001F010010591016841F0F6
:1017C00001010160006802AA00F0010005904FF4D9
:1017D000C060CDE9000582E8500469463E48FEF746
:1017E000C5FF002207212520FFF72AF92520CBE796
:1017F000DFF8E8C063453BD10A6842F480220A6002
:10180000096801F480210591016841F0020101603D
:101810000068CDF800B000F00200CDE904A0039606
:10182000CDE9015469462E48FEF7A0FF2E4D2D4804
:1018300028604FF00060C5E901044014C5E9034089
:1018400080106C61C5E906400002C5E9080428461D
:10185000FEF710FF08B1FEF7E0FDC8F83C5000228B
:1018600005212720C5F83880FFF7EAF827208BE705
:101870001E498B428AD1D9F8003043F02003C9F8C1
:101880000030D9F8001001F020010591016841F005
:1018900004010160006802AB00F004000590C02064
:1018A000CDE9000583E8D00069461046FEF75EFFEB
:1018B000002207214720FFF7C3F8472064E7000014
:1018C000004C0040403802400008024000500040F8
:1018D000000C02400010014000000240004800409F
:1018E00000040240286002408802002000140140E9
:1018F00090F84230202B01D00220704721B11AB15C
:101900000023036300F006BD012070477CB500682A
:101910001549884226D1154CA11C881E6278007892
:101920000A2A01D0052811D300250D540195D4F8B9
:1019300002000090E088ADF804000D482B462A46CE
:101940006946006800F01EFE257002E00A54401C43
:10195000207002B00549BDE870400122491C0548CD
:10196000FFF7C6BF7CBD0000004C00400000002017
:1019700028000020200100202DE9F843044690F8BB
:101980004100984616460D46202802D00220BDE8A8
:10199000F88385B17EB100206064212084F8410085
:1019A000FEF7DCFFA6848146E684A0682027B0F518
:1019B000805F02D003E00120E9E7206910B12E46E4
:1019C00000250EE000260CE08021204600F0BDFC42
:1019D000A8B9C6B116F8010B21684860E08C401E1A
:1019E000E084E08C4B464FF00002CDF800800028E8
:1019F000EAD14FF04001204600F0A7FC40B184F846
:101A000041700320C3E735F8020BC0F30800E3E799
:101A100084F841700020BAE77047FEE7094808B52E
:101A2000016841F4001101600068002200F4001018
:101A3000009005210C20FFF703F8BDE808400C20BA
:101A4000FEF7F0BF30380240154808B5016841F094
:101A500080010160016801F080010091016841F09E
:101A600002010160016801F002010091016841F08A
:101A700008010160016801F008010091016841F06E
:101A800004010160016801F004010091016841F066
:101A900001010160006800F00100009008BD000035
:101AA0003038024010B58EB0002407940894099491
:101AB0000A940B941C2168460C94FEF72BFC2A48D0
:101AC0002849016040F21941C0E90114C721C0E969
:101AD00003148461FFF7E2FA08B1FEF79EFC4FF4AD
:101AE0008050079007A92048FFF726FB08B1FEF7B2
:101AF00094FC1D48FFF736FC08B1FEF78EFC0B94F2
:101B00000BA919480C94FFF781FA08B1FEF785FC80
:101B10006020CDE900040294002269461248049432
:101B2000FFF7BAFB08B1FEF778FC042269460E48BD
:101B3000FFF7B2FB08B1FEF770FC082269460A48BD
:101B4000FFF7AAFB08B1FEF768FC0C2269460648BD
:101B5000FFF7A2FB08B1FEF760FC0348FFF75AFB52
:101B60000EB010BD000400409000002010B58EB0F3
:101B700000240794089409940A940B941C21684645
:101B80000C94FEF7C7FB2A482849016040F219412E
:101B9000C0E90114C721C0E903148461FFF77EFA8C
:101BA00008B1FEF73AFC4FF48050079007A920488F
:101BB000FFF7C2FA08B1FEF730FC1D48FFF7D2FB71
:101BC00008B1FEF72AFC0B940BA919480C94FFF7F7
:101BD0001DFA08B1FEF721FC6020CDE90004029453
:101BE0000022694612480494FFF756FB08B1FEF73D
:101BF00014FC042269460E48FFF74EFB08B1FEF7BD
:101C00000CFC082269460A48FFF746FB08B1FEF7BC
:101C100004FC0C2269460648FFF73EFB08B1FEF7BC
:101C2000FCFB0348FFF7F6FA0EB010BD00080040B9
:101C3000D80000200C4810B50A4901604FF4165135
:101C40004160002181600C22C160C0E90412816101
:101C5000C161FFF7F7FC002803D0BDE81040FEF794
:101C6000DCBB10BD004C0040200100200C4810B52A
:101C70000A4901604FF4E1314160002181600C228A
:101C8000C160C0E904128161C161FFF7DBFC00287B
:101C900003D0BDE81040FEF7C0BB10BD00500040AF
:101CA000680100200C4810B50A4901604FF4165134
:101CB0004160002181600C22C160C0E90412816191
:101CC000C161FFF7BFFC002803D0BDE81040FEF75C
:101CD000A4BB10BD00100140B00100200C4810B59D
:101CE0000A4901604FF4E1314160002181600C221A
:101CF000C160C0E904128161C161FFF7A3FC002843
:101D000003D0BDE81040FEF788BB10BD004800407E
:101D1000F80100200C4810B50A4901604FF4E13188
:101D20004160002181600C22C160C0E90412816120
:101D3000C161FFF787FC002803D0BDE81040FEF723
:101D40006CBB10BD0014014040020020FEE7FEE71E
:101D500010B5FEF709FE00F047FF012803D0BDE8EB
:101D6000104000F0E1BD10BD30B593B030216846A1
:101D7000FEF7D0FA14210CA8FEF7CCFA1E48002575
:101D8000016841F080510160006800F080501190BE
:101D90001A48016841F4804101600068022400F49F
:101DA0008040119001200090000401908001CDE955
:101DB0000640082008904FF4A870CDE909040420DB
:101DC0000B906846FEF758FF08B172B6FEE70CA903
:101DD0000F2081E831004FF4A0500F904FF4805055
:101DE000109005210CA8FEF75DFE002801D072B608
:101DF000FEE713B030BD00004038024000700040E4
:101E00000248016841F470010160704788ED00E00C
:101E1000F0B50268274B284D284E294F294C4FF02A
:101E2000804C984209D0604507D0A84205D0B04206
:101E300003D0B84201D0A04204D122F0700E4A680B
:101E400042EA0E0298421BD0604519D0A84217D032
:101E5000B04215D0B84213D0A04211D01A4DA842BA
:101E60000ED01A4DA8420BD0194DA84208D0194DDA
:101E7000A84205D0184DA84202D0184DA84203D15F
:101E800022F44075CA682A434D6922F080022A4331
:101E90008D68C5620D688562984201D0A04201D16B
:101EA00009690163016841F0040101600121416198
:101EB0000260F0BD00000140000400400008004046
:101EC000000C00400004014000400140004401407B
:101ED0000048014000180040001C00400020004065
:101EE00010B5846842EA032224F47F440A43224363
:101EF000826010BD826822F070020A4342F007013E
:101F000081607047F0B5036A026A22F00102026242
:101F100042688469124E24F073050C682C4323F048
:101F200002058B682B430D4DA84201D0B04205D16C
:101F300023F00807CB683B4323F00403A84201D0F9
:101F4000B04205D14D6922F4407215438A692A4393
:101F500042608461496841630362F0BD0000014052
:101F600000040140F0B5026A036A23F01003036223
:101F7000436884690D6824F4E64444EA05248D68C6
:101F800022F0200242EA05120F4D104EA84201D065
:101F9000B04206D1CF6822F0800242EA071222F056
:101FA0004002A84201D0B04207D14D6923F44063FA
:101FB00043EA85038D6943EA850343608461496888
:101FC00081630262F0BD0000000001400004014096
:101FD000F0B5026A036A23F4807303624368C4693C
:101FE00022F4007224F073050C68124E2C438D68A5
:101FF00042EA05220E4DA84201D0B04206D1CF6878
:1020000022F4006242EA072222F48062A84201D050
:10201000B04207D14D6923F4405343EA05138D695B
:1020200043EA05134360C4614968C1630262F0BDBD
:10203000000001400004014030B5046A026A22F445
:10204000805202624268C3690D6823F4E64343EAA2
:1020500005238D6824F4005444EA0534084DA84251
:1020600002D0084DA84204D14D6922F4804242EAD0
:1020700085124260C36149680164046230BD00009A
:10208000000001400004014010B5036A046A24F016
:1020900001040462846924F0F00444EA021423F089
:1020A0000A020A438461026210BD10B5036A046A21
:1020B00024F010040462846923F0A00324F4704423
:1020C00044EA023243EA01118261016210BD00005C
:1020D0000148FFF777B90000200100200148FFF711
:1020E00071B900006801002010B5806B0021C18526
:1020F000FFF767F910BD01680C3151E8002F22F499
:10210000907241E80023002BF5D10168143151E8A9
:10211000002F22F0010241E80023002BF5D1016BD2
:10212000012909D101680C3151E8002F22F0100279
:1021300041E80023002BF5D1202180F84210002136
:102140000163704708B590F84210222901D002209F
:1021500008BD82684FF480539A4201D1016921B1D0
:10216000816A9A421BD04AB10AE00268816A5268C9
:10217000C2F308020A80816A891C08E0026972B110
:102180000268526802F07F020A70816A491C81620B
:10219000C18D491E0904090CC18503D01BE00268EA
:1021A0005268F1E70168CA6822F02002CA6001683B
:1021B000CA6822F48072CA6001684A6922F001028A
:1021C0004A61202180F8421000214163026B012AFC
:1021D00003D0FFF79BFB002008BD016301680C31B1
:1021E00051E8002F22F0100241E80023002BF5D126
:1021F00001680A68D20602D50A6849680091818D93
:10220000FFF7DEF8E7E7000070B5044600680169F3
:10221000E26821F44051114301612169A068E2693B
:1022200008436169114308432168CA6849F20C6395
:102230009A430243CA6020684169A26921F440714F
:102240001143416131492068884202D030498842B7
:1022500002D1FEF7D1FC01E0FEF7BEFCE2690023EB
:10226000192164253226B2F5004F626828D0A0FB00
:102270000101930F9200FEF703F80146B0FBF5F061
:102280006FF01802504301EB800006EB0010B0FB2A
:10229000F5F000F0F002B1FBF5F002EB0012B1FB3B
:1022A000F5F06FF01803584301EB800006EB0010C7
:1022B000B0FBF5F000F00F0021681044886070BD9D
:1022C000A0FB010192185B41FDF7DAFF0146B0FB6C
:1022D000F5F00201B1FBF5F06FF01803584301EB84
:1022E000800006EBC000B0FBF5F000F0F80002EB58
:1022F0004002B1FBF5F0584301EB800006EBC00053
:10230000B0FBF5F000F00700D6E700000010014038
:102310000014014081628285C2850021416422212E
:1023200080F84210016921B10168CA6842F48072E4
:10233000CA6001684A6942F001024A610068C168E6
:1023400041F02001C160002070472DE9F843984614
:1023500017460D460446089E24E0701C22D0FEF766
:10236000FDFAA0EB0800B0421AD8CEB12068C168CF
:10237000490717D5802D15D0402D13D00168C943CA
:1023800009070FD401680025406800902046FFF738
:10239000B2FE0820606484F840500120BDE8F88354
:1023A0000320FBE72068006835EA000004D0002025
:1023B000B842D2D00020F1E70120F9E70148FFF749
:1023C00001B80000B00100200148FEF7FBBF00008B
:1023D000F80100200148FEF7F5BF00004002002090
:1023E000FEE700000FB4054B10B503A9044A02989C
:1023F00000F027F810BC5DF814FB00001925000858
:102400008C0000200907090E002804DB00F1E02001
:1024100080F80014704700F00F0000F1E02080F811
:10242000141D704702E008C8121F08C1002AFAD123
:1024300070477047002001E001C1121F002AFBD144
:1024400070472DE9F84F9946924688460546002781
:1024500006E025280AD051464A4690476D1C7F1C4D
:1024600028780028F5D13846BDE8F88F002315F804
:10247000011F18462E2915D115F8011F04232A29FA
:102480000DD06FF02F022978A1F13004092C09D862
:1024900000EB800002EB400008446D1CF3E758F8A5
:1024A000040B6D1C2A78002ADDD0632A07D0732A1A
:1024B0000FD0104651464A4690477F1C2AE018F834
:1024C000042B8DF8002000218DF801106E460121AB
:1024D00003E058F8046B4FF0FF315A074FF0000447
:1024E00001D409E0641C84420BDA8C42FADB325DD1
:1024F000002AF7D105E0641C8C42FCDB305D00282B
:10250000F9D1274404E016F8010B51464A4690479A
:10251000641EF8D26D1CA3E713B54FF0FF33012200
:1025200069460248FFF728FA00981CBD20010020E8
:10253000FEF722FAFFF718FCFFF786FAFFF76EFAAC
:10254000FFF7B0FAFFF712FBFFF774FBFFF78EFB04
:10255000FFF7A8FBFFF7C2FBFFF7DCFB01220549F1
:102560000548FFF7C5F905A0FFF73CFF6420FEF71B
:10257000EBF8F8E702000020200100204F4A424B10
:1025800000000000F8B51D466FF003026FF0020670
:102590004FF00004EFF30583ABB100B3F9B1F5B927
:1025A0000022134600926A4600F084FA012818D1EE
:1025B0000098B8B10C494FF080500860BFF34F8FBE
:1025C000BFF36F8F0EE050B149B100232A4600F0EF
:1025D000C1F9012806D025B16FF0010402E01446CC
:1025E00000E034462046F8BD04ED00E02DE9F0415E
:1025F000134C0F460546E6682068001D00F09FF862
:10260000681C07D137B12168BDE8F0410D48091DAC
:1026100000F0C0B820683544B5424560216805D255
:10262000A06BBDE8F041091D00F09CB8606B091D6E
:1026300000F098F8A06A854200D2A562BDE8F0815A
:1026400044000020980700202DE9F041856B1746D3
:1026500004460026026C82B1C7B1E068FDF741FE76
:10266000E168206C091AE1602268914202D2A168F7
:10267000081AE060022F16D017E02068A8B9A068F9
:1026800000F024FB06460020A0600EE06068FDF725
:1026900028FE216C606808446060A168884204D309
:1026A0002068606001E005B16D1E6D1CA5633046B9
:1026B000BDE8F0810648416B096829B1416BC968E2
:1026C000C9684968816270474FF0FF31FAE700003E
:1026D000440000202DE9F041044600F067F894F929
:1026E000455004F1240609E0606A48B1304600F024
:1026F0002DFB08B100F0C0F86D1E6DB2002DF3DCAB
:102700004FF0FF3684F8456000F070F800F04EF8A6
:1027100094F9445004F1100709E0206948B13846A3
:1027200000F014FB08B100F0A7F86D1E6DB2002D8B
:10273000F3DC84F84460BDE8F04100F057B8D0E91C
:10274000013201699A60D0E901235A604A688242E5
:1027500001D182684A60002202610868401E086058
:102760000868704730B50B685A1C02D000F10802A7
:1027700002E0026904E02246546825689D42FAD9C5
:1027800053684B6099608A60516008610168491C18
:10279000016030BD42684A6093688B6093685960FD
:1027A000916008610168491C01607047502080F306
:1027B0001188BFF34F8FBFF36F8F0A494868401CE1
:1027C000486001280CD10848006810F0FF0F07D0BE
:1027D000502080F31188BFF34F8FBFF36F8FFEE758
:1027E000704700008000002004ED00E008494868C0
:1027F00028B1401E486001D180F3118870475020F5
:1028000080F31188BFF34F8FBFF36F8FFEE7000097
:102810008000002010B5FDF71DFD114910280ED3D2
:1028200000F1E02090F8F0030A78904207D250209F
:1028300080F31188BFF34F8FBFF36F8FFEE7094816
:102840000068896800F4E060884207D9502080F36E
:102850001188BFF34F8FBFF36F8FFEE710BD0000ED
:10286000800000200CED00E002490A6A0260C9689D
:10287000416070474400002001490120C861704751
:102880004400002010B50C4650B1094909681831C0
:10289000FFF768FF2046BDE810400121FFF7A6BE04
:1028A000502080F31188BFF34F8FBFF36F8FFEE787
:1028B000440000200248016B491C0163704700007E
:1028C00044000020164810B5016B11B10121C1610F
:1028D00010BD0021C1610169124A01E0B9B1491E70
:1028E00001EB810352F82330002BF7D001EB810379
:1028F00002EB830202F1080453685B685360A34251
:1029000001D15B685360DA680260016110BD50203C
:1029100080F31188BFF34F8FBFF36F8FFEE7000086
:1029200044000020E802002010B5502080F31188F8
:10293000BFF34F8FBFF36F8F00F064F918B10449F4
:102940004FF080500860002080F3118810BD000017
:1029500004ED00E02DE9FF4782B01D468A464FF0A6
:102960000008040003D0BAF1000F08D011E0502095
:1029700080F31188BFF34F8FBFF36F8FFEE7206C9A
:1029800038B1502080F31188BFF34F8FBFF36F8FA2
:10299000FEE7022D0AD1E06B012807D0502080F31A
:1029A0001188BFF34F8FBFF36F8FFEE700F01CF964
:1029B0003F4F4FF000094FF0805648B9049838B1A6
:1029C000502080F31188BFF34F8FBFF36F8FFEE766
:1029D000FFF7ECFEA06BE16B884207D3022D05D018
:1029E0000498D0B1B8F1000F1AD01EE02A46514623
:1029F0002046FFF729FE616A19B104F1240000F0B6
:102A0000A5F920B13E60BFF34F8FBFF36F8FFFF783
:102A1000EDFE012006B0BDE8F087FFF7E7FE22E0FB
:102A20006846FFF721FF4FF00108FFF7DFFEFFF7D1
:102A300041FFFFF7BBFE94F94400401C01D184F82C
:102A4000449094F94500401C01D184F84590FFF76B
:102A5000CDFE04A9684600F08DF830B12046FFF79E
:102A600039FE00F0ABF90020D4E7FFF79FFEA06B22
:102A7000E16B884213D1FFF7B9FE04F1100004990D
:102A8000FFF700FF2046FFF725FE00F097F900282A
:102A90009ED13E60BFF34F8FBFF36F8F98E7FFF774
:102AA000A5FE2046FFF716FE00F088F990E700002B
:102AB00004ED00E02DE9F0471F46904689460400EA
:102AC00003D0B9F1000F08D011E0502080F3118835
:102AD000BFF34F8FBFF36F8FFEE7206C38B15020EC
:102AE00080F31188BFF34F8FBFF36F8FFEE7022F84
:102AF0000AD1E06B012807D0502080F31188BFF382
:102B00004F8FBFF36F8FFEE7FFF784FE5020EFF388
:102B1000118680F31188BFF34F8FBFF36F8FA06BC7
:102B2000E16B884206D3022F04D0002086F311887F
:102B3000BDE8F08794F94550A06B3A4649462046D7
:102B4000FFF782FD681C04D06D1C84F845500120FD
:102B5000ECE7606A0028FAD004F1240000F0F6F8EF
:102B60000028F4D0B8F1000FF1D00121C8F800100E
:102B7000EDE700002DE9F0410C46050011D0C4B18D
:102B8000FFF714FE174BDA686E682068911B471C2C
:102B900017D02F681B6A9F4219D0964217D801247C
:102BA00010E0502080F31188BFF34F8FBFF36F8F79
:102BB000FEE7502080F31188BFF34F8FBFF36F8F74
:102BC000FEE70024FFF712FE2046BDE8F0818842B0
:102BD00005D9401A20602846FFF746FEF1E700209D
:102BE0002060DCE7440000200548416919B1006B12
:102BF00018B1002070470120704702207047000084
:102C0000440000202DE9F0412E4C0027206B28B114
:102C1000A069401CA0613846BDE8F081E668761CDA
:102C2000E66013D1606B006838B1502080F31188E2
:102C3000BFF34F8FBFF36F8FFEE7606BA16B6163D4
:102C4000A063206A401C2062FFF734FDA06ADFF811
:102C50007880864209D3606B0068A0B1606BC06861
:102C6000C5686868864211D2A0622068C06A00EB1D
:102C7000800158F82100012800D90127E0690028C7
:102C8000C9D00127C7E74FF0FF30EDE7281DFFF758
:102C900056FDA86A18B105F11800FFF750FDE86A63
:102CA0002169884200D9206100EB800108EB810096
:102CB000291DFFF76FFDE86A2168C96A8842CAD3F7
:102CC0000127C8E744000020E802002070B5040096
:102CD0004FF0000133D01B4D2868844207D05020AC
:102CE00080F31188BFF34F8FBFF36F8FFEE7206D26
:102CF00038B1401E2065E36CE26A9A421FD040B1B1
:102D00001DE0502080F31188BFF34F8FBFF36F8F0A
:102D1000FEE7201DFFF713FDE06CE062C0F1380014
:102D2000A061E06A2969884200D92861064900EB60
:102D3000800001EB8000211DFFF72CFD01210846DA
:102D400070BD000044000020E802002070B5C0689B
:102D5000C46854B104F118000646FFF7F0FC144DA6
:102D6000286B50B13146134815E0502080F311888C
:102D7000BFF34F8FBFF36F8FFEE7201DFFF7DFFC20
:102D8000E06A2969884200D928610B4900EB80007C
:102D900001EB8000211DFFF7FDFCE06A2968C96A8C
:102DA000884202D90120E86170BD002070BD00009A
:102DB0004400002070070020E80200202DE9F047C1
:102DC0002C4D00242746286B38B1FFF7EFFC286B09
:102DD000401E2863286B40B146E0502080F31188E4
:102DE000BFF34F8FBFF36F8FFEE7A968224E01201C
:102DF000D1B3A6F5916980463068E0B1F068C46847
:102E000004F11800FFF79BFC201DFFF798FCE06A17
:102E10002969884200D9286100EB800109EB810013
:102E2000211DFFF7B7FCE06A2968C96A8842E3D32D
:102E3000C5F81C80E0E70CB1FFF73CFCAC694CB175
:102E40004FEA0806FFF7DEFE00B1EE61641EF9D11D
:102E50000020A861E86938B10849012738070860EF
:102E6000BFF34F8FBFF36F8FFFF7C0FC3846BDE84D
:102E7000F0870000440000207007002004ED00E00F
:102E800000061016000610160000000000000000EA
:102E90000102030406070809000000000102030400
:102EA000C02E00080000002090000000242400082C
:102EB000502F000890000020200B00003424000850
:102EC0000000000000000000000000000000000002
:102ED00000000000000000000000000000000000F2
:102EE00000000000000000000000000000000000E2
:102EF00000000000010000001000000000000000C1
:102F00000024F400000000000000000000000000A9
:102F100000000000000000000000000000000000B1
:102F200000000000000000000000000000000000A1
:102F30000000000000000000000000000000000091
:102F400000000000AAAAAAAA0000000000000000D9
:040000050800018965
:00000001FF
