:020000040800F2
:10000000680B0020A9010008D5140008CD140008D1
:10001000D11400089B130008E51900080000000037
:10002000000000000000000000000000471500086C
:1000300039140008000000001D15000831160008E2
:10004000C3010008C3010008C3010008C301000880
:10005000C3010008C3010008C3010008C301000870
:10006000C3010008C3010008C3010008C301000860
:10007000A1130008C3010008C3010008C301000860
:10008000C3010008C3010008C3010008C301000840
:10009000C3010008C3010008C3010008C301000830
:1000A000C3010008C3010008C3010008C301000820
:1000B000C3010008C3010008C3010008C301000810
:1000C000C3010008C3010008C3010008C301000800
:1000D000C3010008C301000895160008191700089D
:1000E000C3010008C3010008C301000800F002F8C2
:1000F00000F04AF80AA090E8000C82448344AAF178
:100100000107DA4501D100F03FF8AFF2090EBAE875
:100110000F0013F0010F18BFFB1A43F0010318473B
:100120005430000074300000103A24BF78C878C101
:10013000FAD8520724BF30C830C144BF04680C60ED
:10014000704700000023002400250026103A28BF35
:1001500078C1FBD8520728BF30C148BF0B60704739
:10016000662902F0BA87642900F080800020704779
:100170001FB500F0D1FB04000020002102F0D0FAEE
:10018000E0601FBD10B510BD00F0DEFC1146FFF7AA
:10019000EFFF01F0CDFE00F0FCFC03B4FFF7F2FF2F
:1001A00003BC01F0DFFC0000094880470948004714
:1001B000FEE7FEE7FEE7FEE7FEE7FEE7FEE7FEE717
:1001C000FEE7FEE704480549054A064B7047000074
:1001D00035160008ED00000868050020680B0020B7
:1001E0006807002068070020704700000FB404492A
:1001F00010B503AA029800F04BFB10BC5DF814FB8D
:10020000FC0000202DE9F0410E460446002020624B
:100210002046E168884730B3252805D0D4E901217C
:100220009047206A401CF2E7E16820460027884793
:10023000050018D0A5F14100192802D820354FF447
:1002400000673246294620462760FFF789FF40B104
:10025000012804D0F61D26F007060836D8E7361D1B
:10026000D6E72846DAE7206ABDE8F0812DE9F041BB
:100270000646002410687529314616A510D0AFF344
:100280000080002802DA404213A507E031688A079F
:1002900001D512A502E0490704D511A5012401E00A
:1002A000AFF3008000210A2206F1240709E0B0FB29
:1002B000F2FCB0FBF2F302FB1C003030785418461D
:1002C000491C0028F3D123462A463046BDE8F041B8
:1002D00000F078B8000000002D0000002B000000A6
:1002E00020000000032A40F2308010F0030C00F0E0
:1002F000158011F8013BBCF1020F624498BF11F860
:1003000001CB00F8013B38BF11F8013BA2F1040218
:1003100098BF00F801CB38BF00F8013B11F0030390
:1003200000F0C882083AC0F0088051F8043B083A4F
:1003300051F804CBA0E80810F5E7121D5CBF51F896
:10034000043B40F8043BAFF30080D20724BF11F810
:10035000013B11F801CB48BF11F8012B24BF00F875
:10036000013B00F801CB48BF00F8012B70474FF06C
:10037000000200B5134694469646203922BFA0E8F5
:100380000C50A0E80C50B1F12001BFF4F7AF090701
:1003900028BFA0E80C5048BF0CC05DF804EB8900F2
:1003A00028BF40F8042B08BF704748BF20F8022B35
:1003B00011F0804F18BF00F8012B7047704770474D
:1003C000704770472DE9F0470D469946924604461E
:1003D00000F124080168880604D5E06921F01001C5
:1003E000216000E00120A84201DD471B00E000275A
:1003F000A1697A1902EB0900081AA0612078C006E9
:1004000002D42046AFF30080002608E0D4E90121A1
:100410001AF806009047206A401C761C20624E4560
:10042000F4DB2078C0060AD52046AFF3008006E052
:10043000D4E9012130209047206A401C2062381EF8
:10044000A7F10107F4DC07E0D4E9012118F8050061
:100450009047206A401C2062281EA5F10105F3DCAC
:100460002046AFF300802078000602D50220BDE8C8
:10047000F0870120FBE770472DE9FF4F0C461E4631
:100480004FF0FF378BB0D2E90001DDF860800A90B1
:100490008A46C1F30A5505B93D46002108464FF08A
:1004A0000000BAF1000F00F4400005DA00EB800014
:1004B0004FF4400101EA50004FEA9059B9F1010FA1
:1004C00000DDB9460A9850EA4A000ED044F61050B2
:1004D000A5F2FF3545432F14B8F1000F1ED0754229
:1004E000291E1EDDC9F100021CE0B8F1010F4FF01A
:1004F000000001D0302103E0F24305E02154401C0C
:10050000B042FBDB30460022002121540B99C1F898
:100510000880C1E900200FB0BDE8F08FBD1B6D1C45
:10052000DEE74A4600DA694206A800F097FA06AB11
:1005300093E8070003AB83E8070050460A9900F0F0
:1005400071FB8DE80700A0F500501F38009003985C
:10055000002D09DD42F21F014A46084403A9039019
:10056000684600F0D0FD08E0A0F500504A461F386C
:1005700003A90390684600F0DAFD8DE80700000447
:10058000000C03D04FF0FF30410800E01046B8F1F6
:10059000000F03D00022009215461EE0751E05D400
:1005A00000F0BEF9303262556D1EF9D5B346012216
:1005B000084302D000227F1C04E02078302801D1BB
:1005C00000227F1E002A099786D01DE0112D07DA30
:1005D00000F0A6F9303262556D1C50EA0102F5D1E7
:1005E000084302D00098C8B10EE00021681E05E063
:1005F000235C625C63542254401E491C8142F7DB39
:10060000AB46A81B401E0990002004F80B000B9875
:10061000099AC0F80880C0E9002B7CE711264FF04A
:10062000000859E72DE9F04F88460446D21D22F014
:10063000070191B0D1E90001CDE90A0101F07EFA8C
:1006400002460B98C00F01D02D2007E020688107DB
:1006500001D52B2002E0202101EAC000032A0990E5
:1006600001D0072A05DB03464146204600F0B6F9D3
:100670000BE12078800601D5E06900E00620B8F1A2
:10068000650F814606D0B8F1660F18D0B8F1670F34
:1006900070D131E00020B9F1110F009001DB11237E
:1006A00001E009F101030AAA01A90CA8FFF7E4FE81
:1006B000DDE90C70002609F10105834647E00120C1
:1006C0004B4600904FF000470AAA01A90CA8FFF77B
:1006D000D3FEDDE90DB00C995D46002610B909F195
:1006E00001000D18B9EB050003D4C0F1FF3609F184
:1006F0000105A5EB09002BE0B9F1010F01DA4FF07C
:1007000001090020B9F1110F0090484601DD1123C5
:1007100000E003460AAA01A90CA8FFF7ADFEDDE937
:100720000C704D4600268346207800070AD4AB455E
:1007300000DA5D4601A8012D04DD411911F8011C04
:10074000302907D04F4502DA17F1040F04DA0120EF
:1007500082460FE06D1EEEE7002F02DCED1B3E44EB
:1007600003E0781CA84200DD7D1CB81B00F1010AE3
:100770004FF000472078000703D4AA4501DB4FF073
:10078000FF3A0021B7F1004F0DF143088DF84310F7
:1007900024D002202B23002F01DA7F422D230A21AF
:1007A000021EA0F1010000DC5FB197FBF1FC97FB9A
:1007B000F1F201FB1C7C17460CF1300C08F801CD5E
:1007C000EEE7A8F1010003702188090501D5452154
:1007D00000E06521A0F1010800F8011C09980FA9AB
:1007E000A1EB0807FF1D00B10120411901EBEA70E0
:1007F000A1693844081A401EA0612078C00602D4BE
:100800002046AFF30080099828B1D4E90121904730
:10081000206A401C20622078C00622D52046AFF313
:1008200000801EE0002E04DBB34502DD01A8805DE0
:1008300000E03020D4E901219047206A401C20626A
:10084000761CAAF101005FEA000A0AD100F064F800
:10085000C0680168405CD4E901219047206A401CCF
:100860002062281EA5F10105DCDC07E0D4E90121A6
:1008700018F8010B9047206A401C2062381EA7F12F
:100880000107F3DC2046AFF30080032011B043E6FC
:10089000074B70B50D467B4400F08DF804462846A2
:1008A00000F04AF910B14FF0FF3070BD204670BD26
:1008B0007714000010B5203AC0F00B80B1E8185052
:1008C000203AA0E81850B1E81850A0E81850BFF43A
:1008D000F5AF5FEA027C24BFB1E81850A0E81850D9
:1008E00044BF18C918C0BDE810405FEA827C24BF2D
:1008F00051F8043B40F8043B08BF7047D20728BFBB
:1009000031F8023B48BF11F8012B28BF20F8023B09
:1009100048BF00F8012B70470048704724050020AD
:1009200030B5B0F10A024FEA900E71F100034EEAC1
:10093000817EB0EB0E0061EB91014FEA101E4EEA92
:10094000017E10EB0E0041EB11114FEA102E4EEA22
:10095000016E10EB0E0041EB11214FEA104E4EEAF2
:10096000014E10EB0E0041EB1141401841F1000126
:100970004FEAD00040EA41704FEAD10110EB800508
:100980004FEA810444EA907444EB01046D1944EB8E
:100990000404521BA3414FF0000348BF0A3200D5A4
:1009A00030BD401C41F1000130BD000001694A1C0E
:1009B00002610878704700B58FB0CDE901310021A0
:1009C000059105497944CDE9031011466846FFF7C2
:1009D00019FC0FB000BD0000E5FFFFFF2DE9F0415D
:1009E0001F46044603260168072A01F4006004DB61
:1009F00008B116A505E016A503E008B115A500E0AD
:100A000015A521F010002060A069C01EA0610FB1E3
:100A1000401EA0612046AFF300804FB1D4E9012110
:100A200038469047206A401C2062C01C206206E0C5
:100A3000206AFAE7D4E9012115F8010B9047761EE8
:100A4000F8D22046AFF30080BDE8F0814E414E0061
:100A50006E616E00494E4600696E66002DE9F047F2
:100A6000814616468AB0334878440DC88DE80D009B
:100A700030487844801C03AC0DC884E80D0041F672
:100A80009B300844372190FBF1F290FBF1F5A5F182
:100A9000800501FB12041B3C02D56442012000E0EA
:100AA0000020DFF890A080460027FA44AAF1BE0A91
:100AB0000DE0E00709D03246684607EB47010AEB34
:100AC000810100F034FB8DE8070064107F1C002CCE
:100AD000EFD1184F7F44AC3F18E0E80714D007EB84
:100AE00004100DF1180A90E80E008AE80E00C068A4
:100AF000F04201D198190890324606A903A800F0E7
:100B000016FB03AB83E807006D10641C002DE4D1D5
:100B100032466946B8F1000F03A802D000F0F3FA9C
:100B200001E000F004FBC9E90001C9F808200AB09F
:100B3000BDE8F087F0260000007B00F080007047E1
:100B400000487047040500207546FFF7F9FFAE46E0
:100B500005006946534620F00700854618B020B5C9
:100B6000FFF730FBBDE820404FF000064FF00007D4
:100B70004FF000084FF0000B21F00701AC46ACE845
:100B8000C009ACE8C009ACE8C009ACE8C0098D46B2
:100B9000704710B50446AFF300802046BDE8104012
:100BA000FFF7FBBA4FF0013C50F8042B51F8043B1F
:100BB0009A4221D1A2EB0C03934313EACC1317D131
:100BC00050F8042B51F8043B9A4215D1A2EB0C03C8
:100BD000934313EACC130BD150F8042B51F8043B88
:100BE0009A4209D1A2EB0C03934313EACC13DBD056
:100BF0004FF00000704700BFD01A01BAB1FA81F17E
:100C000001F0180122FA01F0CB40C1F12001DBB262
:100C1000C0B2C01A2CFA01F3D11A914311EAC311E0
:100C2000E6D170475FEA400C08BF91F0000F4FEA31
:100C30008C234FEAC12243EA51514FEA1C5018BF9E
:100C400000F5F0404FEA300018BF41F000415FEA84
:100C50006C5C00F02980BCF1FF3F08BF40F0804091
:100C60007047130C06BF12044FF0100C4FF0000C2D
:100C7000130E04BF12020CF1080C130F04BF120173
:100C80000CF1040C930F04BF92000CF1020CD30F73
:100C900004BF52000CF1010C11464FF00002A0F10C
:100CA0001F00A0EB0C00704711F0004F08BF704709
:100CB00031F000413FF4D5AF0B0C06BF09044FF0F3
:100CC000100C4FF0000C0B0E04BF09020CF1080CC5
:100CD0000B0F04BF09010CF1040C8B0F04BF89003A
:100CE0000CF1020CCB0F04BF49000CF1010CCCF14C
:100CF0002003A0EB0C0022FA03F302FA0CF241EA03
:100D0000030100F10100704720F07F4C80EA0300EE
:100D100023F07F47ACEB070303F57C5300F0004062
:100D200003F1FF032DE980494FEA154B09B44FEA5F
:100D3000144325EA0B4E24EA03480FF2042606EB7F
:100D4000132749083E785FEA320203FB0667C7F5BE
:100D5000000707FB06F64FEA54374FEAD64606F17E
:100D6000020607FB066CCCF1005C4FEA1C472CEA3C
:100D7000074C07FB06F40CFB06F504EB15464FEA9F
:100D8000961634BF00204FF000404FEAD13706FBE3
:100D900007FC4FEA1C4C0CFB0BF7D21B03FB0CF7B8
:100DA00061EB07010CFB0EF7B0EB074072EB17424B
:100DB0000CFB08F734BFA2EB0742B2EB074261EB32
:100DC00017414FEA0C444FEA910706FB07FC4FEA34
:100DD0001C4C0CFB0BF7B0EBC74072EB573203FB1C
:100DE0000CF734BFA2EBC742B2EBC74261EB5731FD
:100DF0000CFB0EF7B0EBC70072EB57720CFB08F759
:100E000034BFA2EBC702B2EBC70261EB5771039F7D
:100E10004FEA816141EA921104EBCC044FEAD137E9
:100E20004FEA826206FB07FC42EA90124FEA8060BA
:100E30004FEA1C4C0CFB0BF7D21B03FB0CF761EBCE
:100E400007010CFB0EF7B0EB074072EB17420CFBEF
:100E500008F734BFA2EB0742B2EB074261EB174140
:100E60004FEA8C554FEA910704EB9C2406FB07FCE4
:100E70004FEA1C4C0CFB0BF7B0EBC74072EB573240
:100E800003FB0CF734BFA2EBC742B2EBC74261EBE6
:100E900057310CFB0EF7B0EBC70072EB57720CFB2F
:100EA00008F734BFA2EBC702B2EBC70261EB577180
:100EB00015EB4C254FEA816141EA92114FEA8262BB
:100EC0004FEAD13742EA901206FB07FC44F10004D6
:100ED0004FEA80604FEA1C4C0CFB0BF7D21B03FB64
:100EE0000CF761EB07010CFB0EF7B0EB074072EB60
:100EF00017420CFB08F734BFA2EB0742B2EB0742E4
:100F000061EB174115EB1C154FEA813141EA924123
:100F10004FEA823242EA90424FEA80304FEA0C7642
:100F200044F1000448EA03434EEA0B484FF0000E38
:100F3000B2EB080C71EB030724BF624639464EEB57
:100F40000E0E4FF0000B0018524149414BEB0B0BBA
:100F5000B2EB080C71EB03077BF1000B24BF624678
:100F600039464EEB0E0E4FF0000B0018524149412E
:100F70004BEB0B0BB2EB080C71EB03077BF1000B97
:100F800024BF624639464EEB0E0E51EA020718BFE7
:100F900046F0010616EB0E7655F1000254F1000101
:100FA00003D5BDE88901BDE80088BDE88901BDE839
:100FB0000048B619524141EB0101A3F1010370470A
:100FC00080807F7E7D7C7B7A797877767675747386
:100FD000727171706F6E6E6D6C6C6B6A6A69686845
:100FE000676666656464636362616160605F5F5EDB
:100FF0005E5D5D5C5C5B5B5A5A5959585857575651
:1010000056555555545453535252525151505050B5
:101010004F4F4F4E4E4D4D4D4C4C4C4B4B4B4A4A07
:101020004A4949494848484747474746464645454B
:101030004544444444434343434242424241414184
:10104000002B26D4770021D01CB54FEA370703B414
:101050004FF010004FF010014FF000000FBCBDE842
:1010600010400BF1010BBBF1010F08BF5FEA17073E
:1010700022BF12F1010211F101014FF0004143F1D1
:10108000000300F0004043EA00007047F9D357081E
:10109000DAE746EA064613F1400F4FEA16461FDD2F
:1010A00013F1200FDFBF16430A46002120335B42B5
:1010B000C8D0C3F1200746EA064602FA07F74FEA0E
:1010C000164646EA0706C3F1200722FA03F201FAA0
:1010D00007F721FA03F14FF0000342EA0702B1E7F4
:1010E00046EA020646EA06464FEA164646EA010680
:1010F000BCBF46EA0646360C4FF000034FF0000234
:101100004FF000019EE72DE9C048934630B491E8C6
:10111000380007C831EA400C48BF34EA430C03D515
:10112000FFF7F2FDFFF78CFFF0BCBDE800882DE96A
:10113000C048934630B491E8380007C810F0804F9B
:1011400008BF13F0804F03D100F005F8FFF778FFD8
:10115000F0BCBDE8008820F07F4780EA030023F060
:101160007F4C07EB0C03A3F57C5300F00040A3F188
:10117000FE0392F0000F00F0B38095F0000F00F036
:1011800077802DE901494FEA11404FEA144621EAE0
:10119000004800FB06FC24EA064708FB06F607FBAE
:1011A00008F800FB07F718EB06484CEB164C4FEA23
:1011B000124B18EB07484FEA15464CEB174022EA52
:1011C0000B4E0BFB06FC25EA06470EFB06F607FB5B
:1011D0000EFE0BFB07F71EEB064E4CEB164C4FF0CA
:1011E00000061EEB074E4CEB174B18EB0B0840F1BB
:1011F000000018EB0E0B58EB000840F100008F1AAE
:101200004FF000013CBFC943661B14BFB5EB040C93
:1012100000213CBFC943F61B4FEA17444EEA8E0E2D
:1012200027EA04454FEA1C4704FB07622CEA074CF7
:1012300005FB07F70CFB05F604FB0CFC16EB074659
:1012400042EB174216EB0C4642EB1C421BEB060628
:1012500058EB0202414146EA9E0601D5BDE80189EC
:10126000B619524141EB0101A3F10103BDE8018927
:101270004FEA14454FEA114724EA054621EA074C94
:1012800005FB07F406FB07F70CFB06F105FB0CFC5E
:1012900011EB074144EB17444FEA124711EB0C41A5
:1012A00044EB1C4422EA074C05FB07F206FB07F758
:1012B0000CFB06F605FB0CFC16EB074642EB17424F
:1012C00016EB0C4642EB1C456A1854F1000148BF6E
:1012D0007047B619524141EB0101A3F10103704778
:1012E00095F0000F37D04FEA11424FEA144721EA38
:1012F000024624EA074C02FB07F106FB07F70CFB4A
:1013000006F402FB0CFC14EB074441EB17414FEAD7
:10131000154714EB0C4441EB1C4125EA074C02FB3A
:1013200007F506FB07F70CFB06F602FB0CFC16EBB9
:10133000074645EB174516EB0C4645EB1C421219C8
:1013400051F1000148BF7047B619524141EB01010C
:10135000A3F1010370474FEA14454FEA114724EA0D
:10136000054621EA074C05FB07F106FB07F70CFBD6
:1013700006F24FF0000605FB0CFC12EB074241EBB6
:10138000174112EB0C4251EB1C4148BF70479218B9
:1013900041EB0101A3F10103704700BFFEE700002C
:1013A00010B5202000F030F800B910BD002105482C
:1013B00000F01AF8202000F009F801200249086026
:1013C00000BFF2E71C000240AC00002000F080519A
:1013D00011B10349086001E002494860704700000C
:1013E000040402400000024021B1026842F0010200
:1013F000026004E002684FF6FE731A400260704714
:101400000146486880B2704701460020002201F082
:10141000805313B1054B1A6801E0054B1A6802EAC4
:1014200001030BB1012000E00020704700040240DE
:10143000000002404160704770470000F0B50A4666
:10144000002300240021002500F00046B6F1004FE3
:1014500002D11D4EF16901E01B4E7168C0F30345D6
:1014600083B200F44016B6F5401F08D121F0706138
:10147000154E766826F07066134F7E6012E000F419
:101480008016B6F5801F06D1032606FA05F4A1439F
:1014900041F0706106E0460D360103FA06F6B143ED
:1014A00041F0706122B1460D360103FA06F6314370
:1014B00000F00046B6F1004F02D1034EF16101E0A9
:1014C000014E7160F0BD00000000014000BFFEE76A
:1014D00000BFFEE77047000002490143024A116065
:1014E000704700000000FA050CED00E00948806933
:1014F00040F01000074988610748406820F47000F8
:10150000054948600846406840F440104860480477
:101510000861704700100240001001407047000051
:1015200029B1064A92690243044B9A6104E0034AD6
:1015300092698243014B9A6170470000001002409B
:10154000704770477047704710B500F001F810BD44
:101550000CB50020019000903348006840F48030C2
:101560003149086000BF3048006800F40030009046
:101570000198401C0190009818B90198B0F5A06F2F
:10158000F1D12948006800F4003010B1012000902A
:1015900001E0002000900098012843D12348006812
:1015A00040F01000214908600846006820F0030060
:1015B00008600846006840F0020008601A48406869
:1015C000194948600846406848600846406840F449
:1015D000806048600846406820F47C1048600846F7
:1015E000406840F4E81048600846006840F08070A9
:1015F000086000BF0C48006800F000700028F9D0B7
:101600000948406820F003000749486008464068E0
:1016100040F00200486000BF0348406800F00C0042
:101620000828F9D10CBD0000001002400020024043
:101630007047000010B51348006840F001001149E0
:10164000086008464068104908400E49486008464E
:1016500000680E4908400B4908600846006820F4FD
:10166000802008600846406820F4FE0048604FF47F
:101670001F008860FFF768FF4FF0006004490860B2
:1016800010BD0000001002400000FFF8FFFFF6FE52
:1016900008ED00E01D49098801F0200111B31B4944
:1016A000091D0988C8B21A49098801F40041C9B95D
:1016B0001749098801F4804161B10A2803D000214B
:1016C000134A118020E01249098841F40041104A70
:1016D000118019E00D2806D10D49098841F4804197
:1016E0000B4A118010E00A490988C1F30D01094A2B
:1016F000505407490988491C054A11801146098838
:10170000C72901DD0021118070470000004400401E
:10171000000100203C04002010B540F224418E4816
:1017200000F036F900B910BD8B4800888A48001DCA
:10173000008800218948FFF757FE4FF40070FFF73B
:1017400045FE8648FFF75CFE85490968081A854909
:1017500008608549854A1268881882490A68844960
:10176000FEF7C0FD814800687E49096808447F494A
:10177000086000207F490860DAE07B480078AA28EA
:1017800007D17948C078FC2803D177480079FF2831
:101790000CD076480068401E7449086008467249BB
:1017A000491C0268481EFEF79DFDC1E0AA2172484F
:1017B000704A126881546F480068401C6D49086087
:1017C00069484078A22826D0A32845D0A42864D010
:1017D000DD287DD164488078022802DC6248807868
:1017E00001E06648007865490870DD206249614A79
:1017F000126888545F480068401C5E4908605F4872
:1018000000785D495B4A126888545A480068401C59
:101810005849086065E054488078042802DC524842
:10182000807801E05648007855490870A220524956
:10183000504A126888544F480068401C4D4908605F
:101840004F4800784C494B4A126888544948006810
:10185000401C4849086044E043488078022802DC84
:101860004148807801E04748007846490870A32045
:101870004149404A126888543E480068401C3D492E
:101880000860404800783C493A4A12688854394810
:101890000068401C3749086023E0334880780528F9
:1018A00002DC3148807801E037480078364908701A
:1018B000A42031492F4A126888542E480068401CE1
:1018C0002C490860304800782B492A4A126800E009
:1018D00006E0885427480068401C2649086000E05C
:1018E00000BF00BFFC202449224A126888542148C6
:1018F0000068401C1F490860FF211F481D4A1268EC
:1019000081541C480068401C1A4908601748006848
:101910001E4B1B68C21A14481C4B1B68C118FEF7EB
:10192000E1FC1248006819490968401A0F4908602B
:101930000E480068154909688842BFF61EAF08487E
:10194000008881B20548FFF775FD01210348FFF7C4
:101950004BFD00BFE7E600000048004030000240B9
:10196000E4000020F00000200A040020E80000202D
:10197000D8030020F8000020B0000020EC00002078
:10198000ED000020EE000020EF000020F400002019
:1019900070B50246002400230025002040F66A1698
:1019A000B14200D100BFC1F3421501F01F0301266F
:1019B00006FA03F3012D02D19689334006E0022D89
:1019C00002D1168A334001E0968A33400C12012678
:1019D00006FA04F41688344013B10CB1012000E07B
:1019E000002070BD00BFFEE72DE9F04107468846A4
:1019F00016461D460024FFF7A4FD384600F036FACF
:101A0000DA21384600F00EFA384600F064FA414612
:101A1000384600F007FA384600F05DFA384600F024
:101A200025FADB21384600F0FDF9384600F053FA7C
:101A300000BF0BE0384600F0D3F93055681EA042D5
:101A400002DD384600F072F9601CC4B2AC42F1DB32
:101A5000384600F0ADF9384600F025FAFFF772FD80
:101A6000FFF76EFDBDE8F08170B504460025FFF775
:101A700068FD204600F0FAF9DA21204600F0D2F99C
:101A8000204600F028FA0221204600F0CBF920463B
:101A900000F021FA204600F0E9F9DB21204600F0B1
:101AA000C1F9204600F017FA204600F099F90546E2
:101AB000204600F07DF9204600F0F5F9FFF742FDE1
:101AC000FFF73EFD284670BD70B505460E4614462C
:101AD000FFF737FD284600F0C9F9DA21284600F063
:101AE000A1F9284600F0F7F93146284600F09AF9A6
:101AF000284600F0F0F92146284600F093F92846E0
:101B000000F0E9F9284600F0CEF9FFF71BFDFFF7DA
:101B100017FD70BD10B504460523034A0621204673
:101B2000FFF762FF10BD00000201002010B504465F
:101B30000A2230212046FFF7C7FF10BD490050EAB6
:101B4000C12018BF04204A0D18BF40F0010040F228
:101B5000FF72B2EB515F08BF40F00200012808BFDE
:101B60000520704700BF70472DE9FC5F29480478C5
:101B70002402407804432402264880780443B4F5C4
:101B8000000F0ADDA4F1807001F04EF905464FF018
:101B9000964101F053F8814608E0204601F044F9EF
:101BA00005464FF0964101F049F8814649461A48EA
:101BB00001F052F91949009000F0D2FF019000F0B5
:101BC000A3FF07460022164B00F0F2FD054600F089
:101BD000BDFD83460F48C478240200790443B4F560
:101BE000004F0ADD0F49601A01F01EF905464FF05B
:101BF000874101F023F8824609E0A4F59A7001F0CC
:101C000013F905464FF0874101F018F8824658460F
:101C1000BDE8FC9F020100200000FA4300803B4425
:101C2000000018403401010000B5034603E04FF402
:101C30007A7000F005F8181EA3F10103F7D100BD7A
:101C400000EBC001C9004FF0E02251610021916119
:101C50000521116100BF4FF0E021096901F48031D5
:101C60000029F8D004214FF0E022116170470000F4
:101C700010B501210846FFF753FC01210348FFF787
:101C8000DDFB01210248FFF7D9FB10BD0001300048
:101C9000000230001849884206D11849896941F08C
:101CA0000401164A916126E01549884206D113497C
:101CB000896941F00801114A91611CE0114988428B
:101CC00006D10E49896941F010010C4A916112E078
:101CD0000D49884206D10949896941F02001074A26
:101CE000916108E00949884205D10449896941F0B8
:101CF0004001024A91617047000801400010024013
:101D0000000C014000100140001401400018014087
:101D100000BF054A128802F04002002AF9D0C2B280
:101D2000014B1B1D1A8070470044004010B504464B
:101D3000A1890022A06800F0BFFB00F016F8A1887E
:101D40000122206800F0B8FB00F00FF8A188002203
:101D5000206800F0B1FB00F008F8A1890122A0681A
:101D600000F0AAFB00F001F810BD10B50220FFF74B
:101D700067FF10BD1CB504462068FFF78BFFA06805
:101D8000FFF788FF012000900190A1880023012225
:101D9000206800F09DFB012000900190A1890123A3
:101DA0001A46A06800F094FB204600F07CF81CBDA9
:101DB00010B50446A1890122A06800F07DFBFFF761
:101DC000D4FFA1880122206800F076FBFFF7CDFF49
:101DD000A1880022206800F06FFBFFF7C6FF10BD4E
:101DE00070B504460025002618E06806050EA18897
:101DF0000122206800F060FBFFF7B7FFA189A0680F
:101E000000F052FB08B1681CC5B2A188002220680E
:101E100000F052FBFFF7A9FF701CC6B2082EE4DBEE
:101E2000284670BD70B504460D46002616E0EA0946
:101E3000A189A06800F040FBFFF797FFA18801226D
:101E4000206800F039FBFFF790FFA188002220688E
:101E500000F032FB6806050E701CC6B2082EE6DBE9
:101E6000A1890122A06800F027FB70BD10B50446CF
:101E7000A1890122A06800F01FFBA188012220682F
:101E800000F01AFBFFF771FFA1890022A06800F0A3
:101E900013FBFFF76AFFA1880022206800F00CFB0B
:101EA000FFF763FF10BD10B50446A1890022A068AA
:101EB00000F002FBFFF759FFA1880122206800F023
:101EC000FBFAFFF752FFA1890122A06800F0F4FAA3
:101ED000FFF74BFF10BD70B5044600250026A18911
:101EE0000122A06800F0E8FAFFF73FFFA188012275
:101EF000206800F0E1FAFFF738FF08E0681CC5B27F
:101F0000FA2D04DD2046FFF7CEFF012605E0A1896A
:101F1000A06800F0C9FA0028F0D100BFA188002213
:101F2000206800F0C9FAFFF720FF304670BD0000BE
:101F3000C0B04FF4A060FFF7CFFA4FF4E131242096
:101F400000F08CFBFFF794FE002705E0FE4901EB53
:101F50000710FFF70FFF7F1C0A2FF7DBFBA0FEF730
:101F600045F900250026282136A8FEF700FA0024AE
:101F7000A14628212CA8FEF7FAF9A346B1E00027D4
:101F800005E0F14901EB0710FFF7D0FD7F1C0A2F98
:101F9000F7DB0520FFF748FE4FF0000A18E0EA499A
:101FA00001EB0A10FFF760FD01280FD05146F0A0A9
:101FB000FEF71CF901202CA941F82A000020F34962
:101FC00041F82A000120F24941F82A000AF1010AE9
:101FD000BAF10A0FE3DB00272BE02CA850F827000A
:101FE00010BBD94901EB0710FFF794FD0520FFF75F
:101FF0001BFEFFF7B9FDE74908600520FFF714FE57
:10200000E4480068E14941F82700084650F82700F5
:102010000BEB8B01E04A02EBC10141F827000020E5
:10202000DB4941F8270003E000202CA941F82700F4
:102030007F1C0A2FD1DB002707E0D44850F8271077
:10204000284600F08DFD05467F1C0A2FF5DB002792
:102050001DE0CF4850F8270070B94FF07E51CF48AF
:10206000006800F07DFDCD490860C94850F82700A0
:10207000CB4941F8270009E0C54850F82700C84976
:1020800041F827000020C24941F827007F1C0A2F91
:10209000DFDB0021C148006800F092FE07D0BF4896
:1020A0000168284600F0CAFD36A941F82B0000253A
:1020B00036A951F82B0000F027FD07468846B7489F
:1020C000006800F021FD02460B46CDE90078CDE91D
:1020D0002A01B4A0FEF78AF80020B04908600BF18D
:1020E000010BBBF10A0FFFF64AAF002707E036A845
:1020F00050F82710304600F033FD06467F1C0A2FAB
:10210000F5DBAE49304600F099FD8146484600F0C7
:10211000FBFC07463A460B46A9A0FEF767F800BF4E
:102120004FF0000A32E000270BE007EB87009A4AE5
:1021300002EBC00050F82A10204600F011FD0446C2
:102140007F1C0A2FF1DB9D49204600F077FD0446F5
:10215000934850F82A0038B92146484600F048FF15
:102160009C4941F82A0003E000209A4941F82A00DE
:102170000024984951F82A0000F0C6FC07463A4668
:102180000B4695A0FEF732F80AF1010ABAF10A0FE0
:10219000C9DB72E1FFF7AAF9002705E06A4901EB04
:1021A0000710FFF7C3FC7F1C0A2FF7DB0520FFF7A2
:1021B0003BFD4FF0000A14E0634901EB0A10FFF702
:1021C00053FC01280BD001202CA941F82A00002043
:1021D0006E4941F82A0001206D4941F82A000AF1B0
:1021E000010ABAF10A0FE7DB002721E02CA850F81A
:1021F0002700C0B9544901EB0710FFF78BFC0520FD
:10220000FFF712FDFFF7B0FC624908600520FFF7F9
:102210000BFD604800685D4941F8270000205C49DB
:1022200041F8270003E000202CA941F827007F1C7B
:102230000A2FDBDB002012E0554951F8201031B99C
:10224000644951F82010694A42F8201006E0002144
:102250004F4A42F82010654A42F82010401C0A28D4
:10226000EADB6348006800F04FFC074688465F4A97
:10227000516A464A506A00F073FC834600F044FC01
:102280005A4ACDE92A01116A404A106A00F068FCF6
:10229000834600F039FC554ACDE92801D1693B4A13
:1022A000D06900F05DFC834600F02EFC4F4ACDE97A
:1022B00026019169354A906900F052FC834600F08E
:1022C00023FC4A4ACDE924015169304A506900F0A3
:1022D00047FC834600F018FC444ACDE9220111690D
:1022E0002A4A106900F03CFC834600F00DFC3F4A8E
:1022F000CDE92001D168254AD06800F031FC834641
:1023000000F002FC394ACDE91E0191681F4A90682D
:1023100000F026FC834600F0F7FB344ACDE91C01AF
:1023200051681A4A506800F01BFC834600F0ECFB31
:102330002E4ACDE91A011168144A106800F010FC09
:10234000834600F0E1FB55E00000002049494320AE
:10235000696E697469616C697A6174696F6E207302
:1023600075636365737366756C2121210A00000033
:1023700049494320256420436F6E76657274206658
:1023800061696C6564210D0A00000000B003002043
:1023900080010020A000002020020020A4000020D6
:1023A000A8010020206F6B5F73756D3A2566206170
:1023B0007665726167653A25660D0A000000204166
:1023C0006176657261676520616C6C203A202566D4
:1023D0000D0A0000D00100206F66667365745B69AA
:1023E0005D203A202566202020200000F8010020F2
:1023F000A8000020CDE918012048006800F084FB07
:10240000CDE91478CDE91601DDE92A01CDE9120103
:10241000DDE92801CDE91001DDE92601CDE90E0154
:10242000DDE92401CDE90C01DDE92201CDE90A0154
:10243000DDE92001CDE90801DDE91E01CDE9060154
:10244000DDE91C01CDE90401DDE91A01CDE9020154
:10245000DDE91801CDE9000109A0DDE91623FDF74A
:10246000C5FE0A20FFF7E0FB4FF07E5103480068ED
:1024700000F076FB0149086000BF8BE6A800002051
:1024800025662C25662C25662C25662C25662C2594
:10249000662C25662C25662C25662C25662C256643
:1024A0002C25660A0000000002469068084008B12A
:1024B000012070470020FCE702F001031BB1036913
:1024C0000B43036103E0036943EA0143036170477F
:1024D0002DE9F04F0E461D46DDE909C40021002715
:1024E0008846002300BF64E04FF0010909FA01F7B4
:1024F00006EA0708B8455BD10023012A01D0022A69
:102500000AD10CF0030305F0010943EA8903A2F1A3
:10251000010943EAC90318E0BAB90CB9042314E06D
:102520000823D0F80C904FF0010A0AFA01FA29EAC0
:102530000A09C0F80C90D0F80CA004F0010909FABF
:1025400001F94AEA090AC0F80CA0072916D8D0F800
:1025500000904FEA810B4FF00F0A0AFA0BFA29EAB2
:102560000A09C0F80090D0F800904FEA810A03FAF7
:102570000AFA49EA0A09C0F8009019E0D0F8049074
:10258000A1F1080A4FEA8A0B4FF00F0A0AFA0BFA78
:1025900029EA0A09C0F80490D0F80490A1F1080AC9
:1025A0004FEA8A0A03FA0AFA49EA0A09C0F80490CB
:1025B000491C102998D3BDE8F08F00002DE9F041A7
:1025C0000746884614461D46284600F033F8C5F1F4
:1025D000040007FA00F60F20284100EA080006432D
:1025E00006F00F06E21704EBD2625211920002F1DC
:1025F000E022D2F800212146E31704EBD3635B11FC
:10260000A4EB431C012303FA0CF31A432046E317FF
:1026100004EBD3635B119B0003F1E023C3F80021BB
:102620000348005D40EA061001490855BDE8F08105
:1026300000E400E00146072323EA01021202054BF1
:1026400018684FF6FF031840034B18431043014B23
:10265000186070470CED00E00000FA057CB50646F6
:102660000C4600BF2A48806940F004002849886170
:1026700000BF00BF0846806940F00400886100BFC9
:1026800000BF0846C06940F40030C86100BF0120A7
:10269000032100230222CDE9001004211D48FFF789
:1026A00017FF0120032100231A46CDE9001008215D
:1026B0001848FFF70DFF1848704300EB5400B0FBBB
:1026C000F4F516490D800020091D08800846008891
:1026D00008800846008840F0080008800846008806
:1026E00040F0040008800846008840F02000088080
:1026F0000223262203210846FFF760FF0748001D3A
:10270000008840F400500549091D08807CBD000088
:10271000001002400008014040420F000844004001
:1027200010B500290AD00878002807D00548784459
:10273000FEF738FA002801D0002010BD0248784486
:1027400010BD0000660A00005E0A000021F0004291
:10275000A2F16052B2F5801F01F0004328BFD2F110
:102760007F6C0BD95FEA001C43EAC20242EB507057
:1027700018BF704728BF20F001007047B2F5801FD6
:10278000BCBF184670474FEA410C1CF5001F02D22F
:10279000084600F028BC70B500F062F9000000891E
:1027A000FFF7F6BF4FF00040A0F580007047000033
:1027B0002DE9C04130B4DFF8A0C23CEA111418BFC3
:1027C0003CEA131400F0EC8081EA03051CEA1114C2
:1027D00044EAD57418BF1CEA131500F0C780A4EBB7
:1027E00005044FF0004545EAC12145EAC32341EA0B
:1027F000505143EA525304F17F74994204F5003476
:102800004FEAC0204FEAC22208BF904200F09C80ED
:102810004FEA13650FF24016765D4FEA134506FB4B
:1028200005F7C7F1807706FB07F74FEAD737A7FB15
:1028300003687642C8F58038A7FB06CE38BFA8F1FA
:10284000010807FB08E64FF0000EA6FB028CE6FB32
:1028500003CEDCF1000CCEF1004E38BFAEF1010E1C
:10286000A6FB0C584FF000074FF00005E6FB0E8763
:10287000A1FB08C6A0FB07CE16EB0E0645F100052E
:10288000E1FB076515F1E04E7EBFA4F580345FEAF9
:1028900046066D4116F1800745F100054FEA1727FE
:1028A0004FEA066647EA0567A6F1DE46B6F1805FA5
:1028B0004FEA15251FD9384624F0010C05EBC471E9
:1028C000BCF1FE6F01EB0C1102D8F0BCBDE8008139
:1028D00024425CBF01F5801E9EEAC47F02D4F0BC96
:1028E000BDE80081244238D4F0BCA1F1C041BDE86C
:1028F000004100F003B94FEAD22242EA43524FEAC4
:10290000D323A7FB02864FEAD02040EA415007FBC1
:1029100003661EEA0E0F4FEAD12105FB026658BF7F
:10292000A6EB0056B6EB00564FEA520E4EEAC37EB7
:1029300018EB0E0E56EB530EBDD518EB02085E4198
:102940007F1C55F10005B6E74FF480154FF00007E6
:102950004FF000064FF00008ADE7F0BC4FF000006C
:1029600001F1C04101F00041BDE8008111EA0C1FF6
:102970000CEA131500D00CE013EA0C1F00F02580C0
:102980004FF00000F0BC81EA030101F00041BDE816
:102990000081F0BCBDE8004181EA030100F0AEB85F
:1029A000F0BCBDE8004170B500F05AF8097EFC3E6D
:1029B00000F007B881EA03014FF0000001F0004188
:1029C000704781EA030100F099B8F0BCBDE800410E
:1029D0004FF0000021497047FFFDFBF9F7F5F4F2D5
:1029E000F0EEEDEBE9E8E6E4E3E1E0DEDDDBDAD8AA
:1029F000D7D5D4D3D1D0CFCDCCCBCAC8C7C6C5C408
:102A0000C2C1C0BFBEBDBCBBBAB9B8B7B6B5B4B31E
:102A1000B2B1B0AFAEADACABAAA9A8A8A7A6A5A409
:102A2000A3A3A2A1A09F9F9E9D9C9C9B9A999998CD
:102A30009797969595949393929191908F8F8E8E70
:102A40008D8C8C8B8B8A89898888878786858584FD
:102A500084838382828181800000FF070000F87FE9
:102A60000EF1020E2EF0030E5EF8046B364205D412
:102A7000012A43EB030515F5001F12D8012841EB8D
:102A8000010C1CF5001F0CD80ED14FEAD17C15F5B6
:102A9000001F0CEB4C0C0CF1020C08BF4CEBD37C70
:102AA00004E04FF0080C01E04FEAD37C0CEB4C053E
:102AB00026FA05F606F00706B6F1040C06D20EEB70
:102AC000860CBDE870404CF0010C6047DFE80CF06C
:102AD000090B02024FF000414FF00000A1F5002168
:102AE00070BD19461046012851EB010418BFD4F5FA
:102AF000001484BF002001F0004170BD0808A0F55B
:102B000000114FEA3101704743004FEAD30C4FEAFE
:102B10003C0C43401FBF40070CF1605113F0FE4FC7
:102B200070471CF0006F03D100200CF0004170478B
:102B30000CF0004343EA507010B540EACC0000F0BE
:102B40000CFA00BF000000924FEA0001FFF7D6BF69
:102B50004FF000414FF00000A1F500217047000048
:102B600090EA010F48BF81F0004100F14882421A0B
:102B70003CBF801A89184FEAD0524FF07F4C1CEAB4
:102B8000410FA2EBD15318BF9CEA026F00F03B80CB
:102B90004FF0004C4CEA00204CEA012121FA03FCE2
:102BA00010EB0C0C1ED202F1FF325FEA1C2040EB4E
:102BB000C25038BF70471CF07F0F4FEA400C18BF5F
:102BC000BCF17F4F38BF7047C3F12003994008BF65
:102BD00020F00100BCF17F4F38BF7047A0F1C0402A
:102BE00000F001BA4FEA3C00000A40EBC25028BF97
:102BF0001CF0FF0F4FEA400CE6D018BFBCF17F4F2E
:102C000038BF7047EAE79CEA026F05D010EA5C0F14
:102C100008BF00F00040704710B500F09EF900BFFB
:102C200064FBBE3E401058BFC0F14040491058BF41
:102C3000C1F140418142EFF3008070474FF47F0CB7
:102C40001CEAD0121EBF1CEAD11392EA0C0F93EAC1
:102C50000C0F00F0858090EA010F48BF42F48072AB
:102C600040F4000C41F400002CF07F4120F07F4044
:102C700000B58142A2EB03020FF2081CACEB504EF0
:102C8000C0F100009EF800E04FEA4E0E00FB0EFC83
:102C900038BF49004FEA2C1C02F5FA020CFB0EF378
:102CA0004FEACE1E4FEA112C4FEAC1210EEB635EB4
:102CB00042EB22420EFB0CFC4FEA1C5300FB0311BB
:102CC0004FEA112C4FEA01310EFB0CFC4FEADC4CB1
:102CD00000FB0C11C14228BF09184CEB03335DF80F
:102CE00004EB10EB410143EBC250B2F57C0F38BF4F
:102CF000704729D512F0F00F1CBF00F1C04000F062
:102D000000407047008182838485868788898B8C08
:102D10008D8E8F919293959697999A9C9D9FA0A244
:102D2000A3A5A7A8AAACAEB0B2B3B5B7B9BCBEC094
:102D3000C2C5C7C9CCCED1D4D7D9DCDFE2E6E9EC35
:102D4000F0F3F7FAFE0000004FEA400C0CF1807C33
:102D5000BCF17E4F28BF7047B0F1C04000F043B9CE
:102D600090EA010F0CEAD11348BF42F48072624529
:102D700038BF634507D213F47F0F16D080EA0100F5
:102D800000F00040704710B500F0E7F8097EFC3E07
:102D900000F005B880EA010000F00040704780EACA
:102DA000010000F0004000F01EB912F47F0F04BFD4
:102DB0000248704780EA010000F015B90000C07FAA
:102DC00050EA010C00F113801CF5000F58BFBCF550
:102DD000000F01D48842704707D710F5000F58BF85
:102DE00011F5000F15D488427047894270471CF5D1
:102DF000000F04D5BCF5000FF7D5814270474FF0A6
:102E0000807C1CEB400F38BF1CEB410F01D281428C
:102E1000704710B500F0A1F8922449004FF000501F
:102E20004FF08051FFF7FEBE10F0004148BF404216
:102E3000B0FA80F310FA03F2C3F19D030BD051EA0C
:102E4000C35101EB1220530638BF704700F1010057
:102E500008BF20F0010070474FF47F0C1CEAD0122D
:102E60001EBF1CEAD11392EA0C0F93EA0C0F00F07C
:102E7000478090EA010F48BF42F480724FF0004C47
:102E80004CEA00204CEA012102EB0302A0FB0113F3
:102E9000A2F50002002918BF43F001035B0028BF20
:102EA0004FEA330342EB22425FEA132C4CEBC25051
:102EB0002EBFBCEB436FB2F57C0F70474FEA036C3B
:102EC000BCF1004F08BF20F00100B2F57C0F38BF05
:102ED00070470BD582F0FF0212F5803FC8BF7047E4
:102EE00000F1C040D8BF00F00040704700F5000C72
:102EF0005FEA4C0C48BF7047B0F1C04000F073B8B7
:102F000090EA010F0CEAD11348BF42F48072624587
:102F100038BF634504D280EA010000F000407047EA
:102F200010B500F01AF800BF8900013E00F007B8A4
:102F300000F009B85FEA410C5FEA1C6C08D080EA37
:102F4000010000F050B85FEA400C5FEA1C6CF6D15B
:102F50004FF00040A0F5800070470EF1020E2EF0F9
:102F6000030E5EF8044B244204D44FEA4102B2F14E
:102F70007F4F11D84FEA4003B3F17F4F0CD80ED1E9
:102F80004FEAD07CB2F17F4F0CEB4C0C0CF1020CF1
:102F900008BF4CEBD17C04E04FF0080C01E04FEA95
:102FA000D17C0CEB4C0324FA03F404F00704B4F1D5
:102FB000040C06D20EEB840CBDE810404CF0010C62
:102FC0006047DFE80CF0070802024FF00040A0F570
:102FD000800010BD0846420018BFD2F1807288BF41
:102FE00000F0004010BDFF2141EAD050C0057047FD
:102FF00090EA010F48BF81F000413FF5B8AD421A99
:1030000004D882F00042A0EB020011444FEAD052F3
:103010004FF07F4C1CEA410FA2EBD15318BF9CEA42
:10302000026F4AD04FF0004C4CEA00204CEA0121DC
:1030300021FA03FCB0EB0C0C0FD412F0FE0F36D0CB
:103040005FEA4C001DD5001240EBC25038BF7047FC
:103050001CF03F0F18BF70470BE0A2F101025FEABE
:103060001C2040EBC25038BF70471CF07F0F18BFC8
:103070007047C3F12003994014BF401E20F00100A7
:10308000704780084FEA122308BF7047B0FA80FCEF
:10309000A2EB0C02CCF1280C60FA0CF093EA122F90
:1030A00004BF00EBC25070474FEAC3707047130A69
:1030B0005FEADC1008BF7047F6E79CEA026F04D0B5
:1030C00010EA5C0F08BF0020704710B5FFF745FFFE
:1030D00040DFF63E81F000407047FDF7A3BA0000E4
:1030E00002400000000000A00000000005400000B9
:1030F000000000C8000000000C4000000000409CE0
:1031000000000000194000000020BCBE00000000CC
:1031100034400000BFC91B8E00000004B540000011
:10312000504BCFD06607E2CF010000006C41000099
:103130003E8251AADFEEA73401000000D942000010
:10314000DCB5A0E23A301F97FFFFFFFFB445000057
:10315000FD25A0C8E9A3C14FFFFFFFFFFF3F00000F
:103160000000008000000000FF3F00000000008021
:1031700000000000B031000800000020080100003D
:1031800028010008B832000808010020600A000089
:10319000440100081C00000043000000F8FFFFFF8E
:1031A0000C0000000E0000000F0000002E000000C8
:1031B0000008014000800000000C014008000000F1
:1031C0000008014000080000000801400010000055
:1031D0000008014000020000000801400004000057
:1031E000000C014000400000000C01400080000085
:1031F000000C014000100000000C01400020000005
:10320000000C014000040000000C01400008000018
:10321000000C014001000000000C01400200000011
:10322000000801404000000000080140800000004C
:10323000000C014040000000000C01408000000034
:10324000000C014010000000000C014020000000B4
:10325000000000000000000000000000010000006D
:10326000AAAAAAAAAAAAAAAAAAAAAAAAAA000000BC
:10327000000000000000000000000000000000004E
:10328000000000000000000000000000000000003E
:1032900000000000320000000000000002020100F7
:1032A0000000000005000000000000000000000019
:0832B000000000000000000016
:04000005080000ED02
:00000001FF
