:020000040800F2
:10000000C0050020010100085B2B00085F290008E3
:10001000592B0008010C0008C13200080000000044
:10002000000000000000000000000000D12C0008CB
:10003000030C000800000000312C0008D32C00083D
:100040001B0100081B0100081B0100081B01000820
:100050001B0100081B0100081B0100081B01000810
:100060001B0100081B0100081B0100081B01000800
:100070001B0100081B0100081B0100081B010008F0
:100080001B0100081B0100081B0100081B010008E0
:100090001B0100081B0100081B0100081B010008D0
:1000A0001B0100081B0100081B0100081B010008C0
:1000B0001B010008552D00081B0100081B0100084A
:1000C0001B0100081B0100081B0100081B010008A0
:1000D0001B0100081B010008B53200081B010008C5
:1000E0001B0100081B0100081B010008DFF80CD0F1
:1000F00000F06CFC00480047AD3D0008C005002042
:100100000648804706480047FEE7FEE7FEE7FEE7B1
:10011000FEE7FEE7FEE7FEE7FEE7FEE7512D0008FB
:10012000ED000008202A04DB203A21FA02F0002129
:10013000704721FA02F3D040C2F1200291400843F7
:1001400019467047D2B201E000F8012B491EFBD2DC
:1001500070470022F6E710B513460A4604461946D2
:10016000FFF7F0FF204610BD70B5064603F0DEF83D
:10017000046805460A220021304600F066FA2C6029
:1001800070BDF0B480EA0102D40F4200B2EB410F1F
:1001900002D20246084611464A0042D0C30DDDB2E3
:1001A000C1F3C752AD1A202D35DAC1F3160141F45F
:1001B000000204B15242C5F1200602FA06F12A41BA
:1001C0001044B3EBD05F23D0C4B1012DA0EBC350DA
:1001D00009DCF0BC4FF0004202EAC352DBB200F58A
:1001E000000000F073BA400000F1807000EBC350D3
:1001F000A0F1807040EAD170490009E0490841EA65
:10020000C071A0EBC35000F50000400800EBC350E4
:10021000F0BC00F052BA6142012202EB4101001B26
:10022000F6E7F0BC704781F00041AAE780F000409B
:10023000A7E780EA010210B502F00043400022D097
:100240004A001FD0010E01EB1261C0F35600C2F349
:10025000560240F4000042F40002A0FB0220000419
:100260007F39140400D0401C50EA124001D44000F1
:10027000491EC2B20C0604EBD010401C4008802A74
:1002800002D003E0002010BD20F00100002900DAB8
:100290000020184310BD30B480EA010202F000458E
:1002A00030F0004221F0004013D090B1C30DD40DC6
:1002B000C2F31601C0F31600E41A41F4000140F441
:1002C00000027D34914201D3641C00E04900002CFF
:1002D00002DA30BC002070474FF400000023914246
:1002E00001D3891A034340084FEA4101F7D151B1C4
:1002F000914202D14FF0004105E002D24FF00101DE
:1003000001E06FF0010103EBC450284430BC00F061
:10031000D4B9420005D0C0F3C7525242914201DC29
:100320000020704700EBC15070472DE9FE4F81EA75
:10033000030404F0004421F0004100944FF0000B4E
:1003400023F0004350EA01045ED052EA03045BD07C
:10035000C3F30A54C1F30A552C44A4F2F3340194B4
:10036000A0FB0254C1F3130141F48011C3F3130342
:1003700043F4801301FB024400FB034E840A970AF6
:1003800044EA815447EA8357A4FB076802958D0A23
:1003900005FB07854FEA932C04FB0C542705029DAF
:1003A0004FEA065847EA1637B5EB08056EEB070C1F
:1003B000870E920E47EA811742EA8312A7FB0201D9
:1003C000B6EB0B0164EB00042B0D43EA0C335E1813
:1003D00044EB1C50DA465146E7FB0201C5F3130417
:1003E0004FEA0B3343EA14534FEA0432019C43EAC9
:1003F0000603A4F10C040294009CCDE900B400F0C3
:10040000C0F903B0BDE8F08F00200146F9E72DE9FF
:10041000F04D81EA030404F0004B21F0004514463E
:100420004FF0000A23F0004150EA050220D054EAC0
:1004300001021DD0C5F30A570246C5F31303C1F3E9
:100440001300C1F30A5640F4801543F48013A7EB60
:100450000608101BD64608F2FD3873EB050002D3E0
:1004600008F1010801E092185B41B8F1000F03DACE
:1004700000200146BDE8F08D00204FF480110646B3
:1004800084460EE0171B73EB050705D3121B63EBC5
:10049000050306434CEA010C49084FEA3000921864
:1004A0005B4150EA0107EDD152EA030012D082EA23
:1004B000040083EA0501084305D0101BAB4106D2B6
:1004C0000122002306E000224FF0004302E06FF01B
:1004D000010253101AEB06004CEB085110EB0A0016
:1004E00041EB0B01BDE8F04D00F03CB9C10F80EAD3
:1004F000E0700844CA079623002100F0E7B896236D
:100500000022114600F0E2B800F0004220F0004066
:10051000C10DC0F3160040F400007F2901DA00206D
:100520007047962903DCC1F19601C84001E0963975
:100530008840002AF4D040427047C1F30A5210B5F7
:10054000C1F3130140F2FF3341F480119A4201DA02
:10055000002010BD40F233439A42A2F2334203DC42
:100560005242FFF7DFFD10BD904010BD00F0004289
:1005700030F000400AD0C10D01F56071C0F31600E3
:1005800042EA0151C208400711437047002001466A
:1005900070470000002801DBC0F10040002901DBAA
:1005A000C1F1004181427047002801DBC0F10040E9
:1005B000002901DBC1F100418842704730B50B468C
:1005C000014600202022012409E021FA02F59D4283
:1005D00005D303FA02F5491B04FA02F52844151E57
:1005E000A2F10102F1DC30BD2DE9F05F05460020EB
:1005F00092469B4688460646814640241BE0284694
:10060000414647462246FFF78DFD53465A46C01ADB
:10061000914110D311461846224600F0E9F92D1AEF
:1006200067EB01084F4622460120002100F0E0F967
:1006300017EB00094E41201EA4F10104DFDC4846FF
:1006400031462A464346BDE8F09F2DE9F0479146E2
:100650000F4680460446002614F8015B2DB100F0D9
:10066000E9F90068405DC007F6D12B2D02D02D2D91
:1006700018D0641E4A463946204600F0DFF927B1FB
:100680003968A14201D1C7F8008071054FF002041A
:100690000BD54042002803DD02F048FE0460A007AD
:1006A000BDE8F08746F48066E4E70028F8DA02F057
:1006B0003DFE04606FF00040F2E70029A8BF7047DC
:1006C000401C490008BF20F00100704710B4B0FA88
:1006D00080FC00FA0CF050EA010404BF10BC704723
:1006E00049B1CCF1200421FA04F411FA0CF118BF3D
:1006F000012121430843A3EB0C01CB1D4FEA00610C
:100700004FEA102042BF002010BC704700EBC350DE
:1007100010440029A4BF10BC7047401C490008BF0A
:1007200020F0010010BC704710B541000CD0C0F3A0
:10073000C751962908DC7E2909DC06DB410204D07A
:1007400000F0004040F07E5010BD002010BDC1F10F
:100750009604C4F1200100FA01F1E040FFF7ADFF7B
:10076000A04010BD10B5141E73F1000408DA401C3F
:1007700041F1000192185B411A4301D120F00100C0
:1007800010BD2DE9F04D92469B4611B1B1FA81F2B0
:1007900002E0B0FA80F22032904600F029F90446D7
:1007A0000F4640EA0A0041EA0B0153465A46084305
:1007B00013D0114653EA010019D0C8F14002504647
:1007C000FFF7B0FC05460E4650465946424600F03B
:1007D0000FF9084305D0012004E020463946BDE862
:1007E000F08D0020054346EAE0762C4337430A9813
:1007F0006305E40AA0EB08000022FD0A44EA47541E
:100800000A3002D500200146E9E7010510196941C7
:10081000DDE9084500196941BDE8F04DA2E72DE981
:10082000FE4F804681EA0300C00F0C46009021F085
:10083000004123F00045B8EB0200A94105D2404633
:10084000214690461C460B46024623F000401043CA
:1008500047D0270DC7F30A00C3F30A510290401A8C
:10086000019040286BDAC3F3130040F4801B00981A
:10087000924620B10023D2EB030A63EB0B0B0198E5
:100880005946C0F14002504600F0B2F806460D4607
:1008900050465946019A00F0BAF810EB0800614141
:1008A000002487EA115284EAE7731A4340D0009A81
:1008B00062B3019A012A4FEA075215DC001B61EB73
:1008C00002014FF0004202EA0752CDE90042001C4B
:1008D00041F5801132462B46FFF753FF03B0BDE8C8
:1008E000F08F40462146F9E7001B61EB0201001C36
:1008F00041F5801300185B412018A2F5001747EB63
:10090000030140EAD570B6196D4111E06D084FEA58
:10091000360645EAC0754FEA0752001B61EB02013B
:10092000001C41F5801149084FEA3000001951417F
:1009300032462B4603B0BDE8F04FFFF713BF0098D7
:10094000012240000023D0EB020263EBE073009829
:1009500021464FEAE074B8EB000061EB0401E9E7DF
:1009600083F000435BE781F0004158E7C1F30A528E
:10097000C1F3130140F2FF3341F480119A4202DACD
:1009800000200146704740F233439A42A2F23342BC
:1009900002DC5242FFF7C6BB00F02AB830B5041E95
:1009A00071F1000404DB4FF00044404264EB0101AC
:1009B000141E73F1000405DB1C464FF00043524245
:1009C00063EB0403994208BF904230BD064C074DCB
:1009D00006E0E06840F0010394E80700984710340F
:1009E000AC42F6D3FFF786FB5C4100087C4100086F
:1009F000202A04DB203A00FA02F1002070479140DF
:100A0000C2F1200320FA03F3194390407047202AD3
:100A100006DBCB17203A41FA02F043EAE07306E026
:100A200041FA02F3D040C2F1200291400843194636
:100A30007047000000487047584100082DE9F05FFA
:100A400082460078002715468B460AF10104B94614
:100A5000302801D09DB113E014F8010B012778284C
:100A600003D0582801D045B10AE00DB1102D07D1AF
:100A70000027102514F8010B02E0082500E00A25E4
:100A80000026B0460EE005FB080005FB06F1012735
:100A900001EB10461FFA80F8B6F5803F00D3B94647
:100AA00014F8010B294600F018F80028EBDABBF126
:100AB000000F05D00FB1641E00E05446CBF8004093
:100AC000B9F1000F06D002F031FC02210160C81E0E
:100AD000BDE8F09F48EA0640FAE73A2800D23038ED
:100AE00020F02002412A01D3A2F13700884201D32D
:100AF0004FF0FF307047000070B504460068816811
:100B0000C943C90717D1816821F00101816000F054
:100B1000A1FC05460AE000BF00F09CFC401B022837
:100B200004D920688068C043C00706D02068806868
:100B3000C043C007F0D0002070BDA06A40F0100094
:100B4000A062E06A40F00100E062012070BD000098
:100B5000F8B500260446009600688168C943C907B5
:100B60002DD0816841F00101816016481649006866
:100B7000B0FBF1F000E0401E00900028FBD100F037
:100B800069FC054616E000BF00F064FC401B02282B
:100B900010D920688068C043C0070BD0A06A40F01D
:100BA0001000A062E06A40F00100E06284F8246076
:100BB0000120F8BD20688068C043C007E4D1002050
:100BC000F8BD00008800002040420F0010B5094920
:100BD000FFF729FB084C2146FFF72BFB0749FFF7DE
:100BE0005AFBA04201DD204610BD10F1FF4FFBD3A0
:100BF000002010BDEF38E53E0000A041C2F5283EC0
:100C0000FEE7704772B6FEE710B50D4800F030FA07
:100C10000A210B4800F08EF968B9094800F0CCF8B9
:100C2000084CE061FFF76BFC0749FFF702FB07493F
:100C3000FFF731FB2062BDE81040014800F078BAB0
:100C4000B4000020000000203333534000F07F4503
:100C500070B5174C2078022829D116480068C06A60
:100C6000A1686268401C914203D9A1686268891A30
:100C700003E06168A268411A1144E160FFF73FFC9C
:100C80000546E068FFF73BFC2946FFF704FB0A4DE9
:100C90002946FFF7CEFA2061A84201DD284603E08D
:100CA00010F1FF4F00D3002020610020207070BDA4
:100CB000000000202C0100200000C842F8B50024EC
:100CC000009490F824202546012A12D0012280F8B1
:100CD00024204A681F23072A0DD20668776B521E0C
:100CE00002EB820293409F430B6893401F4377635C
:100CF00019E00220F8BD06680D2A0AD2376BD21F10
:100D000002EB820293409F430B6893401F4337637B
:100D100009E0F76A0D3A02EB820293409F430B68A9
:100D200093401F43F7620A68072306680A2A0AD31A
:100D3000F7680A3A02EB420293409F438B68934064
:100D40001F43F76008E0376902EB420293409F437C
:100D50008B6893401F4337610A68102A01D0112A1B
:100D600020D1124B02689A4217D193681B0219D402
:100D7000936843F4000393600968102912D10C4969
:100D80000C4A0968B1FBF2F101EB8101490000E076
:100D9000491E00910029FBD104E0816A41F0200145
:100DA0008162012480F824502046F8BD00240140CF
:100DB0008800002040420F000068C06C70470000AF
:100DC0002DE9F0414FF0000704003D467ED0A06AB7
:100DD000002628B9E66284F82460204600F07EF8F8
:100DE0002046FFF789FEA16AC90600D420B1A06A97
:100DF00040F01000A06269E0A16A21F4885141F03E
:100E00000201A1626268E169237B0A4347EA430168
:100E10000A43A1684FF48077B94209D0012907D06D
:100E20005FF0000194F814C0BCF1010F02D00AE099
:100E30003946F7E7F3B1A36A43F02003A362E36AFC
:100E400043F00103E3622368D3F804C02CF4694C37
:100E50004CEA010CC3F804C021688B68DFF870C04D
:100E600003EA0C0313438B60A168B9420BD001293C
:100E700009D00CE0DFF85CC0A3690CEB43330B43F3
:100E800043F40061DFE7218A0D05A5F5801521688F
:100E9000CB6A23F470032B43CB62216889680E4B25
:100EA0001940914208D1E662A16A21F0020141F0A5
:100EB0000101A162BDE8F081A06A20F0020040F0CB
:100EC0001000A062E06A40F00100E0620120F1E75A
:100ED000FDF7E1FF00E0FFFFFE0E1FFF00B585B04C
:100EE0000021009101910291039100680E4988420E
:100EF00018D10E48816941F400718161816901F462
:100F000000710491816941F0040181618069694641
:100F100000F0040004902020009003200190044879
:100F200000F0A2F905B000BD00240140001002400D
:100F3000000801402DE9F84300270D4604460097BC
:100F400000F088FA804620688168C90508D5A06A43
:100F500040F02000A06284F824700120BDE8F883EE
:100F60004168C90503D4C06A10F4700F2AD002206A
:100F700000F00EFB3B490968B1FBF0F620680369FD
:100F800039490B424FEA61014FEAA1121FD1C368F0
:100F90004FEA611C13EA0C0F19D103690B4225D1EA
:100FA000C068104222D1142023E0681C0AD02DB161
:100FB00000F050FAA0EB0800A84203D920680068AE
:100FC000800725D5206800688007EED52DE00369ED
:100FD0000B4202D1C168114206D0026923490A427C
:100FE00006D1C068084203D1542002E0292000E065
:100FF000FC204643009816E0681C11D02DB100F08B
:1010000029FAA0EB0800A8420AD90098B04207D2FA
:10101000A06A40F00400A06284F8247003209DE7D9
:101020000098401C0090B042E6D321686FF0120097
:101030000860A06A40F40070A06220688068C0F375
:10104000424007280CD1207B50B9A06A20F4807060
:10105000A062A06AC00403D4A06A40F00100A062AC
:1010600000207BE788000020244992244992240034
:1010700070B5044690F8240001280DD0012084F8B2
:1010800024002046FFF764FD02004FF0000005D069
:1010900084F82400104670BD022070BDA16A40F2A1
:1010A0000123994341F48071A1621F4D23681F49B8
:1010B000AB4218D10E6816F4702F14D0A66A46F40D
:1010C0008016A6620E68760505D5A66A26F4005637
:1010D00046F48056A662A66AF6040AD5E66A26F0A9
:1010E0000606E66206E0A66A26F48016A6625E6838
:1010F000E9E7E06284F824006FF0020018602068DD
:101100008368C3F34243072B05D1A84208D109687D
:1011100011F4702F04D0816841F480118160B9E727
:10112000816841F4A001F9E700280140042401404E
:1011300010B5044690F82400012807D0012084F857
:1011400024002046FFF7D8FC10B107E0022010BDB4
:10115000A16A21F4885141F00101A162002184F8C3
:10116000241010BD10B590F821100022022905D0DE
:101170000421816380F82020012010BD01680B68E4
:1011800023F00E030B6001680B6823F001030B6072
:1011900090F84030C46B012101FA03F3636080F8DA
:1011A000211080F82020104610BD000010B590F8E6
:1011B00021100024022903D00421816301243DE091
:1011C00001680A6822F00E020A6001680A6822F0CB
:1011D00001020A601A4A0168914201D1012121E00D
:1011E000174A1432914201D110211BE0144A2832CF
:1011F000914201D1891515E0114A3C32914201D149
:1012000089140FE00E4A5032914202D14FF48031DE
:1012100008E00B4A6432914202D14FF4801101E0A0
:101220004FF08071064A083A5160012180F8211080
:10123000002180F82010416B01B18847204610BD85
:101240000800024070B5044600F004F90546601C31
:1012500002D004480078044400F0FCF8401BA0428F
:10126000FAD370BD7C0000202DE9F84FDFF8B8916B
:101270000024A9F1040B23460F2709F1040AABF15E
:10128000040EC9E00125A5402A40AA427DD1674E3F
:10129000D1F804C0ACEB0608B44532D014DCBCF184
:1012A000030F3AD009DCBCF1000F2AD0BCF1010FCA
:1012B0001CD0BCF1020F31D11DE0BCF1110F17D0D1
:1012C000BCF1120F2AD119E0B8F5881F19D006DC3D
:1012D000B8F5803F15D0B8F5801F1FD111E0B8F5E3
:1012E000001F0ED0B8F5041F18D10AE0CB6815E036
:1012F000CB681B1D12E0CB6808330FE0CB680C33C2
:101300000CE08B682BB1012B4FF0080303D0456133
:1013100004E0042302E0056100E00023FF2A01D875
:10132000064601E000F104064FEA840501D9A5F163
:101330002005D6F8008007FA05FC28EA0C0803FA15
:1013400005F548EA0508C6F800804D68ED0062D54D
:10135000374DAE6946F00106AE61AD6924F0030673
:1013600005F001050095334D06EB050CDCF808503F
:10137000A607360F07FA06F825EA0805DFF8B88051
:10138000404503D14FF0000817E044E0DFF8AC809F
:10139000404502D14FF001080FE0DFF8A48040453E
:1013A00002D14FF0020808E0DFF89880404502D1F2
:1013B0004FF0030801E04FF0040808FA06F848EA85
:1013C0000508CCF808804D68D9F80060ED024D465C
:1013D00001D5164300E096432E604D68DAF80060B0
:1013E000AD02554601D5164300E096432E604D6888
:1013F000DBF80060AD035D4601D5164300E096437F
:101400002E604D68DEF80060ED03754601D5164389
:1014100000E096432E60641C0D682A46E5407FF488
:1014200031AFBDE8F88F0000080401400000111042
:10143000001002400000014000080140000C014083
:1014400000100140001401400AB101617047090415
:10145000FBE7000001488068704700007C00002026
:101460000248816802781144816070477C00002046
:10147000074810B5016841F010010160032000F039
:1014800075F80F2000F006F800F024F8002010BDD9
:101490000020024070B50D4D04464FF47A71287853
:1014A000B1FBF0F00A490968B1FBF0F000F0A4FBD1
:1014B00048B9102C07D200222146501E00F036F801
:1014C00000206C6070BD012070BD00007C00002019
:1014D000880000200C4808B5816941F00101816154
:1014E000816901F001010091C16941F08051C16140
:1014F000C06900F0805000900448416821F0E0612C
:1015000041F00071416008BD001002400000014040
:10151000002809DB00F01F020121914040098000F2
:1015200000F1E020C0F8001170470000F0B40E4B4D
:101530001B680C46C3F30223C3F10705042D00D931
:101540000425191D072901D2002300E0DB1E012616
:1015500006FA05F1491E214099409E40761E16402C
:101560003143F0BC01F0D1BE0CED00E0064900F0C3
:10157000070208684FF6FF03184040EA0220034ABA
:1015800010430860704700000CED00E00000FA0511
:1015900010B501460020234C012922D0022939D060
:1015A00010291DD161682268D20119D51E48C1F3E6
:1015B0008342C903805C0AD561681B4AC1F340417C
:1015C000921E515C194AB2FBF1F1484301E01849FF
:1015D00048436168490203D440000321B0FBF1F0A5
:1015E00010BD226AC2F30121012903D1920701D55E
:1015F000C80310BD022905D1626A920702D549F6D7
:10160000404010BD0329FCD121688903F9D54FF270
:10161000244010BD00F02AF96168C1F38131491CF2
:101620004900DBE7001002408C40000800127A00FD
:1016300000093D002DE9F84305460078354CC00708
:1016400054D0E0690026C00008D4E06940F0805022
:10165000E061E069012600F0805000902E480168AA
:10166000C90512D40168804641F480710160FFF71A
:10167000F1FE074605E000BFFFF7ECFEC01B642843
:1016800023D8D8F80000C005F6D5206A10F44070C1
:1016900021D0A98801F4407181421CD0206A1F49E1
:1016A000012220F440700A6000220A602062C00714
:1016B00011D0FFF7CFFE074641F2883808E000BF9F
:1016C000FFF7C8FEC11B414502D90320BDE8F883DE
:1016D000206A8007F4D5206A696820F440700843C6
:1016E00020621EB1E06920F08050E0612878800718
:1016F00005D56068A96820F44040084360602878F8
:10170000C00605D56068E96820F480000843606081
:101710000020DBE70010024000700040400442421D
:101720002DE9F0470F46050061D0434E306800F0C8
:101730000700B84209D2306820F007003843306013
:10174000306800F00700B84251D128683B4C81074F
:1017500012D5400703D5606840F4E06060602878E7
:10176000000703D5606840F4605060606068A96855
:1017700020F0F000084360602878C00728D068682F
:10178000012810D02168022810D0890700292EDAFC
:10179000616821F0030101436160FFF75BFE804651
:1017A00041F288390DE021688903EFE78901EDE70F
:1017B000FFF750FEA0EB0801494502D90320BDE820
:1017C000F0876068696800F00C00B0EB810FEFD122
:1017D000306800F00700B8420BD9306820F00700ED
:1017E00038433060306800F00700B84201D0012073
:1017F000E5E72878400705D56068E96820F4E060EF
:10180000084360602878000706D56068296920F4DD
:10181000605040EAC100606000F038F86168084A32
:10182000C1F30311515CC8400649086006480068CE
:10183000FFF730FE0020C2E7002002400010024007
:101840009C400008880000208000002004480549D2
:1018500000684968044AC1F30221515CC8407047DE
:101860008800002000100240AC40000804480549F0
:1018700000684968044AC1F3C221515CC8407047FE
:101880008800002000100240AC4000080E4A516859
:101890000E4801F00C03042B11D0082B0FD10C487B
:1018A000C1F38343C903C05C0AD55168084AC1F338
:1018B0004041921E515C054A5043B0FBF1F0704725
:1018C00004494843704700000010024000127A00AB
:1018D0007A40000800093D002DE9F84F040070D05F
:1018E0002078C04DC00749D06868C0F38100012846
:1018F00007D06868C0F38100022809D16868C00376
:1019000006D52868800339D560680028E7D035E01F
:101910006068B0F5803F0BD010B1B0F5A02F11D0AA
:10192000286820F480302860286820F4802002E0B5
:10193000286840F480302860606890B1FFF78AFD25
:1019400006460AE0286840F480202860F0E700BFDF
:10195000FFF780FD801B642873D828688003F7D5C3
:101960000CE0FFF777FD064605E000BFFFF772FDCC
:10197000801B6428F0D828688003F7D420789A4E1A
:1019800080074FF001094FF0000839D5686810F062
:101990000C0F07D06868C0F38100022809D168687D
:1019A000C00306D42868800714D52069012808D10F
:1019B00010E02069B0B1C6F80090FFF74BFD074674
:1019C00005E00AE1FFF746FDC01B0228C4D82868DD
:1019D0008007F7D52868616920F0F80040EAC10067
:1019E00028600DE0C6F80080FFF734FD074604E0EC
:1019F000FFF730FDC01B022823D828688007F7D4E2
:101A0000207800072CD57948A169D9B1C0F8009099
:101A1000FFF720FD074604E0FFF71CFDC01B02286E
:101A20000FD8686A8007F7D571484FF4FA510068FB
:101A3000B0FBF1F0009000BF0098411E0091FAD277
:101A40000EE080E0C0F80080FFF704FD074604E0E8
:101A5000FFF700FDC01B022875D8686A8007F7D41D
:101A60002078400760D5E8690027C00008D4E869FD
:101A700040F08050E861E869012700F08050009054
:101A80005C480168C90513D40168834641F480713C
:101A90000160FFF7DFFC824606E000BFFFF7DAFCDB
:101AA000A0EB0A0064284ED8DBF80000C005F5D58D
:101AB000E06801280AD008B1052813D0286A20F070
:101AC00001002862286A20F0040002E0286A40F041
:101AD00001002862E06841F2883B98B1FFF7BAFC48
:101AE00082460BE0286A40F004002862EEE700BF5F
:101AF000FFF7B0FCA0EB0A0159455AD8286A8007C5
:101B0000F6D50CE0FFF7A6FC824605E0FFF7A2FC45
:101B1000A0EB0A0159454CD8286A8007F6D41FB1BA
:101B2000E86920F08050E861E06988B36968C1F332
:101B30008101022944D00228C6F8608004D0FFF752
:101B400089FC044638E034E0FFF784FC074604E0F3
:101B5000FFF780FCC01B02282BD828688001F7D42F
:101B6000206AB0F5803F05D16868A16820F4003094
:101B700008436860D4E908010843696821F47411D6
:101B800008436860C6F86090FFF764FC044606E00E
:101B900025E000BFFFF75EFC001B022809D828687B
:101BA0008001F7D51BE000BFFFF754FC001B0228A3
:101BB00002D90320BDE8F88F28688001F4D40EE034
:101BC0000128F7D06868226A00F48031914204D17C
:101BD000616A00F47010884201D00120EAE7002019
:101BE000E8E7000000100240000042428004424248
:101BF000880000200070004010B5401EB0F1807FCA
:101C000001D3012010BD4FF0E02460610F21601767
:101C100001F07BFB0020A06107202061002010BDA7
:101C20007047704710B590F83C20012A22D001225D
:101C300080F83C20CA688C6822F4407222434C68C9
:101C400022F4806222430C6822F4006222430C6971
:101C500022F4805222434C6922F400522243C96983
:101C6000002322F480420A4301684A6480F83C3031
:101C7000002010BD022010BD70B590F83C20012A54
:101C800026D0012480F83C40022280F83D200368E1
:101C90005A689D6822F070060A6832435A600D4BFC
:101CA00002689A4208D0B2F1804F05D00A4B9A429E
:101CB00002D00A4B9A4204D1496825F080031943A7
:101CC000916080F83D40002180F83C10084670BDCE
:101CD000022070BD002C01400004004000080040BC
:101CE00010B5040003D094F83D0010B107E00120C6
:101CF00010BD002084F83C00204600F01FF80220B0
:101D000084F83D00211D206801F02AF8012084F8A4
:101D1000460084F83E0084F83F0084F8400084F8D0
:101D2000410084F8420084F8430084F8440084F8B9
:101D3000450084F83D00002010BD000008B5006893
:101D40000649884208D10648816941F400618161F1
:101D5000806900F40060009008BD0000002C014084
:101D60000010024070B5044690F83C0000250128A0
:101D700017D0012684F83C60022084F83D002068DA
:101D8000826822F0770222F47F428260086850283D
:101D900038D00DDC20284FD005DC90B3102811D1AD
:101DA0004AE0022070BD302846D040280AD13BE0EE
:101DB00060282FD070280DD0B0F5805F03D0B0F52B
:101DC000005F12D0012584F83D60002084F83C00BB
:101DD000284670BDCB68D1E90121206801F009F8DF
:101DE0002068816841F0770109E0CB68D1E90121E1
:101DF000206800F0FEFF2068816841F48041816026
:101E0000E1E719E0CA684968206801F0A7F85021A5
:101E1000206806E0CA684968206801F0DDF86021A2
:101E2000206800F0F0FFCEE7CA684968206801F03A
:101E300095F840212068F4E7226801461046F0E753
:101E400070B5044600681649884217D1207F0128E2
:101E500014D1144D287890B1287801280ED1002192
:101E6000204600F028FBA8602068016A21F00A01E2
:101E700001622068016A01620220287070BD0021A1
:101E8000204600F018FB68602068016A21F00A0112
:101E900001622068016A41F0020101620120ECE761
:101EA00000040040000000202DE9F041054690F8B4
:101EB0003C0000260C46012810D0012085F83C008B
:101EC00072B1042A1CD0082A2CD00C2A50D001262A
:101ED000002085F83C003046BDE8F0810220FBE799
:101EE000D4E90012E368286801F04AF8286881699B
:101EF00021F00C01816128688169A26811430FE01B
:101F0000D4E90012E368286801F078F8286881694C
:101F100021F44061816128688169A26841EA022157
:101F20008161D5E72868D4E9002C277B036A016A20
:101F300021F480710162C16923F4007321F003016F
:101F400041EA0C0121F0F00C39074FF400774CEA1C
:101F5000116107EA02221A43C16102622868C1695D
:101F600021F00C01C1612868C169A26811432BE00E
:101F70002868D4E90021E768036AD0F820C02CF46F
:101F8000805CC0F820C0D0F81CC023F400532CF4AF
:101F9000407C4CEA012121F4704C4FF6FF7101EABC
:101FA00007314FF4005741EA0C0107EA02321A43A5
:101FB000C16102622868C16921F44061C161286879
:101FC000C169A26841EA0221C16181E710B504003C
:101FD00003D094F83D0010B107E0012010BD0020AF
:101FE00084F83C00204600F01FF8022084F83D00F1
:101FF000211D206800F0B4FE012084F8460084F81A
:102000003E0084F83F0084F8400084F8410084F8E2
:10201000420084F8430084F8440084F8450084F8C2
:102020003D00002010BD000000B585B000210091EA
:102030000191029103910068114988421ED1114813
:10204000C16941F00201C161C16901F0020104915D
:10205000816941F0040181618069694600F00400F2
:102060000490402000900848FFF7FEF80022114637
:102070001D20FFF75BFA1D20FFF74AFA05B000BDEF
:1020800000040040001002400008014030B5044642
:10209000002551B104290DD0082910D094F8410031
:1020A00094F84520012811D10EE094F83E0094F8F0
:1020B0004220F7E794F83F0094F84320F2E794F8C1
:1020C000400094F84420EDE7012A01D0012030BD02
:1020D000022059B1042912D0082919D084F84100EE
:1020E00084F845000C2938D0012534E084F83E00FE
:1020F00084F842002068C26842F0020210E084F8CE
:102100003F0084F843002068C26842F0040207E000
:1021100084F8400084F844002068C26842F0080255
:10212000C2600122206800F057FE0E4920688842F4
:1021300008D0B0F1804F05D00B49884202D00B493E
:10214000884204D1816801F00701062903D00168A3
:1021500041F001010160284630BD2068C26842F0AC
:102160001002DDE7002C01400004004000080040A0
:102170002DE9F04104460068C66805694FF0000784
:10218000A90713D5B10711D5F91E016101202077E8
:10219000206880698007204602D0FFF751FE04E0E6
:1021A00000F0A4F8204600F036F92777680716D526
:1021B000700714D521686FF00400086102202077B1
:1021C0002068806910F4407F204602D0FFF738FE77
:1021D00004E000F08BF8204600F01DF9277728076F
:1021E00015D5300713D521686FF008000861042069
:1021F00020772068C0698007204602D0FFF720FEC4
:1022000004E000F073F8204600F005F92777E806AF
:1022100016D5F00614D521686FF01000086108206B
:1022200020772068C06910F4407F204602D0FFF775
:1022300007FE04E000F05AF8204600F0ECF827779B
:10224000E80708D0F00706D021686FF001000861A8
:10225000204600F02FF9280608D5300606D521685B
:102260006FF0800008612046FFF7DAFC680608D5A9
:10227000700606D521686FF040000861204600F026
:102280002FF9A8060AD5B00608D521686FF02000FE
:1022900008612046BDE8F041FFF7C3BCBDE8F0810E
:1022A00000B585B000210091019102910391006871
:1022B0000B49884212D10B48816941F004018161C8
:1022C0008069694600F0040004904FF4407000906B
:1022D0000220019003900448FEF7C6FF05B000BD40
:1022E000002C01400010024000080140704770B50A
:1022F000044690F83C0000260D4601280FD001202E
:1023000084F83C006AB1042A1DD0082A2FD00C2A78
:102310003FD00126002084F83C00304670BD0220EA
:1023200070BD206800F078FD2068816941F00801E7
:1023300081612068816921F00401816120688169DF
:102340002A69114311E0206800F08EFD2068816940
:1023500041F4006181612068816921F480618161BB
:10236000206881692A6941EA02218161D2E72068F7
:1023700000F0A6FD2068C16941F00801C161206834
:10238000C16921F00401C1612068C1692A69114352
:1023900011E0206800F0C0FD2068C16941F40061CF
:1023A000C1612068C16921F48061C1612068C1698F
:1023B0002A6941EA0221C161ACE710B5040003D0EB
:1023C00094F83D0010B107E0012010BD002084F812
:1023D0003C00204600F01EF8022084F83D00211D3C
:1023E000206800F0BDFC012084F8460084F83E001F
:1023F00084F83F0084F8400084F8410084F84200EB
:1024000084F8430084F8440084F8450084F83D00D3
:10241000002010BD7047704710B50446022249B134
:1024200004290ED0082913D094F84100012816D0B1
:10243000012010BD94F83E000128F9D184F83E2017
:102440000FE094F83F000128F2D184F83F2008E023
:1024500094F840000128EBD184F8402001E084F892
:1024600041200122206800F0B7FC0F492068884213
:1024700003D1426C42F4004242642068884208D092
:10248000B0F1804F05D00949884202D008498842FE
:1024900004D1816801F00701062903D0016841F0E9
:1024A00001010160002010BD002C0140000400402B
:1024B0000008004070470246002041B1042909D0BD
:1024C00008290AD00C2901D11068006C70471068E7
:1024D000406B70471068806B70471068C06B704726
:1024E0007047704770470000F8B5016804460868F7
:1024F000CA684B6910F00F0F4FF0000559D003F078
:10250000010602F49077374365D0C10705D0D105A5
:1025100003D5616C41F001016164410705D5D9071C
:1025200003D0616C41F002016164810705D5D907D0
:1025300003D0616C41F004016164010707D502F02A
:102540002001314303D0616C41F008016164616C8A
:1025500000293AD0800604D5900602D5204600F026
:1025600097FD20684069616CC0F38010090700D4B2
:1025700060B3204600F065FD20684069400621D523
:102580002068143050E8001F21F0400140E800129C
:10259000002AF5D1E06BA8B16D494163E06BFEF70D
:1025A00005FE002811D0E06B416B01B0BDE8F040A2
:1025B000084783060FD593060DD52046BDE8F840A1
:1025C00000F066BD2046FFF78DFFF8BD2046FFF7FF
:1025D00089FF6564F8BD266B2023012E7CD1C606D9
:1025E0007AD5D60678D508684868009048694FF0D3
:1025F0000206400640D5E16B086840680004000C04
:10260000E8D0A28D8242E5D9E085886920282DD0C6
:1026100020680C3050E8001F21F4807140E800125F
:10262000002AF5D12068143050E8001F21F0010184
:1026300040E80012002AF5D12068143050E8001F4D
:1026400021F0400140E80012002AF5D184F8423020
:10265000256320680C3050E8001F21F0100140E88D
:102660000012002AF5D1E06BFEF77CFD6663A08DB9
:10267000E18D401A81B22AE0A08DE18D401A81B22D
:10268000E08D0028A6D00029A4D022680C3252E8A0
:10269000000F20F4907042E80007002FF5D1206869
:1026A000143050E8002F22F0010240E80027002FEC
:1026B000F5D184F84230256320680C3050E8002FB3
:1026C00022F0100240E80023002BF5D1666320467B
:1026D000FFF707FFF8BDFFE705062BD5150629D53F
:1026E00094F841002128F5D1A068B0F5805F01D1B0
:1026F0002069B0B1206A411C2162216800784860DD
:10270000E08C401E0004000CE084E3D12068C16826
:1027100021F08001C1602068C16841F04001C160C2
:10272000D8E7206A0088C0F308004860206A801C4F
:102730002062E5E74006CDD55006CBD5CA682046D5
:1027400022F04002CA6084F8413000F007F9C1E786
:102750003330000870B5040004D094F8410000251F
:1027600010B106E0012070BD84F84050204600F012
:1027700023F8242084F841002068C16821F4005126
:10278000C160204600F0E6FC2068016921F4904118
:1027900001612068416921F02A0141612068C16816
:1027A00041F40051C1606564202084F8410084F840
:1027B00042006563002070BD30B585B000240094F0
:1027C0000194029403940068184988422BD1184858
:1027D000C16941F40031C161C16901F40031049162
:1027E000816941F0040181618069124D00F00400AB
:1027F0000490042000900220019003200390694679
:102800002846FEF731FD0820CDE900046946284638
:102810000294FEF729FD002211462620FEF786FECF
:102820002620FEF775FE05B030BD000000440040D4
:10283000001002400008014090F84230202B01D0E7
:102840000220704721B11AB10023036300F0DEBCFF
:102850000120704770B500681449884225D1144C96
:10286000144A2046A1784078A1F13003092B05D8FD
:102870001F2812D21154401C60700EE000250A2956
:1028800001D00D2908D115540A48FDF76DFC142814
:1028900002D8FDF72BFEA0636570BDE870400449C7
:1028A0000122891C0448FFF7C7BF70BD00440040E7
:1028B0000000002094000020740100202DE9F8435E
:1028C000044690F84100984616460D46202802D04E
:1028D0000220BDE8F88385B17EB10020606421202C
:1028E00084F84100FEF7B6FDA6848146E684A06820
:1028F0002027B0F5805F02D003E00120E9E72069DE
:1029000010B12E4600250EE000260CE08021204666
:1029100000F097FCA8B9C6B116F8010B2168486011
:10292000E08C401EE084E08C4B464FF00002CDF876
:1029300000800028EAD14FF04001204600F081FCE1
:1029400040B184F841700320C3E735F8020BC0F3AF
:102950000800E3E784F841700020BAE77047FEE71B
:102960003EB5002411480094019402940E498460FD
:10297000016004730475012505614FF46021446012
:10298000C161FEF71DFA08B1FEF73CF90520CDE95B
:102990000005694602940548FEF790F9002801D029
:1029A000FEF730F93EBD000000240140B4000020D5
:1029B000094808B5816941F020018161816901F010
:1029C00020010091816941F004018161806900F07A
:1029D0000400009008BD00000010024010B596B041
:1029E00000240F9410941194129413941C2168469F
:1029F0001494FDF7AEFB202107A8FDF7AAFB2C4895
:102A00002A4901602321C0E901146321C0E90314AC
:102A100044618461FFF764F908B1FEF7F3F84FF4FD
:102A200080500F900FA92248FFF79CF908B1FEF7DC
:102A3000E9F81F48FFF7C1FC08B1FEF7E3F813946B
:102A400013A91B481494FFF717F908B1FEF7DAF839
:102A50006020CDE9000402940394049405940022BC
:102A6000694613480694FFF742FC08B1FEF7CAF81E
:102A7000042269460E48FFF73AFC08B1FEF7C2F897
:102A80000794089409944FF400500A94CDE90B4040
:102A900007A907480E94FFF7C5F808B1FEF7B2F88A
:102AA0000348FFF7FDFB16B010BD0000002C0140ED
:102AB000E400002010B586B0002418480594049462
:102AC0000094019402941449039401604721C0E9E1
:102AD000011440F6C311C0E903148461FFF776FACC
:102AE00008B1FEF78FF8049404A90C480594FFF789
:102AF000C3F808B1FEF786F80120CDE90040029442
:102B00000022694605480394FFF7CEF9002801D05A
:102B1000FEF778F806B010BD000400402C0100203C
:102B20000C4810B50A4901604FF4E13141600021C1
:102B300081600C22C160C0E904128161C161FFF7AC
:102B400009FE002803D0BDE81040FEF75BB810BDB9
:102B50000044004074010020FEE7FEE72DE9F04745
:102B60000446D4E90301FDF75EFB6061A6690746F0
:102B7000DFF8809001213046D4F82480FDF7C9FBAE
:102B80003946FDF753FBE169FDF7FBFAA168FDF754
:102B900050FB054639466068FDF74BFB82463146DF
:102BA0003846FDF740FB2168FDF743FB5146FDF732
:102BB000E8FA2946FDF7E5FA01464046FDF7E1FA55
:102BC0006062A16AFDF7F0FC01D2A06A07E0E16A49
:102BD000606AFDF7DFFC01D2E06A00E0606A6062D3
:102BE000E168C9F84410A069E0616069A061BDE8CE
:102BF000F08700000000002010B50A49FDF713FB24
:102C00000949FDF748FB10F1FF4F01D3002004E014
:102C10004FF07E51884200DD0846BDE81040034970
:102C2000FDF707BB0000A0400000B442DA0FC94026
:102C3000704700002DE9F041054620F00040FDF707
:102C400095FC00221A4BFDF7E2FB0022194BFDF721
:102C50006CFBFDF772FC84B2632C00D96324204620
:102C6000FDF74DFC144F174E1449B861144B3068F2
:102C70008D4208DD4463002259151846FEF7E4FB37
:102C80004FF07E500BE010498D420BD900224FF4DB
:102C900080711846FEF7D8FB306884630B48B86132
:102CA000BDE8F0810021416330688163F8E70000EE
:102CB0000000594000C05840000000200000A04023
:102CC00000080140E40000200000A0C0000080BF18
:102CD0007047FEF7C5BB30B593B028216846FDF7B5
:102CE00038FA14210AA8FDF734FA002501210F95BE
:102CF00010950804CDE90010119512950295022453
:102D00000491CDE907404FF4E01009906846FEF7C2
:102D1000E3FD08B172B6FEE70AA90F2081E8310091
:102D20004FF480600D900E9002210AA8FEF7F8FC87
:102D300008B172B6FEE74FF4804011900F940FA8CF
:102D4000FEF778FC002801D072B6FEE713B030BD64
:102D5000704700000148FFF70BBA00002C0100206B
:102D6000F0B50268194B1A4C1A4D4FF08047984243
:102D700005D0B84203D0A04201D0A84203D122F02E
:102D800070064A683243984205D0B84203D0A04248
:102D900001D0A84203D122F44074CA6822434C698E
:102DA00022F08002224302608A68C2620A6882625C
:102DB000984201D109690163012141610169C90793
:102DC00003D0016921F001010161F0BD002C014037
:102DD000000400400008004010B501F01F0301216D
:102DE000046A99408C430462016A9A40114301626B
:102DF00010BD10B5846842EA032224F47F440A43DC
:102E00002243826010BD826822F070020A4342F0C1
:102E1000070181607047000030B5036A026A22F042
:102E2000010202624268846924F073050C682C4335
:102E300023F002058B682B430A4DA8420BD123F0E7
:102E40000805CB6822F440722B434D6923F004033C
:102E500015438A692A434260846149684163036279
:102E600030BD0000002C014030B5026A036A23F037
:102E700010030362436884690D6824F4E64444EA5D
:102E800005248D6822F0200242EA05120B4DA8426B
:102E90000ED1CD6822F0800242EA05124D6923F47A
:102EA000406343EA85038D6922F0400243EA8503CB
:102EB0004360846149688163026230BD002C014037
:102EC00030B5036A026A22F4807202624268C46901
:102ED00023F4007324F073050C682C438D6843EAD7
:102EE00005230C4DA8420ED1CD6823F4006343EABC
:102EF00005234D6922F4405242EA05128D6923F4FC
:102F0000806342EA05124260C4614968C16303629A
:102F100030BD0000002C014030B5046A026A22F482
:102F2000805202624268C3690D6823F4E64343EAB3
:102F300005238D6824F4005444EA0534064DA84264
:102F400004D14D6922F4804242EA85124260C36195
:102F500049680164046230BD002C014010B5036A69
:102F6000046A24F001040462846924F0F00444EA51
:102F7000021423F00A020A438461026210BD0000B9
:102F800070B5056A046A24F00104046284690F4E76
:102F9000B04208D0B0F1804F05D00D4EB04202D003
:102FA0000C4EB04203D124F00304144301E044F07A
:102FB00001041A0724F0F00444EA126225F00A031F
:102FC00001F00A0119438261016270BD002C0140C9
:102FD000000400400008004010B5036A046A24F0B1
:102FE00010040462846923F0A00324F4704444EACA
:102FF000023243EA01118261016210BD30B5046AF8
:10300000056A25F010050562856925F4407545EAD5
:10301000022222F470454FF6FF7202EA033224F0D6
:10302000A0032A43A02404EA01111943826101622A
:1030300030BD10B5406A0021C185C184FFF752FA46
:1030400010BD01680C3151E8002F22F4907241E864
:103050000023002BF5D10168143151E8002F22F034
:10306000010241E80023002BF5D1016B012909D1B0
:1030700001680C3151E8002F22F0100241E80023D2
:10308000002BF5D1202180F8421000210163704708
:1030900008B590F84210222901D0022008BD8268AC
:1030A0004FF480539A4201D1016921B1816A9A4259
:1030B0001BD04AB10AE00268816A5268C2F3080272
:1030C0000A80816A891C08E0026972B1026852684C
:1030D00002F07F020A70816A491C8162C18D491E1B
:1030E0000904090CC18503D01BE002685268F1E7AE
:1030F0000168CA6822F02002CA600168CA6822F426
:103100008072CA6001684A6922F001024A61202186
:1031100080F8421000214163026B012A03D0FFF7BF
:1031200099FB002008BD016301680C3151E8002FB4
:1031300022F0100241E80023002BF5D101680A6853
:10314000D20602D50A6849680091818DFFF7C9F956
:10315000E7E7000070B5044600680169E26821F401
:103160004051114301612169A06808436169084326
:103170002168CA6841F20C639A430243CA6020681E
:103180004169A26921F44071114341611E492068DF
:10319000884202D1FEF76AFB01E0FEF757FB00EB25
:1031A000C00101EB0012606864218000B2FBF0F303
:1031B000B3FBF1F36FF018067343B2FBF0F5B2FB0B
:1031C000F0F605EB8305322303EB0515B5FBF1F5AE
:1031D000B6FBF1F605F0F00505EB0615B2FBF0F6CF
:1031E000B2FBF0F0B0FBF1F06FF01802504306EBC9
:1031F000800003EB0010B0FBF1F0216800F00F003D
:103200002844886070BD00000038014081628285DA
:10321000C28500214164222180F84210016921B158
:103220000168CA6842F48072CA6001684A6942F063
:1032300001024A610068C16841F02001C1600020BC
:1032400070472DE9F843984617460D460446089EF8
:1032500024E0701C22D0FEF7FDF8A0EB0800B0427D
:103260001AD8CEB12068C168490717D5802D15D06E
:10327000402D13D00168C94309070FD40168002508
:10328000406800902046FFF7DCFE0820606484F868
:1032900040500120BDE8F8830320FBE72068006868
:1032A00035EA000004D00020B842D2D00020F1E777
:1032B0000120F9E70148FFF717B900007401002069
:1032C000FEE700000FB4054B10B503A9044A0298AD
:1032D00000F0C8F910BC5DF814FB0000953D000833
:1032E0008C0000204100080218BF04200A0E18BFFD
:1032F00040F001004FF07F4232EA010108BF40F088
:103300000200012808BF052070470907090E0028A0
:1033100004DB00F1E02080F80014704700F00F009B
:1033200000F1E02080F8141D70470000004870474D
:10333000900000200121FCF7ECBF00210846FCF7BB
:10334000AABF6FF05E010807FCF7E3BF2DE9F04D5F
:103350000D4614464FF07F41B1EB440F9EBF4FF036
:10336000FF312960BDE8F08D4FF0004040EA0421B4
:10337000C4F3C750783810F01F024A4B4FEA601C64
:10338000C2F120067B44C4F3C750A0F178004FEA95
:10339000601003EB800053F82C3008BFD0E901C661
:1033A00012D0D0F804C093402CFA06F73B4387684C
:1033B0000CFA02FC27FA06F8C06807FA02F2F0409D
:1033C0004CEA080C42EA0006A3FB0132ACFB01C048
:1033D000A6FB016101EB0C068E4234BF4FF0010CDD
:1033E0004FF0000CC1186144BCF1000F02D08142C3
:1033F00002D903E0814201D2012000E00020104404
:1034000000F120024FEA92188006CA0C40EA4230CE
:103410004F03C5F80080FDF769F882463846FDF78E
:103420006EF86FF01201FCF774FF07463046FDF7A7
:1034300066F86FF02501FCF76CFF8346394650466D
:10344000FCF79FFE5946FCF79CFE00F500666FF303
:103450000B0651463046FCF7E6FE3946FCF7E3FE24
:103460005946FCF7E3FE1049FCF7E3FE07460F4917
:103470003046FCF7DEFE3946FCF783FE07460C4972
:103480003046FCF7D6FE3946FCF77BFE14F0004FC1
:1034900008BFBDE8F08DC8F1805180F00040296080
:1034A000BDE8F08D2C0D0000DB0FC92F22AAFD29ED
:1034B0000000C92F02E008C8121F08C1002AFAD173
:1034C00070477047002001E001C1121F002AFBD1A4
:1034D000704700000149086070470000900000201C
:1034E0002DE9FF5F82B00021DDE90430020DDDF837
:1034F00040B0034318D044F61050A2F2FF324243CA
:103500001514119801281FD0A5EB0B00401C5FEA91
:10351000000A4FF000064E4FDFF83891B046504693
:1035200015D5CAF1000413E0119801244AA301281B
:1035300001D16FEA0B010298119AC0E90031C0E98C
:10354000024206B0BDE8F09FCBF10000DFE7044681
:103550000021404A491842EB0450CDE9001012E026
:10356000E00707D032463B4640464946FCF7DDFEC1
:103570008046894632463B4610461946FCF7D5FE42
:1035800006460F466410002CEAD1DDE90401DDE9AE
:103590000023BAF1000F06DAFCF7C7FE42464B469D
:1035A000FCF7C3FE05E0FCF732FF42464B46FCF752
:1035B0002EFF04460E460022284BFDF7EFF903D8F4
:1035C0004FF0FF30014607E00022254B20463146F0
:1035D000FDF725F9FDF7CAF9102409E0002C0ADBF4
:1035E0000A220023FDF700F8039B30321A55641EAF
:1035F00050EA0102F2D1641C039AC4F1110314448D
:10360000119A012A03D0012208430DD10AE0084390
:1036100004D000204FF0110B119072E7A3EB0B05C3
:103620006D1E0DE05B4504DD4FF0000205F1010564
:1036300004E003DA4FF00002A5F10105002AECD006
:1036400002981199C0E90231C0E9004579E700000C
:10365000000014400000F03F300000000000F04384
:103660000000E03F2DE9FF4F95B09B468946064696
:1036700000250FE2252877D100242746F84A0121AA
:10368000059400E0044316F8013F203B01FA03F0E3
:103690001042F7D130782A2811D06FF02F033078FC
:1036A000A0F13002092A16D8059A44F0020402EB70
:1036B000820203EB42021044761C0590EFE759F8B2
:1036C000042B0592002A03DA504244F4005405907A
:1036D00044F00204761C30782E2816D116F8010F1B
:1036E00044F004042A280DD06FF02F023078A0F1A6
:1036F0003003092B09D807EB870302EB4303C718F4
:10370000761CF3E759F8047B761C30786C280FD0D0
:1037100006DC4C2817D068280DD06A2814D104E0A4
:10372000742810D07A280FD10DE044F400140AE078
:1037300044F4801401E044F440147278824202D1CF
:1037400004F58014761C761C307866280BD013DCC8
:10375000582877D009DC002875D04528F6D04628AF
:10376000F4D047281AD19DE118E0632835D06428A9
:1037700079D0652812D195E1702873D008DC6728CC
:10378000F1D069286FD06E280DD06F2806D1B5E032
:1037900073282CD0752875D0782874D05A4617997C
:1037A00090476D1C75E1C4F30250022809D003282C
:1037B0000DD0D9F8001004280DD00D6009F10409CE
:1037C00067E1D9F80010EA17C1E90052F6E7D9F825
:1037D00000100D80F2E70D70F0E719F8041B8DF86A
:1037E000001000208DF80100EA46012003E059F89E
:1037F00004AB4FF0FF3061074FF0000102D40DE041
:1038000008F101018846B9420FDA8045F8DB1AF861
:1038100008100029F4D108E008F10101884681422E
:10382000FADB1AF808100029F6D105985B46A0EBE0
:10383000080721463846179A00F094FA284400EB0E
:10384000080507E04DE029E10DE01AF8010B5A46A2
:1038500017999047B8F10108F7D25B4621463846E0
:10386000179A13E142E00A220092C4F302524FF089
:10387000000A022A08D059F804CB032A4FEAEC7157
:103880000AD00DE029E02AE009F1070121F0070242
:10389000F2E802C1914609E00FFA8CFC4FEAEC71A4
:1038A000042A03D14FFA8CFC4FEAEC71002907DAA5
:1038B0000A460021DCF1000C61EB02012D2202E03E
:1038C000220504D52B228DF80420012203E0E20713
:1038D00001D02022F7E7904659E00A2102E01022A9
:1038E0000DE010214FF0000A00910BE010224FF084
:1038F000000A44F004040827009203E008224FF075
:10390000000A0092C4F30252022A05D059F804CBEF
:103910000021032A08D009E009F1070121F007027C
:10392000F2E802C1914605E01FFA8CFC042A01D19D
:103930000CF0FF0C4FF00008220728D5702806D0A5
:10394000009B83F0100353EA0A0305D00EE04022E7
:103950008DF80420012208E05CEA010206D0302242
:103960008DF804208DF8050002229046009B83F01C
:10397000080353EA0A030AD15CEA010201D1620793
:1039800005D530228DF804204FF001087F1E5828FD
:1039900004D034A003900EA802900DE036A0F9E701
:1039A00053466046009AFCF71FFE84460398825CEB
:1039B0000298401E029002705CEA0100F0D1029869
:1039C00006A9081A00F1200A600702D524F4803401
:1039D00000E00127574502DDA7EB0A0000E00020C8
:1039E00000EB0A01009005984144401A0590E0035D
:1039F00006D45B462146179A059800F0B3F90544B2
:103A0000002706E001A85A46C05D179990476D1C33
:103A10007F1C4745F6DBE0030CD55B462146179A31
:103A2000059800F09FF9054404E030205A461799A4
:103A300090476D1C0099481E00900029F5DC08E0B5
:103A4000029802995A460078491C029117999047AA
:103A50006D1CBAF10001AAF1010AF1DC65E1000078
:103A60000928010030313233343536373839616254
:103A70006364656600000000303132333435363718
:103A800038394142434445460000000000F058F9EF
:103A90000544761C307800287FF4ECAD19B0284638
:103AA000BDE8F08F620700D4062709F1070222F073
:103AB000070CFCE80223E14603F000485FEA080C2B
:103AC00002D00FF2702C0DE05FEA045C02D50FF219
:103AD000682C07E05FEAC47C02D00FF2602C01E0A2
:103AE000AFF2700C4FF0FF3823F00043CDF850C018
:103AF00065280CD006DC452809D046281DD047286B
:103B00003DD13DE0662818D067287ED138E00021FD
:103B1000112F01DB112000E0781CCDE9000106A97E
:103B20000EA8FFF7DDFCDDE90F010E9A03910021DD
:103B3000009207F1010A04914DE04FF00040009718
:103B4000CDE9011006A90EA8FFF7CAFCDDE90F02B6
:103B500003920E9B11990022DDF80CA000930492B1
:103B600011B9791C00EB010AB7EB0A0004D4C0F1CB
:103B7000FF3007F1010A0490AAEB0700019044E02E
:103B8000012F00DA01270021112F01DD112000E0B3
:103B90003846CDE9000106A90EA8FFF7A1FCDDE932
:103BA0000F010E9A0391002104910092BA46210759
:103BB0000CD40399514500DA8A46BAF1010F05DDAC
:103BC000009AAAF10101515C302908D0B84202DA0A
:103BD00010F1040F06DA0121CDE9011015E0AAF178
:103BE0000101E9E7002805DC049901440491AAEBEE
:103BF000000102E0411C514500DD8A460499401A4B
:103C0000401C01904FF000400290200704D401981E
:103C1000504501DBCDF8048000208DF84F0002985C
:103C20000DF14F07B0F1004F25D02B200E900298D8
:103C30004FF0020800280CDA404202902D200E902E
:103C400007E00A210298FCF7B9FC3031029007F82E
:103C5000011DB8F10001A8F10108F2DC029800286A
:103C6000EFD1791E0E980870307800F0200040F0F7
:103C7000450007F8020D12A8C01B00F107081498B0
:103C8000007800B1012000EB0A01019801EBE0711E
:103C900005984144401A401E0590E00306D45B4657
:103CA0002146179A059800F05DF8054414980078AD
:103CB00018B15A46179990476D1CE00324D55B460E
:103CC0002146179A059800F04DF805441CE0049829
:103CD000002807DBDDE90301884203DD0098405C32
:103CE000179901E0179930205A469047049805F13A
:103CF0000105401C04900198401E019004D12E2023
:103D00005A46179990476D1CBAF10001AAF1010AB1
:103D1000DDDC05E017F8010B5A46179990476D1C3A
:103D2000B8F10001A8F10108F4DC5B462146179ABE
:103D30000598ABE62D0000002B00000020000000DD
:103D40002DE9F041044600251E461746880404D498
:103D500005E039462020B0476D1C641EF9D5284681
:103D6000BDE8F0812DE9F041044600251E4690464D
:103D7000C80301D5302700E02027880404D505E0DA
:103D800041463846B0476D1C641EF9D52846BDE84B
:103D9000F081000013B54FF0FF330122694602485D
:103DA000FEF78CFD00981CBD740100208CB0FDF75F
:103DB0005FFBFEF790FFFEF7FBFDFEF70FFEFEF741
:103DC00079FEFEF7CDFDFEF7ABFE012238493948FA
:103DD000FEF732FD00213848FEF758F90021374838
:103DE000FEF71AFB04213548FEF716FB3348002185
:103DF00002685163006881632D4CA41EFCF704FF28
:103E0000206AFCF7E3FE6062FCF722FF2069FEF700
:103E1000F3FE00F06DF82A49FCF70BFA2949FCF78C
:103E2000B0F9234D60614A35E860606A2861284630
:103E3000FEF794FE686AFEF7FDFEA069FCF796FBAC
:103E400083460491606BFCF791FB81468A46206AA9
:103E5000FCF78CFB07468846686AFCF787FBCDE9D0
:103E600002016869FCF782FBCDE90001606AFCF79A
:103E70007DFB05460E466069FCF778FB0B4604990E
:103E80000246CDE90AB106A880E88007DDE9020113
:103E9000CDE90401DDE90001CDE90056CDE90201DB
:103EA00009A0FFF70FFA0420FDF7CCF9A6E7000000
:103EB00002000020740100202C010020E4000020FA
:103EC0000000E040000020415461726765743A25AB
:103ED0002E32662C252E34662C252E32662C252E6D
:103EE00032662C25662C25662C25660A000000000B
:103EF0002DE9F8430446024652486946B0EB420FAA
:103F000009D94FF0E640B0EB420F94BF00204FF0CC
:103F1000FF30009030E04C4B22F00040834271D9DA
:103F20004A492046FCF785F9FCF7FEFB8046FCF782
:103F3000EBFA00F00300009045494046FCF779F9A0
:103F4000054644494046FCF774F906464249404656
:103F5000FCF76FF9074641494046FCF76AF92146EC
:103F6000FCF764F93946FCF75EF93146FCF75BF97A
:103F70002946FCF758F904462546009C002C45DBF1
:103F8000294614F0010F08461ED0FCF752F90546E9
:103F90003349FCF74EF93349FCF7F3F82946FCF7AF
:103FA00048F93149FCF7EDF82946FCF742F94FF0A2
:103FB0007E51FCF7E6F814F0020F08BFBDE8F88365
:103FC00080F00040BDE8F883FCF733F90646274946
:103FD000FCF72FF92649FCF729F93146FCF729F9B6
:103FE0002449FCF7CEF83146FCF723F92946FCF7C3
:103FF00020F92946FCF7C5F814F0020FE0D1BDE81E
:10400000F883FFE71046FFF7A1F9B4E76800B0F1C5
:104010007F4F09D22846FFF765F9042808BFFFF74C
:1040200090F92846BDE8F88306D10120FFF752FA3F
:10403000BDE8F843FFF781B92846BDE8F843FFF72C
:1040400079B90000B61F927E490E494683F9223F96
:104050001A61342C0020A23300A0FD390000C93FB2
:10406000B93AB2BACA9F2A3DDDFFFFBE336D4C3963
:10407000DA82083CA0AA2ABE010202030405060750
:1040800008090A0B0C0D0E0F1010010202030405A3
:10409000060708090A0B0C0D0E0F10100000000097
:1040A00000000000010203040607080900000000E8
:1040B00001020304000000006E83F9A22915444E9A
:1040C000D15727FCC0DD34F5999562DB4190433C24
:1040D000AB6351FE004040404040404040404141C1
:1040E00041414140404040404040404040404040CD
:1040F0004040404040050202020202020202020267
:104100000202020202202020202020202020200263
:1041100002020202020290909090909010101010F3
:10412000101010101010101010101010101010108F
:104130000202020202028888888888880808080823
:1041400008080808080808080808080808080808EF
:104150000202020240000000D54000087C41000835
:104160000000002094000000B43400081042000851
:10417000940000202C050000C4340008000000005A
:10418000000000000000000000000000000000002F
:1041900000002041000000000000000000000000BE
:1041A0000000000000000000FFFFFFFF0000000013
:1041B000000000000000204100000000000000009E
:1041C0000000000000000000000080403333333F57
:1041D0000000003F000000000000000000000000A0
:1041E00000000000000000000000000000000000CF
:1041F0000000C8420000C8C201000000100000001A
:104200000000000000127A00000000000000000022
:04000005080000ED02
:00000001FF
