:020000040800F2
:1000000020060020593D0008A93C0008AB3C000830
:10001000AD3C0008AF3C0008B13C00080000000007
:10002000000000000000000000000000B33C0008D9
:10003000B53C000800000000B73C0008B93C0008CF
:100040007D3D0008813D0008853D0008893D000890
:100050008D3D0008C53C0008913D0008953D000815
:10006000993D00089D3D0008A13D0008A53D000800
:10007000A93D0008AD3D0008B13D0008B53D0008B0
:10008000B93D0008BD3D0008C13D0008C53D000860
:10009000C93D0008CD3D0008D13D0008D53D000810
:1000A000D93D0008DD3D0008E13D0008E53D0008C0
:1000B000E93D0008ED3D0008F13D0008F53D000870
:1000C000F93D0008FD3D0008013E0008053E00081E
:1000D000093E00080D3E0008113E0008153E0008CC
:1000E000193E00081D3E0008213E0008253E00087C
:1000F000293E00082D3E0008313E0008353E00082C
:10010000393E00083D3E0008413E0008453E0008DB
:10011000493E00084D3E0008513E0008553E00088B
:10012000593E00085D3E0008613E0008653E00083B
:10013000693E00086D3E0008713E0008753E0008EB
:10014000793E00087D3E0008813E0008853E00089B
:10015000893E00088D3E0008913E0008953E00084B
:10016000993E00089D3E0008A13E0008A53E0008FB
:10017000A93E0008AD3E0008B13E000800000000A6
:10018000B53E0008B93E00082DE9F04F80460FF259
:100190001C60A5B017461D46D0E90023CDE9122307
:1001A000002004910D900DF1500A6FF0004900E01D
:1001B000E7190020ADF8020012AB4FF0FF323946CC
:1001C0000DF1020001F089F80446012C04DA3878B8
:1001D000441EA441E443E40FBDF8020025280CBFEF
:1001E000A4F1010BA346BBF1010F0EDB3E4616F84E
:1001F000011B0498C0470028049000F0D2820D989B
:10020000401CBBF1010B0D90F1D1BDF80200252877
:1002100007D100200790089009900A900B900C904D
:1002200005E00028C4D10D98BDE240F0010017F8A8
:10023000011F2029F9D023290DD02B2904D02D29E5
:1002400006D030290AD00CE040F0020080B2EEE780
:1002500040F00400FAE740F00800F7E740F0100033
:10026000F4E72A290ED12968296051F8042B296066
:10027000002A0F9204D5514240F004000F9180B241
:100280007F1C11E000210F9109E00F99494505D02D
:1002900001EB810302EB430130390F917F1C3A7867
:1002A000A2F130010A29F0D339782E2903D04FF07A
:1002B000FF310E911DE017F8011F2A2907D1296887
:1002C00029607F1C51F8042B29600E9211E0002157
:1002D0000E9109E00E99494505D001EB810302EB2F
:1002E000430130390E917F1C3A78A2F130010A297E
:1002F000F0D3ADF840000FF2BC40397800F0FEFFBB
:1003000008B117F8010B8DF842009DF842006828EB
:1003100002BF39786829622005D06C2804BF38787C
:100320006C2803D171208DF842007F1C14A8069020
:1003300017F8014BB4F125002AD01C3800F0CB800F
:10034000001F022840F2C780133800F0EC80093803
:1003500000F0C180801E00F05381401E00F02C810F
:10036000401E022840F2B780001F00F02581401F88
:1003700000F08280401E00F0D680401E2CD0C01EAF
:100380000BD0801E00F0CF80C01E00F0CC805AE160
:1003900025208DF8500001205EE19DF842006C2878
:1003A0002868286014D050F8046B286005960E9CCD
:1003B000002C04D5304600F0ADFF044606E022468E
:1003C0000021304600F0C2FF00B1841B089444E1D4
:1003D00050F8042B28602FE1296829603C2451F84B
:1003E000040B29600021CDE9020114A80590DDE984
:1003F0000201069E11B908B90E9AB2B10206120F97
:10040000A0EB02123032D2B2631E3A2AA8BF2732C2
:1004100000099A5540EA0170090908BF00281C46E6
:1004200003D0059AA3199A42E8D3A0190590C4F104
:100430003C010E980891814209DA401A0A904FF661
:10044000EF71BDF840000840ADF8400005E100281C
:1004500040F103819DF8400000F01400102840F0A6
:10046000FC800F98079A801A0A9A801A441A012C65
:10047000C0F2F3800A94F0E09DF8420062281AD09E
:10048000682806D06A280CD06C281CD0712808D0A7
:1004900019E02868286050F8041B28600D9808802F
:1004A000DBE02868286050F8042B28600D98C117FD
:1004B000C2E90001D1E02868286050F8041B2860D8
:1004C0000D980870C9E02868286050F8041B28605F
:1004D0000D980860C1E02868C01D20F007022A605E
:1004E000D2E9000108322A60CDE90201002902D5D3
:1004F00007982D210AE0BDF84000810702D5079832
:100500002B2103E0C00705D50798202100F80A1029
:10051000401C079014A8079908180590214602A8C6
:1005200000F090FB99E09DF842006C280DD07128F6
:1005300018BF6A2809D12868C01D20F007022A6068
:10054000D2E9000108322A6005E02968296051F8E3
:10055000040B29600021CDE902019DF842006828C2
:1005600003D1DDE9020180B20BE0622803D1DDE9AD
:100570000201C0B205E0742818BF7A2804D1DDE971
:1005800002010021CDE902019DF8400000072ED5AF
:10059000DDE90201002908BF002828D044F020002E
:1005A000782824D10798302100F80A10401C411CFB
:1005B000079100F80A401AE09DF84200294600F031
:1005C000FDF8CDE90201002902DA07982D210AE0A1
:1005D000BDF84000810702D507982B2103E0C00732
:1005E00005D50798202100F80A10401C079014A890
:1005F000079908180590214602A800F09FFA2CE000
:100600009DF842006C2809D00120079028682860D6
:1006100050F8041B28608DF850101EE028682860F0
:1006200001AA50F8041B2860ADF804100020ADF8B2
:1006300006004FF0FF300E9002A9404600F0F5F89A
:1006400000280AD5ADE025208DF850000120079044
:100650001CB18AF80140022007900F980799401AB0
:100660000A99401A0899401A0B99401A0999401A98
:100670000C99441A9DF84000400710D420208DF8B2
:100680000000002609E001236A4602A9404600F066
:1006900000FE002840F08580761CA642F3DB079E12
:1006A0000DF1500B0AE01BF8011B0498C04700280D
:1006B000049076D00D98401C0D90761E002EF2D13D
:1006C00030208DF800004FF0000B0A9E09E0012356
:1006D0006A4602A9404600F0DCFD002861D10BF11A
:1006E000010BB345F3DB089EDDF814B00AE01BF8FC
:1006F000011B0498C0470028049052D00D98401C5C
:100700000D90761E002EF2D130208DF800004FF0B3
:10071000000B0B9E09E001236A4602A9404600F047
:10072000B8FD00283DD10BF1010BB345F3DB059873
:100730000899099E01EB000B09E01BF8011B0498C6
:10074000C047049068B30D98401C0D90761E002E93
:10075000F3D130208DF800004FF0000B0C9E08E024
:1007600001236A4602A9404600F093FDC8B90BF187
:10077000010BB345F4DB9DF8400040077FF519AD50
:1007800020208DF80000002600E0761CA642BFF66F
:1007900010AD01236A4602A9404600F07AFD002808
:1007A000F3D04FF0FF3025B0BDE8F08F000000001F
:1007B00000000000686A6C747A4C0000622826D041
:1007C00068281DD06A2808D06C2827D0712804D04A
:1007D000742823D07A280CD020E00868C01D20F0AF
:1007E00007000860D0E90023083008601946104669
:1007F00070470A680A6052F8040B0A6000217047CB
:100800000A680A6052F8040B0A6000B20BE00A683A
:100810000A6052F8040B0A6040B204E00A680A60F9
:1008200052F8040B0A60C11770472DE9F44F0D46CA
:1008300094B0D5F830B0BBF1000F804648BF6FF0E0
:10084000004B00F0AFFD696B401801900FF670206F
:10085000D0E90023CDE9022395F83800400702D4FF
:100860000198412806D240200DF1100A01904FF066
:10087000000909E000F09CFD5FEA000AF7D14FF0A3
:10088000FF3058E1ABEB040BBBF1010FC0F2CD80A0
:100890001498018802AA0DF1010000F0E1FD002882
:1008A000044600F1D5801498008810B9641E00F148
:1008B000CF80A345C0F2B98068690199221891429E
:1008C00080F0A180296AC5F834904042401AA96995
:1008D000401A696A401AE969401AA96AA0EB01093D
:1008E00095F83800400710D420208DF8000000262D
:1008F00009E001236A462946404600F0CAFC002868
:1009000040F0A680761C4E45F3DB6E6957460BE03F
:1009100017F8011BA868C0470028A86000F098805D
:10092000E86A401CE862761E002EF1D130208DF876
:10093000000000272E6A09E001236A462946404646
:1009400000F0A7FC002840F083807F1CB742F3DB57
:10095000AE69EF680AE017F8011BA868C0470028D5
:10096000A86075D0E86A401CE862761E002EF2D1BD
:1009700030208DF8000000276E6A08E001236A46E7
:100980002946404600F085FC002861D17F1CB74213
:10099000F4DBE868A969EE690F180AE017F8011B93
:1009A000A868C0470028A86052D0E86A401CE862E6
:1009B000761E002EF2D130208DF800000027AE6A9E
:1009C00008E001236A462946404600F062FC002800
:1009D0003ED17F1CB742F4DB95F8380040070ED5B6
:1009E00020208DF80000002607E001236A462946F2
:1009F000404600F04EFC58BB761C4E45F5DB4FF0F0
:100A00000009C5F81490224668690DF101015044AF
:100A100000F034FD6869201868611498801C1490F7
:100A2000801E008800287FF42DAF686B6969401A2A
:100A3000296A401AA969401A696A401AE969401A84
:100A4000A96A471A95F83800400710D400240CE032
:100A50004FF0FF3968E0A8682021C0470028A8604F
:100A6000F6D0E86A401CE862641CBC42F3DB6B69A8
:100A700052462946404600F00CFC0028E8D12C6A7A
:100A8000002609E0A8683021C0470028A860DFD010
:100A9000E86A401CE862761CA642F3DBAB69EA68B0
:100AA0002946404600F0F5FB0028D1D16C6A0026AB
:100AB00009E0A8683021C0470028A860C8D0E86ACB
:100AC000401CE862761CA642F3DBE868A969EB6982
:100AD0000A182946404600F0DCFB0028B8D1AC6A71
:100AE000002609E0A8683021C0470028A860AFD0E0
:100AF000E86A401CE862761CA642F3DB95F83800F1
:100B000040070DD5002409E0A8682021C04700282F
:100B1000A8609DD0E86A401CE862641CBC42F3DB1C
:100B2000C5F81490C5F8349004A882451CBF5046FF
:100B300000F0E0FC484615B0BDE8F08F2DE9FA4E14
:100B400005460A462F696F2A08BF082405D041F0E0
:100B50002000782814BF0A2410243C26D5E900017F
:100B6000642A18BF692A81468A4605D1002903DA1A
:100B7000D9F100096AEB4A0ABAF1000F08BFB9F1CE
:100B8000000F0CD1286B50B9082C36D195F83800DD
:100B9000000732D530203B2687F83B002DE0E317D5
:100BA00048465146224600F0E5FCA4FB0023A9EB91
:100BB00002023032D2B2A6F1010B3A2A5E4603DBC2
:100BC0009DF80030513B9A180BF8072081465FEAE8
:100BD000010A08BFB9F1000F03D0E868F119884293
:100BE000DDD3082C09D195F83800000705D5F05D54
:100BF000302802D0761E3020F055C6F13C00A861A6
:100C0000F119E960296B884208DA081A28624FF660
:100C1000EF71288F08402887BDE8F38E00290ED594
:100C200095F8381001F01401102908D1696B6A6930
:100C3000891A2A6A891A0E1A012EA8BF2E62BDE8E7
:100C4000F38E00002DE9F24F04468EB0D4E9000186
:100C5000CDE9020104AF9DF8380040F0200BBBF154
:100C6000610F0AD0206B002848BF062004D408BFBB
:100C7000BBF1670F01D1012020636168C1F30A5005
:100C800040F2FF7290421CD1080304BF2068002884
:100C900009D10320A0619DF8380061381A2836D3A5
:100CA0000FF2306108E00320A0619DF83800613840
:100CB0001A2829D30FF21461E068032200F0DEFB4A
:100CC000BEE1012816DA204600F0CBFC012811DB3A
:100CD00000250020BBF1610F20D1E168302201F82E
:100CE000012B4A1CE2609DF83820612A0CBF782253
:100CF00058220FE0626840F2FE3161F31E52451A3D
:100D000062604FF0FF30E5E70FF2BC51D4E70FF21D
:100D1000C051D1E70A706169891C616110B9002670
:100D2000002584E1BBF1610F40F09780206B002823
:100D30004CBF2126461CD4E900ABDDE902010022AC
:100D4000002300F0AFFC36B23ABF8BF00040CDE993
:100D500002A0CDE902AB06F101082D1F8DF810208D
:100D60000DF1110700E0C71DB8F1010F33DBDDE91C
:100D700002010022002300F0ADFC2CD21C2102A8AD
:100D800000F0C0FCDDE9020100F046FDA8F1070813
:100D9000B8F1010F814609DB00F06AFD02460B46FF
:100DA000DDE9020100F07CFDCDE90201F81D07211B
:100DB00005E009F00F0200F8012D4FEA2919B9F1F9
:100DC000010F01DB491EF4D5491E5CBF002200F86B
:100DD000012DF9D5C7E70DF11100391AB142B8BF9D
:100DE0000E4636B230000DF111072FD4884206DAD4
:100DF00004A9411849780829A8BF0F2100DA002169
:100E000004AA821800E0761E12F80139401E8B42B7
:100E1000F9D00F2904D104A941184A78521C4A700C
:100E2000002802D504AF761C2D1D36B2701E0DD4DD
:100E3000C1190A783032D2B23A2A03DB9DF8383031
:100E40003A3B9A18401E01F80129F2D5206B002880
:100E500040F1ED80701E2063E9E0DDE9020100222F
:100E6000002300F01FFC3CBF81F00041CDE90201EE
:100E70002DB247F2975068434B49DFF8309190FB11
:100E8000F1F52DB2C5F1070ABAF1010F90461CDB4E
:100E9000DDE902675FEACA7007D542464B46304635
:100EA000394600F0BDFD06460F46404649464246DB
:100EB0004B464FEA6A0A00F0B3FDBAF1000F8046D4
:100EC0008946E7D1CDE9026724E0CAF1000A00268D
:100ED000374F14E05FEACA7007D542464B463046AA
:100EE000394600F09DFD06460F46404649464246BB
:100EF0004B4600F095FD4FEA6A0A80468946BAF1F2
:100F0000000FE7D1DDE9020132463B4600F05AFE10
:100F1000CDE90201BBF1660F0CBF05F10A00062006
:100F2000216BDFF890904618142EA8BF13263020AE
:100F30008DF810000DF11107012E3DDBDDE90201F6
:100F400000F080FC07F1080104220A23B0FBF3F350
:100F500003EB8307A0EB4700303001F8010C0A20B7
:100F6000B3FBF0F000EB8007A3EB47033033521ED6
:100F700001F8023DE9D1083E012E01F10807DBDB53
:100F8000DDE9020100F05EFC00F07CFC02460B464D
:100F9000DDE9020100F084FC00224B4600F040FD38
:100FA000CDE90201CAE700BFA0860100000024408D
:100FB0000000F03F84D797410DF11100381A0DF170
:100FC000110702E0401E6D1E7F1C39783029F9D0D0
:100FD000BBF1660F02D12DB2691C04E0BBF1650FB5
:100FE0000CBF01210021226B8E1836B2B042B8BF6F
:100FF000064636B231001AD4814204DAC85D35287B
:10100000A8BF392000DA3020CA19521E00E0761E2F
:1010100012F80139491E8342F9D0392802D1C85D3E
:10102000401CC855002902D57F1E761C6D1C2DB2B0
:101030009DF83810009533B23A46204600F003F888
:101040000FB0BDE8F08F2DE9F04786B006468A461E
:1010500090461D4600F0FFFE012D406A376B90F868
:10106000009002DA01250FF270284AF02000BDF945
:101070003840662808BF641C12D0672876D114F166
:10108000040F79DBBC4277DA96F83800641C00075D
:1010900002D4BD42B8BF2F4624B23F1B48BF002731
:1010A00024B2F068B169012C21DA4A1C30230B54B8
:1010B000012F03DA96F83810090702D502F80090DC
:1010C000521CB261E742B8BF7C4224B26142E719C8
:1010D0007162AF42B8BF3D46B3692DB2F5612A4691
:1010E0004146181800F0CAF9781BB062BAE0081837
:1010F000A54216DA2A46414600F0C0F9B1696918DE
:10110000601B012FB161706203DA96F838000007A6
:1011100005D5F06801F80090F069401CF061B762F5
:10112000A0E02246414600F0A9F9B06920182D1B25
:10113000012F03DA96F83810090703D5F16800F893
:101140000190401C2DB2B061AF42B8BF3D46F0687F
:10115000B3692DB22A4604EB0801181800F08EF985
:10116000B0692818B061781B70627BE0BAF1610F3A
:1011700014D14FF0700A16E0BD4204DA96F8381028
:10118000090758BF2F467F1E48BF0027BAF1670FD7
:1011900014BF4FF0450A4FF0650A04E0BAF1410F61
:1011A00008BF4FF0500AB169F0684A1CB261012FC4
:1011B00018F8013B0B5403DA96F83810090715D5D7
:1011C000531CB36102F80090012F0FDB6D1E2DB28E
:1011D000AF42B8BF3D462DB22A464146181800F02E
:1011E0004DF9B0692818B061781B7062F068B16978
:1011F0000918200081F800A004D42B20487001F1C8
:10120000020804E02D224A7001F102086442002520
:1012100002AF08E00A22684600F036FE019807F89F
:10122000010B6D1C009C21B20129F3DA022D06DAB4
:101230004AF02000652804BF302008F8010B4DB9A2
:10124000302008F8010B07E06D1E02A8285C303042
:1012500008F8010B012DF7DAF068B1690818A8EB5E
:101260000000F06196F8380000F0140010280DD14D
:101270007069B1690818716A0818F1690818B16ACB
:101280000818716B8842BCBF081A306206B0BDE80E
:10129000F087F8B504460D4616461F46002004E0C8
:1012A000E86A401CE8627F1E002047B116F8011B67
:1012B000A868A0470028A860F2D14FF0FF30F2BD27
:1012C00000000000000000006E616E004E414E0004
:1012D000696E6600494E46003000F8B504460D467A
:1012E00016461F4600F0D8FD3B46324629462046AA
:1012F00001B0BDE8F04000F0E6BD00000278C9B2E0
:101300008A421AB11CBF10F8012FF9E718BF00205C
:101310007047000000F10103810704D010F8011BA1
:1013200089B18107FAD10268B2F10131914311F01C
:10133000803F04BF50F8042FF6E710F8011B11B1ED
:1013400010F8011BFBE7C01A70470000C9B2830701
:1013500006D0521E22D310F8013B9942F7D11FE06C
:10136000083A13D302F1040241EA012141EA0141A2
:1013700050F8043B121F21BF4B40A3F1013C2CEA63
:10138000030C1CF0803FF3D0C9B2001F083210F8E4
:10139000013B521E28BF91EA030FF8D818BF012065
:1013A000401E704780B500F077FD012002BD0000AF
:1013B00070B5054605F10F00C408C046C046E400FC
:1013C000A54232D2082C04D2082402E0083000F0F2
:1013D00091F82248026811000CD1011D0A6802B37D
:1013E0001368A34238BF111DF8D310E01D68A54251
:1013F0000DD2191D0B68002BF8D11268011D00E0F9
:10140000191D0B6893420CD01D68A542F8D361B139
:101410000D682A68A2F10803A3420AD26A680A602A
:101420000FE000F073FD0028D0D1C046C046002078
:1014300070BD63190B60121B6E685E600B681A60EA
:101440002C60096800291DBF4A68002A091D002177
:101450000160C046C04605F1080070BD0C020020C6
:1014600070B504460D46164600F016FD3246294674
:101470002046BDE8704000F019BD000062B38B0744
:1014800008D0521E11F8013B00F8013B00F0248007
:101490008B07F6D1830740F0208000BF103A07D3B6
:1014A00030B4B1E83810103AA0E83810F9D230BCA6
:1014B000530724BFB1E80810A0E8081044BF51F852
:1014C000043B40F8043BD20724BF31F8022B20F83C
:1014D000022B44BF0B7803707047083A07D3B1E87A
:1014E0000810083A40F8043B40F804CBF7D2530701
:1014F000E4E7000000B9704738B5A0F1080420689F
:10150000082833D310F0070F30D1C046C046184822
:10151000416809B18C4203D26160446017E019460A
:101520004B680BB1A342FAD30B685D18AC421BD3D6
:10153000A54204D12268D2180A600C4607E04A6826
:101540001AB123681B199A420ED362604C6061681D
:1015500051B1226813198B4206D100230360086839
:101560008018206048686060C046C04631BD0000F9
:101570000C0200201B4213D1094236D12AB1844605
:10158000B0FBF2F002FB10C2704700F0D5BCFCD3F8
:101590000022002370470B0002000021002070474A
:1015A000904271EB030CF6D370B5B1FA81F4B3FA43
:1015B00083F52C1BA340C4F1200532FA05F6334312
:1015C000A2405FF00046E64002E05B085FEA3202BC
:1015D000841A71EB030524BF204629467641F4D3D3
:1015E00002000B003000002170BD012ACFD970B578
:1015F000140C20D0B1FA81F4B2FA82F5C4F12004BF
:101600006419B4F12006D6D3B2405FF00044F44030
:10161000002502E052085FEA3303C61A71EB020E9E
:1016200024BF3046714664416D41F3D302000B0084
:101630002000290070BD0C46B1FBF2F102FB114500
:101640002D0445EA1045B5FBF2F402FB145580B2B7
:1016500040EA0545B5FBF2F002FB105240EA0440B7
:1016600070BD30B4436803F0004201211B031B0B23
:10167000436004BF0368002B08D10DE00368DD0F51
:1016800045EA440444605B000360491E4468E30289
:10169000F4D523031B0B436043681A43426008469A
:1016A00030BC70474FF4001C1CEB410F94BF1CEB87
:1016B000430F09E041EA030C50EA4C0C52EA0C0CCF
:1016C00003D2994208BF9042704714BF8B428242B6
:1016D000704700004FF4001C1CEB410F94BF1CEB43
:1016E000430F09E041EA030C50EA4C0C52EA0C0C9F
:1016F00003D28B4208BF8242704714BF9942904286
:101700007047000070B504460D466068C0F30A508B
:1017100040F2FF71884207D16068000304BF20686F
:10172000002817D0022070BD20B92046FFF799FF8E
:10173000012866DA012D0FDB40F2FF71091A8D4294
:101740000AD3606800284CBF9FED2F0B9FED300B34
:1017500084ED000B012070BD4142A942616806DAA8
:101760006FF31E51401941EA0050606040E0401E96
:1017700063684519012205F1350062F31F533528CE
:1017800001F00041636003D361600020206070BD00
:10179000002015F11F0F04DA206823600022203595
:1017A00062606A4212D0401E25688041C2F1200367
:1017B000C0439D4045EAD07025686668D54006FA6A
:1017C00003F32B4323606368D340636062680A437A
:1017D000B0F1004F626003D80DD12078C0070AD560
:1017E0002068401C2060206828B96068401C606048
:1017F0004FF0FF3070BD6068884204BF2068002849
:10180000F6D1002070BD00BF000000000000F0FF16
:10181000000000000000F07FF446400D40EAC120C7
:10182000490006D200F014F8004248BF6FF00040B3
:10183000604700F00DF84FF0004188428CBF084629
:1018400040426047400D40EAC120490080F00D80D1
:1018500040F00040490DA1F58061491C05D4D1F14B
:101860001F0154BFC840C01770474FF000007047B9
:10187000010040F10980F446404200F005F851F0C3
:1018800000416047010000BF09D0B0FA80F18840F4
:10189000C91CC1F58461090501EBD02140057047E1
:1018A000F0B44FF0004591EA030F44BF6B4000F0E5
:1018B00045BB00BF841A71EB030604D26E40001BC7
:1018C000B141121973414FF4001C1CEB410F34BF9E
:1018D0007CEB430684E00C0DA4EB1356362E7DDC26
:1018E000012E43DC45EAC32343EA525312BFD2021E
:1018F00092025B08240545EAC12141EA5051D2EB2E
:10190000C020994125D407D1B0FA80F610FA06F12B
:1019100064D00020203608E0B1FA81F6B140C6F16B
:10192000200220FA02F21143B0404FEAF474B4EB03
:10193000465434F001064FEA74040AD8D6F500166E
:10194000760D04F00044F04061FA06F25040F14098
:101950004840C00A40EA415021F0004128BF5FEAF8
:10196000500550F1000044EBD12137E045EAC32394
:10197000DB0A45EAC121C90AB6F120050EDD42EABB
:101980000242120CC5F1200603FA06F6EB4042EAC9
:1019900006056D42984161F100010DE062FA06F51D
:1019A000F240554063FA06FC82EA0C02F3405A40CA
:1019B0006D42904161EB030111F4801F05D1641E5B
:1019C000620502D06D004041494121F48011430875
:1019D00075F1004350F1000041EB0451F0BC704739
:1019E0001CEB410F15D223F0004352EA43060BD003
:1019F0004FEA4C0CBCEB410F04D80C0D661E342E84
:101A0000B7DDEBE7801A994150EA410608BF002193
:101A1000E4E708BF1CEB430F28BF6FF00001DDE7D0
:101A2000B0B581EA030C0CF0004C40F2FF7515EAEA
:101A300011541DBF15EA1357AC42AF4239E0E41907
:101A400023EA455343F48013C90241F0004141EABF
:101A5000505EC7021100A7FB020200284FF00000F1
:101A6000EEFB01204FF00001E3FB072118BF42F01D
:101A70000102401800214941E3FB0E01A4F58064F6
:101A80000F0302D252004041494154F101046CDD80
:101A9000470872F1004250F1000051EB0451A1F5EA
:101AA00080115CBF41EA0C01B0BD4CEA0551002039
:101AB000B0BD05EA1357AC4214BFAF4241E050EA53
:101AC000410E1CBF52EA430E02E061460020B0BD49
:101AD00024423C441BD15FEA070EF6D0090302BF43
:101AE00001460020AEF1140EB1FA81F7AEEB070407
:101AF00001FA07FE0C37C7F1200100FA07F7C840CA
:101B00004EEA000E23EA455343F48013A2E733F074
:101B10000043B3FA83F704BFB2FA82FE77440B3F67
:101B2000E41BB7F1200E2FBF02FA0EF3BB40C7F142
:101B3000200E22FA0EFE38BF43EA0E03BA40641CA0
:101B400082E750EA410E14BF52EA430E6FF00001E3
:101B50004FF4001717EB430F8ABF194617EB410FDD
:101B6000B5E74CEA05510020B0BDD4F10104B4F151
:101B700020070FDAC4F12007520828BF42F0010203
:101B800010FA07F501FA07F7E1BF2A43E0403843AE
:101B9000E1400FE0352C98DCC7F1200452EA400206
:101BA00020FA07F218BF42F0010231FA07F0A14013
:101BB0000A43002172F1004250F1000051EB0C0188
:101BC000B0BD00002DE9F04140F2FF7581EA030C41
:101BD0000CF0004C15EA11541DBF15EA1357AC4226
:101BE000AF42E9E0BC41C1F31301C3F31303801A10
:101BF000994143F4801304D2641E40004941801887
:101C00005941C90241EA5051B1FBF3F603FB1611E9
:101C1000A2FB0675D7EBC020A94102D2761E801820
:101C20005941C90241EA5051B1FBF3FE03FB1E11B9
:101C3000A2FB0E75D7EBC020A94103D2AEF1010E75
:101C400080185941890241EA9051760546EA8E2E64
:101C5000B1FBF3F603FB1611A2FB0675D7EB802050
:101C6000A94102D2761E80185941C90241EA505159
:101C70004EEA060EB1FBF3F603FB1611A2FB067546
:101C8000D7EBC020A94102D2761E80185941C90263
:101C900041EA5051B1FBF3F703FB1711A2FB0735E3
:101CA000D3EBC020A94167F100070CBF004247F009
:101CB000010766F3D5274FEA1E31B80814F5806492
:101CC00014DDBD0775F1004250EB0E5051EB04518D
:101CD00011F5801F5CBF41EA0C01BDE8F0814CF0BA
:101CE0007F6141F0E0410020BDE8F081BD076D0853
:101CF00040EA0E5041F48011D4F10104B4F1200601
:101D00000ADAC4F120060200E04001FA06F3E140DD
:101D10001843B24015430EE0342C14DCC6F1200405
:101D200045EA40056D0820FA06F2154321FA06F04F
:101D3000A1400D43002175F1004250F1000051EB2C
:101D40000C01BDE8F08100205FEA0C01BDE8F081E4
:101D5000CFB992185B41B3FA83F704BFB2FA82F6A7
:101D6000BF190B3FB7F120062FBF02FA06F3BB40A5
:101D7000C7F1200622FA06F638BF3343BA401CB139
:101D8000E419641E2FE77F4231F00041B1FA81F47B
:101D900004BFB0FA80F6A4190B3CB4F120062FBFA3
:101DA00000FA06F1A140C4F1200620FA06F638BF79
:101DB0003143A0403C1B16E7AC421ABF05EA13575B
:101DC000AF4214E050EA41061CBF52EA4306BFE7A7
:101DD00050EA4107304661461CBF41EA0551BDE863
:101DE000F08152EA430C08BFC143BDE8F0810020F6
:101DF0004FF4001616EB410F98BF16EB430F08BFC8
:101E000016EB410F24BFC14305E016EB430F0CBF97
:101E100061464CEA0551BDE8F081000080B51348E9
:101E200000F0F6F80FF24C020FF24401016042623A
:101E300041600FF24402826381600FF24402C1608C
:101E40000161416181618162C16201634163C26379
:101E50000164416401BD10B5044800F0D9F804469E
:101E6000206808B9FFF7DAFF204610BD0000002007
:101E7000000000002E00000066616C736500000029
:101E8000747275650000000091FBF2F303FB121100
:101E9000C0E900317047000080B5DFF80C0000F0A9
:101EA000B7F8806902BD00009000002030B430B95E
:101EB0000FF24800D0E90045C2E900451BE001707F
:101EC000012030BC704730B431B90FF23800D0E98E
:101ED0000045C3E900450EE01AB930BC6FF00100BF
:101EE000704708B10A7802800978481E804130BCEA
:101EF000C043C00F7047002030BC70470000000096
:101F00000000000000000000000000000749086811
:101F100008B1002070470648C008C00008600549A5
:101F2000C908C900091A0160704700BF18020020E3
:101F3000270600202008002070470000841A71EB5B
:101F4000030603D2001BB141121973414FF4001C68
:101F50001CEB410F34BF7CEB430443E00C0DA4EBBE
:101F60001356352E50DC45EAC323DB0A45EAC1216E
:101F7000C912B6F120050DDD63FA05F6EB4086EADD
:101F80000305124218BF45F00105C01851F10001C8
:101F90000CD213E062FA06F5F2405540F3415A4084
:101FA000B340F3405A408018594107D349085FEACB
:101FB00030005FEA350528BF45F0010501F58011C5
:101FC000420875F1004250F1000041EB0451F0BCB1
:101FD0004FF4001C1CEB410F38BF70470020090D67
:101FE000090570471CEB410F10D252EA43060BD093
:101FF000BCEB410F05D80C0DAB43661E342EB5DD8E
:1020000002E0AB4380185941F0BC7047F0BC704708
:102010007047000038B5040000252078C0076FD550
:10202000DFF86406006810F00C0004280BD0DFF81D
:102030005806006810F00C0008280ED1DFF84C0696
:102040000068400209D5DFF848060068800357D5CC
:102050006068002854D10120CFE16068B0F5803F6E
:1020600008D1DFF82C06006850F48030DFF8201625
:10207000086024E06068B0F5A02F10D1DFF81006EA
:10208000006850F48020DFF808160860DFF80006CA
:10209000006850F48030DFF8F81508600FE0DFF8D2
:1020A000F005006830F48030DFF8E4150860DFF8F0
:1020B000E005006830F48020DFF8D415086060681F
:1020C00000280ED000F039FB0500DFF8C4050068D9
:1020D000800315D400F031FB401B6528F5D30320A5
:1020E0008BE100F02AFB0500DFF8A40500688003FF
:1020F00006D500F022FB401B6528F5D303207CE1C8
:10210000207880072BD5DFF88005006810F00C0FD1
:102110000BD0DFF87405006810F00C00082837D1E8
:10212000DFF868050068400232D4DFF86405006813
:10213000800704D5E068012801D001205DE1DFF8C7
:10214000500500685FF0F851B1FA81F130F0F80005
:10215000226912FA01F10843DFF83415086020788B
:10216000000762D5606900284CD00120DFF82415F3
:10217000086000F0E2FA0500DFF81C05006880073F
:1021800053D400F0DAFA401B0328F5D3032034E1DE
:10219000E068002823D00120DFF80015086000F077
:1021A000CCFA0500DFF8E8040068800706D400F0E8
:1021B000C4FA401B0328F5D303201EE1DFF8D00446
:1021C00000685FF0F851B1FA81F130F0F80022694F
:1021D00012FA01F10843DFF8B8140860BFE70020E5
:1021E000DFF8B814086000F0A8FA0500DFF8A004D2
:1021F00000688007B3D500F0A0FA401B0328F5D390
:102200000320FAE00020DFF88C14086000F095FA53
:102210000500DFF884040068800706D500F08DFA19
:10222000401B0328F5D30320E7E0207840077CD546
:1022300000200090DFF86804006850F08050DFF85C
:1022400060140860DFF85804006810F080500090B7
:102250000098DFF85004006850F48070DFF84414F0
:10226000086000F06AFA0500DFF838040068C0056D
:1022700006D400F062FA401B0328F5D30320BCE02B
:10228000A068012808D1DFF82004006850F00100A0
:10229000DFF81414086023E0A068052810D1DFF8E7
:1022A0000804006850F00400DFF8FC130860DFF851
:1022B000F803006850F00100DFF8EC1308600FE04D
:1022C000DFF8E403006840084000DFF8DC13086032
:1022D000DFF8D403006830F00400DFF8CC130860A6
:1022E000A068002810D000F028FA0500DFF8B80335
:1022F0000068800719D400F020FA401B41F28931B0
:102300008842F3D3032078E000F017FA0500DFF8E5
:1023100098030068800708D500F00FFA401B41F2CF
:1023200089318842F3D3032067E0A069002863D095
:10233000DFF85403006810F00C0008285AD0A06998
:10234000022844D10020DFF86413086000F0F5F99A
:102350000500DFF83C030068800106D500F0EDF9C8
:10236000401B0328F5D3032047E0DFF84403B0FA0D
:1023700080F14FF44040B0FA80F2F020B0FA80F0E3
:10238000E369256A2B43656A15FA01F11943A36ACB
:102390005B085B1E13FA02F21143E26A12FA00F0C4
:1023A0000843DFF8E81208600120DFF80013086036
:1023B00000F0C3F90500DFF8D802006880011BD4E3
:1023C00000F0BBF9401B0328F5D3032015E00020E3
:1023D000DFF8D812086000F0B0F90500DFF8B002AD
:1023E0000068800108D500F0A8F9401B0328F5D348
:1023F000032002E0012000E0002032BD70B504009F
:102400000D000026DFF8AC02006810F00F00A842B3
:102410000BD2DFF8A0020570DFF89802006810F018
:102420000F00A84201D00120C0E02078800709D524
:10243000DFF85402006830F0F000A1680843DFF8CC
:10244000481208602078C00772D56068012806D15C
:10245000DFF83C020068800315D40120A6E0606824
:10246000022802D06068032806D1DFF82402006841
:10247000800108D4012099E0DFF814020068800789
:1024800001D4012092E0DFF800020068800880009B
:1024900061680843DFF8F011086000F04EF90600AB
:1024A000606801280FD1DFF8E001006810F00C002F
:1024B00004283DD000F041F9801B41F28931884267
:1024C000F1D3032072E0606802280FD1DFF8B80171
:1024D000006810F00C0008282AD000F02EF9801BAC
:1024E00041F289318842F1D303205FE0606803281C
:1024F0000FD1DFF89401006810F00C000C2817D001
:1025000000F01BF9801B41F289318842F1D303208E
:102510004CE0DFF87401006810F00C0F08D000F0F8
:102520000CF9801B41F289318842F2D303203DE04F
:10253000DFF88001006810F00F0085420BD2DFF851
:1025400074010570DFF86C01006810F00F00A842FC
:1025500001D001202AE02078400707D54A480068CA
:1025600030F4E050E16808434749086020780007EC
:1025700008D54548006830F46040216950EAC10040
:102580004149086000F017F83F4909685FF0706240
:10259000B2FA82F2484B11F0F001D140C95CC84058
:1025A00046490860002000F0B0F8002070BD01200E
:1025B0004349086070470020002000210020324875
:1025C000006810F00C00002804D0042804D008286B
:1025D00004D034E03B4833E03B4831E02B4800680E
:1025E00010F03F002949096849020DD527490968BB
:1025F000354AB2FBF0F047F6C07211402C4AB2FAED
:1026000082F2D14048430CE0204909682D4AB2FBD0
:10261000F0F047F6C0721140254AB2FA82F2D1407A
:1026200048431A49096811F440314FF44042B2FA64
:1026300082F2D140491C4900B0FBF1F000E0214892
:1026400070471E480068704780B5FFF7FAFF0E49D3
:1026500009685FF46012B2FA82F21C4B11F4E05187
:10266000D140C95CC84002BD80B5FFF7EAFF06490A
:1026700009685FF4E022B2FA82F2144B11F460416F
:10268000D140C95CC84002BD08380240043802404D
:1026900000380240800E4742743802400000474232
:1026A00040380240007000407038024060004742ED
:1026B0000000FE03003C0240483D00083C010020B1
:1026C0004C0047420024F40000127A00743D0008D8
:1026D00080B52348006850F4007021490860204804
:1026E000006850F480601E4908601D48006850F47E
:1026F00080701B490860032000F09CF8002000F067
:1027000004F800F0DCF8002002BD10B50400154804
:1027100000684FF47A71B0FBF1F000F0A5F80022E8
:1027200021005FF0FF3000F089F8002010BD0E4856
:102730000068401C0C49086070470B4800687047EF
:1027400031B5FFF7FAFF0400009D15F1010F00D02D
:102750006D1CFFF7F2FF001BA842FAD331BD000049
:10276000003C02403C0100201402002010F0070150
:10277000484800684FF6FF021040474A52EA0121DC
:10278000084344490860704742480068C0F302208B
:102790007047012110F01F029140404A40B24009A9
:1027A00042F82010704740B2002808D509013C4A81
:1027B00040B210F00F00801800F8041C03E009017B
:1027C000384A40B28154704710B410F00700D0F17D
:1027D0000703052B01D3042301E0D0F10703041DF7
:1027E000072C01D2002000E0C01E012414FA03F3DC
:1027F0005B1E19408140012313FA00F0401E104077
:10280000084310BC704780B5411EB1F1807F01D3F1
:1028100001200EE0401E244908600F215FF0FF30C8
:10282000FFF7C1FF00202149086007202049086008
:10283000002002BD80B5FFF799FF01BD70B504000F
:102840000D0016000020FFF79FFF32002900FFF760
:10285000BBFF0100200040B2FFF7A5FF70BD80B5AF
:1028600040B2FFF796FF01BD80B5FFF7CCFF02BD78
:10287000042806D10E48006850F004000C49086096
:1028800005E00B48006830F0040009490860704713
:10289000000000000CED00E00000FA0500E100E09F
:1028A00018ED00E000E400E014E000E018E000E0D3
:1028B00010E000E080B500F001F801BD704780B580
:1028C0000520FFF7B7FF002200217FF00B00FFF784
:1028D000B5FF002200217FF00A00FFF7AFFF0022C2
:1028E00000217FF00900FFF7A9FF002200217FF0FF
:1028F0000400FFF7A3FF002200217FF00300FFF791
:102900009DFF002200217FF00100FFF797FF0022CA
:1029100000215FF0FF30FFF791FF0022002105202A
:10292000FFF78CFF0520FFF79AFF01BD10B50400EB
:10293000002C01D1012014E094F93900002805D1C0
:10294000002084F83800200000F012FB022084F8F8
:102950003900211D206800F052F9012084F8390067
:10296000002010BD10B504000122206800F0F7F926
:102970002068006850F0010021680860002010BD48
:1029800038B504000D0094F93800012801D1022067
:102990005FE0012084F83800022084F83900002A22
:1029A00012D1EB686A682968206800F09AF92068FB
:1029B000806930F00C002168886120688069A9680E
:1029C0000843216888613DE0042A13D1EB686A68F6
:1029D0002968206800F04BFA2068806930F4406074
:1029E0002168886120688069A96850EA012021680F
:1029F000886127E0082A12D1EB686A682968206894
:102A000000F067FA2068C06930F00C002168C861E6
:102A10002068C069A96808432168C86112E0EB68B2
:102A20006A682968206800F070FA2068C06930F48C
:102A300040602168C8612068C069A96850EA012027
:102A40002168C861012084F83900002084F838002A
:102A5000002032BD10B50400002094F93800012890
:102A600001D1022081E0012084F83800022084F89E
:102A700039002068806830F0770030F47F402268A9
:102A800090600868002855D0102858D020285BD0C6
:102A900030285ED0402843D050282DD0602835D033
:102AA00070280DD0B0F5805F03D0B0F5005F16D070
:102AB00054E020688068C008C000216888604DE04C
:102AC000CB684A688968206800F046FA2068806808
:102AD00030F0770050F07700216888603EE0CB68E6
:102AE0004A688968206800F037FA2068806850F4E6
:102AF00080402168886031E0CA684968206800F039
:102B0000A2F95021206800F01DFA27E0CA68496840
:102B1000206800F0C9F96021206800F013FA1DE078
:102B2000CA684968206800F08EF94021206800F0EA
:102B300009FA13E00021206800F004FA0EE01021E9
:102B4000206800F0FFF909E02021206800F0FAF980
:102B500004E03021206800F0F5F9FFE7012084F857
:102B60003900002084F83800002010BD10B50400A2
:102B700094F93800012801D102201BE0012084F8DB
:102B80003800022084F83900200000F00FF9206896
:102B9000C06830F040002168C8602068C06830F428
:102BA00080402168C860012084F83900002084F842
:102BB0003800002010BD002290F93830012B01D1DF
:102BC00002201BE0012380F83830002906D00429B8
:102BD00007D0082908D00C2909D00BE001684A6BFE
:102BE00008E001688A6B05E00168CA6B02E00168D1
:102BF0000A6CFFE7002180F83810100070470022AF
:102C00000268DFF87C31984212D0B0F1804F0FD0CB
:102C1000DFF8703198420BD0DFF86C31984207D062
:102C2000DFF86831984203D0DFF86431984201D16F
:102C3000012300E00023DBB2002B03D032F070024E
:102C40004B681A43DFF8383198422AD0B0F1804FF0
:102C500027D0DFF83031984223D0DFF82C3198426A
:102C60001FD0DFF8283198421BD0DFF8243198427A
:102C700017D0DFF82031984213D0DFF81C3198428A
:102C80000FD0DFF8183198420BD0DFF8143198429A
:102C900007D0DFF81031984203D0DFF80C319842AA
:102CA00001D1012300E00023DBB2002B03D032F47A
:102CB0004072CB681A4302608A68C2620A68826204
:102CC0002F4A904202D0324A904201D1012200E0C4
:102CD0000022D2B2002A01D00969016301214161B9
:102CE000704770B400250024046A6408640004621C
:102CF0008569046A224EB04214D0B0F1804F11D0E1
:102D0000204EB0420ED0204EB0420BD01F4EB042EB
:102D100008D01F4EB04205D01E4EB04202D0204E09
:102D2000B04201D1012600E00026F6B2002E03D009
:102D3000AD08AD00154303E0AD08AD0055F0010549
:102D400035F0F0051A0112F0F002154334F00A04D0
:102D500011F00A010C438561046270BC704710B425
:102D6000002301238B40046A34EA03030362036AED
:102D700012FA01F11943016210BC70470000000013
:102D8000000001400004004000080040000C00402A
:102D9000000401400040014000440140004801405F
:102DA00000180040001C00400020004010B5002228
:102DB000002200230268926832F070024B681A43C6
:102DC000D208D2000B681A4303689A604A68002A46
:102DD00034D0102A33D0202A32D0302A31D0402AA1
:102DE0000CD0502A1ED0602A22D0702A2AD10B691A
:102DF0008A68C968006800F0AFF823E00268136AC7
:102E00000268126A520852000468226202689269DB
:102E100032F0F002096952EA011201688A61006821
:102E200003620FE00A698968006800F00CF809E0A5
:102E30000A698968006800F037F803E002E001E001
:102E400000E0FFE710BD10B400230024046A036A09
:102E50005B085B000362836933F0F00353EA0213FB
:102E600034F00A040C438361046210BC704730B430
:102E700000240025046A34F0100404628469056AA1
:102E800034F4407454EA022434F470441A0312F403
:102E90007042144335F0A005090111F0A0010D4363
:102EA0008461056230BC704710B400230024036ABB
:102EB00033F0100303628369046A33F4704353EA06
:102EC000023334F0A00454EA01148361046210BC9C
:102ED000704730B400240025046A34F4807404621E
:102EE000C469056AA408A400144334F0F0041A016C
:102EF00012F0F002144335F42065090211F4206148
:102F00000D43C461056230BC704730B40024002515
:102F1000046A34F480540462C469056A34F4407469
:102F200054EA022434F470441A0312F47042144335
:102F300035F42045090311F420410D43C4610562B5
:102F400030BC70470022826832F0700289B251F0C2
:102F500007010A438260704710B40024846834F487
:102F60007F44114351EA03210C43846010BC704735
:102F700000B587B0624988421AD1002000906148AC
:102F8000006850F001005F4908605E48006810F07A
:102F90000100009000984FF4004001900220029040
:102FA000012003900120059001A9574800F0B0F8D6
:102FB00007B000BD00B58FB00020009053480068F6
:102FC00050F00100514908605048006810F00100BD
:102FD000009000985FF0804049490860002048490F
:102FE00048600020464988605FF0FF304449C8606F
:102FF0000020434908614248FFF798FC4FF4805095
:103000000A900AA93E48FFF725FD042005905020AC
:10301000069000200990002007900020089005A944
:103020003748FFF7A3FD0020019001200290002007
:10303000039000200490002201A93148FFF7A0FC72
:1030400002200190022002900020039000200490B2
:10305000042201A92A48FFF793FC00212848FFF722
:1030600081FC04212648FFF77DFC0FB000BD000065
:1030700038B50400002500209FED1E0A0021002124
:103080002000FFF798FD451C04212000FFF793FD69
:10309000401C41F21701B5FBF1F1B0EB011F02D268
:1030A000BFEE000A1AE0182202FB1155B0EB011026
:1030B00000EE100AB8EE400A00EE905AF8EE600AF0
:1030C00080EE200ADFED0C0A20EE200ABCEEC00ADA
:1030D000B8EE400AF2EE040A80EE200A31BD00008C
:1030E00080B59FED040AFFF7C3FFDFED040A20EE71
:1030F000200A01BD0000000000007A4466666640B8
:10310000D001002030380240000002404038024028
:1031100078B4002400230024002237E00825EDB213
:1031200012F00306F6B2B600B5402C43DFF8BC51EE
:10313000960845F82640DFF8B84124689C434D685E
:10314000ED0300D51C43DFF8A8512C60DFF8A44143
:1031500024689C434D68AD0300D51C43DFF89451AF
:103160002C60DFF8944124689C434D68ED0200D543
:103170001C43DFF884512C60604C24689C434D68EC
:10318000AD0200D51C435D4B1C60521C102A80F020
:10319000AA80012313FA02F40B682340A342F4D15E
:1031A0004C68022C02D04C68122C15D1D40810EBBC
:1031B0008404246A0F2512F00706F6B2B600B54063
:1031C000AC430D6912F00706F6B2B600B5402C43C9
:1031D000D50810EB85052C62046803251600F6B2AD
:1031E0007600B540AC430D7915F003051600F6B234
:1031F0007600B5402C4304604C68012C08D04C6824
:10320000022C05D04C68112C02D04C68122C17D11E
:10321000846803251600F6B27600B540AC43CD684D
:103220001600F6B27600B5402C4384604468012550
:103230009540AC434D68C5F3001595402C43446060
:10324000C46803251600F6B27600B540AC438D681D
:103250001600F6B27600B5402C43C4604C68E4001A
:1032600093D500240094264C246854F48044244DC3
:103270002C60234C246814F480440094009C1B4C64
:10328000950854F825400F2512F00306F6B2B60053
:10329000B540AC431B4DA84201D100253FE71A4D74
:1032A000A84201D101253AE7184DA84201D10225D3
:1032B00035E7174DA84201D1032530E7154DA84247
:1032C00001D104252BE7144DA84201D1052526E79D
:1032D000124DA84201D1062521E7114DA8427FF4E5
:1032E0001DAF07251BE771BC70470000083801407F
:1032F000003C0140043C0140083C01400C3C0140C2
:10330000443802400000024000040240000802402D
:10331000000C02400010024000140240001802405D
:10332000001C024010B50400002C01D1012033E044
:10333000A0690028FFD194F83900002805D10020A9
:1033400084F83800200000F05BFA242084F839006B
:103350002068C06830F400502168C860200000F088
:10336000C2F82068006930F4904021680861206844
:10337000406930F02A00216848612068C06850F434
:1033800000502168C8600020E063202084F83900E4
:10339000202084F83A00002010BD2DE9F04182B0D1
:1033A00004000D0016001F005FF0000894F83900BB
:1033B00020285DD1002D02D0B6B2002E01D101200F
:1033C00057E094F93800012801D1022051E0012092
:1033D00084F838000020E063212084F83900FFF7EA
:1033E000ACF98046A684E68403E02878216848602A
:1033F0006D1CE08C002828D0E08C401EE084A06882
:10340000B0F5805F16D1009743460022802120004E
:1034100000F031F8002801D003202AE02888C005F8
:10342000C00D216848602069002801D1AD1CE0E78B
:103430006D1CDEE70097434600228021200000F04B
:103440001AF80028D1D0032013E000974346002249
:103450004021200000F00FF8002801D0032008E0F0
:10346000202084F83900002084F83800002000E093
:103470000220BDE8F6812DE9F04104000D001600A0
:103480001F00DDF81880206800682840A84201D19C
:10349000012000E0002076B2B04221D118F1010FE6
:1034A000F1D0B8F1000F04D0FFF747F9C01B8045F9
:1034B000E9D22068C06830F4D0702168C860206804
:1034C00040694008400021684861202084F83900A4
:1034D000202084F83A00002084F83800032000E01F
:1034E0000020BDE8F0812DE9F041040000202068B3
:1034F000006930F44050E1680843216808612068A1
:10350000C068BC490840A16822691143626911433F
:10351000E269114308432168C8602068406930F4BB
:103520004070A169084321684861E069B0F5004F27
:1035300040F0B0802068B049884203D02068AF498D
:10354000884253D1FFF790F88046FFF78DF80600C8
:10355000FFF78AF80700FFF787F80500FFF784F800
:10356000192101FB08F162685200B1FBF2F16422FB
:10357000B1FBF2F1192202FB06F263685B00B2FBB9
:10358000F3F2192303FB07F366687600B3FBF6F347
:103590006426B3FBF6F3642606FB1322D200323214
:1035A0006423B2FBF3F212F0F802520012EB0111A5
:1035B000192202FB05F263685B00B2FBF3F21923E8
:1035C000584363685B00B0FBF3F06423B0FBF3F097
:1035D000642303FB1020C00032306422B0FBF2F001
:1035E00010F0070040182168886000E1FFF72CF810
:1035F0008046FFF729F80600FFF726F80700FFF7D7
:1036000023F80500FFF720F8192101FB08F1626893
:103610005200B1FBF2F16422B1FBF2F1192202FB7C
:1036200006F263685B00B2FBF3F2192303FB07F3B6
:1036300066687600B3FBF6F36426B3FBF6F3642604
:1036400006FB1322D20032326423B2FBF3F212F0F3
:10365000F802520012EB0111192202FB05F2636815
:103660005B00B2FBF3F21923584363685B00B0FBC5
:10367000F3F06423B0FBF3F0642303FB1020C000DD
:1036800032306422B0FBF2F010F0070040182168DD
:103690008860ACE020685849884203D020685749C8
:1036A000884252D1FEF7E0FF8046FEF7DDFF0600BC
:1036B000FEF7DAFF0700FEF7D7FF0500FEF7D4FF9D
:1036C000192101FB08F162689200B1FBF2F164225A
:1036D000B1FBF2F1192202FB06F263689B00B2FB18
:1036E000F3F2192303FB07F36668B600B3FBF6F3A6
:1036F0006426B3FBF6F3642606FB13221201323272
:103700006423B2FBF3F212F0F00212EB0111192262
:1037100002FB05F263689B00B2FBF3F219235843E6
:1037200063689B00B0FBF3F06423B0FBF3F0642309
:1037300003FB1020000132306422B0FBF2F010F0E5
:103740000F0040182168886051E0FEF77DFF804639
:10375000FEF77AFF0600FEF777FF0700FEF774FF1B
:103760000500FEF771FF192101FB08F16268920064
:10377000B1FBF2F16422B1FBF2F1192202FB06F275
:1037800063689B00B2FBF3F2192303FB07F366683F
:10379000B600B3FBF6F36426B3FBF6F3642606FB30
:1037A0001322120132326423B2FBF3F212F0F00260
:1037B00012EB0111192202FB05F263689B00B2FBB8
:1037C000F3F21923584363689B00B0FBF3F06423C2
:1037D000B0FBF3F0642303FB1020000132306422BD
:1037E000B0FBF2F010F00F00401821688860BDE8CF
:1037F000F0810000F369FFFF001001400014014058
:1038000000B587B000683149884227D10020009078
:103810002F48006850F010002D4908602C480068BF
:1038200010F01000009000984020019002200290BB
:1038300002200490072005900020039001A925484C
:10384000FFF766FC8020019000200290002003908A
:103850000720059001A91F48FFF75AFC07B000BDDB
:1038600080B5002000901C48006850F002001A4902
:1038700008601948006810F0020000900098134892
:10388000164908605FF4E13014494860002013498C
:10389000886000201149C8600020104908610C2090
:1038A0000E49486100200D49886100200B49C8611C
:1038B0000A48FFF737FD01BD01B54FF6FF7301223E
:1038C00069460648FFF769FD009802BD00100140F7
:1038D0004438024000040240303802409001002089
:1038E00000B593B0002000904048006850F0805030
:1038F0003E4908603D48006810F0805000900098F4
:10390000002000903A48006850F480403849086030
:103910003748006810F4804000900098012006901D
:103920005FF48030079002200C905FF480000D90CF
:1039300008200E904FF4A8700F90022010900720DE
:10394000119006A8FEF766FB0F200190022002905E
:10395000002003904FF4A05004904FF48050059045
:10396000052101A8FEF74AFDFEF721FEFEF769FEDC
:103970004FF47A71B0FBF1F0FEF776FF0420FEF70A
:1039800077FF002200215FF0FF30FEF757FF13B0F2
:1039900000BD80B5FEF79CFEFFF7A2FFFFF760FFBA
:1039A000FFF708FB134800F02DF84FF4FA70FEF70C
:1039B000C7FE6420FEF7C4FE0F48FFF759FB10EE68
:1039C000100A00F031F802000B000C4800F01AF861
:1039D0000948FFF785FB10EE100A00F025F80200F9
:1039E0000B00074800F00EF8E3E700004038024003
:1039F00000700040343C0008D0010020F83C000872
:103A0000343D00080EB400B582B003A9009102460F
:103A10006B460121034878440A30FCF7B5FB06BC2D
:103A20005DF810FBED0200005FF0FF0C1CEAD051C6
:103A300014BF614506E0C110400721F0E04101F1EB
:103A40006051704779B900F0004100020AD0B0FA25
:103A500080FC00FA0CF001F16051A1EB0C5101EB7C
:103A6000D0214005704741020CBF40F4E0016FF0E7
:103A7000000100207047816807E002681168536800
:103A800089185B18C36008320260C2689142F4D0A2
:103A90004A1C8260087870472DE9FF4D00F108014B
:103AA000009100270268520801EBC2010191B8465B
:103AB0000021029103910168490800EBC1014068AF
:103AC00000F0010501F10804400804EBC00630E0F5
:103AD0006846FFF7D0FF4FFA80FA0AE000980168C5
:103AE0000818009902904968081803900098083057
:103AF0000090029803998842F0D010F801BB029020
:103B000047450CD1B44208BF00F01DF8276805B145
:103B10004F44606800EB070808344745F2D0BAF11B
:103B2000000F07F801BB0AD51AF1010AE8D1474591
:103B3000CED1B442CCD1304604B0BDE8F08DBAF15C
:103B4000010AD6D5F3E7012000F000B880B5C046E1
:103B5000C046024A11001820ABBEFBE72600020057
:103B60001248006850F4700010490860104800685E
:103B700050F001000E49086000200E4908600C4812
:103B800000680D4908400A4908600C480C49086063
:103B90000748006830F48020054908600020094982
:103BA00008605FF0006008490860704788ED00E039
:103BB0000038024008380240FFFFF6FE10300024B3
:103BC000043802400C38024008ED00E019E050F8DB
:103BD000041BCB0744BFA9F101035918121F00238E
:103BE000042A41F8043BF9D25FEA827C0B4604D5F3
:103BF0004FF0000CA1F800C09B1CD10744BF00216E
:103C0000197050F8042B002AE1D1704710B507490C
:103C100079441831064C7C44163404E00A68081DC7
:103C2000511888470146A142F8D110BD500000004C
:103C300078000000202D2D3E20BEF8B6D4CABDB1BC
:103C4000E0C2EBC6F750574DB6C1C8A1BDC7B6C854
:103C5000203C2D2D0A0000004EF68851CEF20001C6
:103C6000086840F470000860BFF34F8FBFF36F8F98
:103C70004FF00070E1EE100A7047000051FFFFFFA7
:103C8000DC00000040010020000000000DFEFFFFEE
:103C900002000000020000002402000033000000C7
:103CA00000000020400100007047FEE7FEE7FEE74D
:103CB000FEE770477047704780B5FEF738FDFEF7A6
:103CC000F9FD01BD7047000000F00BF8002801D09D
:103CD000FFF79CFF0020C046C046FFF75AFE00F0E9
:103CE00002F80120704700F001B80000074638468E
:103CF000FFF72CFFFBE700002050574D4475747907
:103D0000203D2025302E31662025250A00000000A8
:103D100038B504460D46284600F006F8A84218BFFC
:103D20000024204632BD00000149FFF7C5BD00BF99
:103D3000FC00002020416E676C65203D2025302E60
:103D4000326620A1E30A000000000000000000002D
:103D5000010203040607080901488047014800479B
:103D6000613B0008693D0008C046C046FFF774FF8C
:103D7000FFF7AAFF0000000001020304FFF7FEBFE7
:103D8000FFF7FEBFFFF7FEBFFFF7FEBFFFF7FEBF67
:103D9000FFF7FEBFFFF7FEBFFFF7FEBFFFF7FEBF57
:103DA000FFF7FEBFFFF7FEBFFFF7FEBFFFF7FEBF47
:103DB000FFF7FEBFFFF7FEBFFFF7FEBFFFF7FEBF37
:103DC000FFF7FEBFFFF7FEBFFFF7FEBFFFF7FEBF27
:103DD000FFF7FEBFFFF7FEBFFFF7FEBFFFF7FEBF17
:103DE000FFF7FEBFFFF7FEBFFFF7FEBFFFF7FEBF07
:103DF000FFF7FEBFFFF7FEBFFFF7FEBFFFF7FEBFF7
:103E0000FFF7FEBFFFF7FEBFFFF7FEBFFFF7FEBFE6
:103E1000FFF7FEBFFFF7FEBFFFF7FEBFFFF7FEBFD6
:103E2000FFF7FEBFFFF7FEBFFFF7FEBFFFF7FEBFC6
:103E3000FFF7FEBFFFF7FEBFFFF7FEBFFFF7FEBFB6
:103E4000FFF7FEBFFFF7FEBFFFF7FEBFFFF7FEBFA6
:103E5000FFF7FEBFFFF7FEBFFFF7FEBFFFF7FEBF96
:103E6000FFF7FEBFFFF7FEBFFFF7FEBFFFF7FEBF86
:103E7000FFF7FEBFFFF7FEBFFFF7FEBFFFF7FEBF76
:103E8000FFF7FEBFFFF7FEBFFFF7FEBFFFF7FEBF66
:103E9000FFF7FEBFFFF7FEBFFFF7FEBFFFF7FEBF56
:103EA000FFF7FEBFFFF7FEBFFFF7FEBFFFF7FEBF46
:103EB000FFF7FEBFFFF7FEBFFFF7FEBFE400F8FF0E
:103EC000DC00FAFF8100D1001F0204010140010063
:103ED000209001002040010020400100204001000E
:0F3EE000203901002020010020DF000224F4001F
:0400000508003D6949
:00000001FF
